{
	"Chat.sol": {
		"Chat": {
			"abi": [
				{
					"inputs": [
						{
							"internalType": "address",
							"name": "_friendKey",
							"type": "address"
						},
						{
							"internalType": "string",
							"name": "_name",
							"type": "string"
						}
					],
					"name": "addFriend",
					"outputs": [],
					"stateMutability": "nonpayable",
					"type": "function"
				},
				{
					"inputs": [],
					"name": "allUsers",
					"outputs": [
						{
							"components": [
								{
									"internalType": "string",
									"name": "name",
									"type": "string"
								},
								{
									"internalType": "address",
									"name": "accountAddress",
									"type": "address"
								}
							],
							"internalType": "struct Chat.allUserStruck[]",
							"name": "",
							"type": "tuple[]"
						}
					],
					"stateMutability": "view",
					"type": "function"
				},
				{
					"inputs": [
						{
							"internalType": "address",
							"name": "_publicKey",
							"type": "address"
						}
					],
					"name": "checkUserExist",
					"outputs": [
						{
							"internalType": "bool",
							"name": "",
							"type": "bool"
						}
					],
					"stateMutability": "view",
					"type": "function"
				},
				{
					"inputs": [
						{
							"internalType": "string",
							"name": "_name",
							"type": "string"
						}
					],
					"name": "createAccount",
					"outputs": [],
					"stateMutability": "nonpayable",
					"type": "function"
				},
				{
					"inputs": [],
					"name": "getMyFriendList",
					"outputs": [
						{
							"components": [
								{
									"internalType": "address",
									"name": "publicKey",
									"type": "address"
								},
								{
									"internalType": "string",
									"name": "name",
									"type": "string"
								}
							],
							"internalType": "struct Chat.friend[]",
							"name": "",
							"type": "tuple[]"
						}
					],
					"stateMutability": "view",
					"type": "function"
				},
				{
					"inputs": [
						{
							"internalType": "address",
							"name": "_publicKey",
							"type": "address"
						}
					],
					"name": "getUsername",
					"outputs": [
						{
							"internalType": "string",
							"name": "",
							"type": "string"
						}
					],
					"stateMutability": "view",
					"type": "function"
				},
				{
					"inputs": [
						{
							"internalType": "address",
							"name": "_friendKey",
							"type": "address"
						}
					],
					"name": "readMessage",
					"outputs": [
						{
							"components": [
								{
									"internalType": "address",
									"name": "sender",
									"type": "address"
								},
								{
									"internalType": "uint256",
									"name": "timestamp",
									"type": "uint256"
								},
								{
									"internalType": "string",
									"name": "mssg",
									"type": "string"
								}
							],
							"internalType": "struct Chat.message[]",
							"name": "",
							"type": "tuple[]"
						}
					],
					"stateMutability": "view",
					"type": "function"
				},
				{
					"inputs": [
						{
							"internalType": "address",
							"name": "_friendKey",
							"type": "address"
						},
						{
							"internalType": "string",
							"name": "_mssg",
							"type": "string"
						}
					],
					"name": "sendMessage",
					"outputs": [],
					"stateMutability": "nonpayable",
					"type": "function"
				}
			],
			"devdoc": {
				"kind": "dev",
				"methods": {},
				"version": 1
			},
			"evm": {
				"assembly": "    /* \"Chat.sol\":79:4275  contract Chat{... */\n  mstore(0x40, 0x80)\n  callvalue\n  dup1\n  iszero\n  tag_1\n  jumpi\n  0x00\n  dup1\n  revert\ntag_1:\n  pop\n  dataSize(sub_0)\n  dup1\n  dataOffset(sub_0)\n  0x00\n  codecopy\n  0x00\n  return\nstop\n\nsub_0: assembly {\n        /* \"Chat.sol\":79:4275  contract Chat{... */\n      mstore(0x40, 0x80)\n      callvalue\n      dup1\n      iszero\n      tag_1\n      jumpi\n      0x00\n      dup1\n      revert\n    tag_1:\n      pop\n      jumpi(tag_2, lt(calldatasize, 0x04))\n      shr(0xe0, calldataload(0x00))\n      dup1\n      0x926bef63\n      gt\n      tag_11\n      jumpi\n      dup1\n      0x926bef63\n      eq\n      tag_7\n      jumpi\n      dup1\n      0xbd0f4d0d\n      eq\n      tag_8\n      jumpi\n      dup1\n      0xce43c032\n      eq\n      tag_9\n      jumpi\n      dup1\n      0xde6f24bb\n      eq\n      tag_10\n      jumpi\n      jump(tag_2)\n    tag_11:\n      dup1\n      0x255e9c11\n      eq\n      tag_3\n      jumpi\n      dup1\n      0x298daf5b\n      eq\n      tag_4\n      jumpi\n      dup1\n      0x3b9f708d\n      eq\n      tag_5\n      jumpi\n      dup1\n      0x4918600a\n      eq\n      tag_6\n      jumpi\n    tag_2:\n      0x00\n      dup1\n      revert\n        /* \"Chat.sol\":3726:4142  function readMessage(address _friendKey) external view returns (message [] memory){... */\n    tag_3:\n      tag_12\n      0x04\n      dup1\n      calldatasize\n      sub\n      dup2\n      add\n      swap1\n      tag_13\n      swap2\n      swap1\n      tag_14\n      jump\t// in\n    tag_13:\n      tag_15\n      jump\t// in\n    tag_12:\n      mload(0x40)\n      tag_16\n      swap2\n      swap1\n      tag_17\n      jump\t// in\n    tag_16:\n      mload(0x40)\n      dup1\n      swap2\n      sub\n      swap1\n      return\n        /* \"Chat.sol\":790:1126  function createAccount(string calldata _name) external {... */\n    tag_4:\n      tag_18\n      0x04\n      dup1\n      calldatasize\n      sub\n      dup2\n      add\n      swap1\n      tag_19\n      swap2\n      swap1\n      tag_20\n      jump\t// in\n    tag_19:\n      tag_21\n      jump\t// in\n    tag_18:\n      stop\n        /* \"Chat.sol\":1376:1808  function addFriend(address _friendKey, string memory _name) external {... */\n    tag_5:\n      tag_22\n      0x04\n      dup1\n      calldatasize\n      sub\n      dup2\n      add\n      swap1\n      tag_23\n      swap2\n      swap1\n      tag_24\n      jump\t// in\n    tag_23:\n      tag_25\n      jump\t// in\n    tag_22:\n      stop\n        /* \"Chat.sol\":4171:4272  function allUsers() public view returns (allUserStruck[] memory){... */\n    tag_6:\n      tag_26\n      tag_27\n      jump\t// in\n    tag_26:\n      mload(0x40)\n      tag_28\n      swap2\n      swap1\n      tag_29\n      jump\t// in\n    tag_28:\n      mload(0x40)\n      dup1\n      swap2\n      sub\n      swap1\n      return\n        /* \"Chat.sol\":620:756  function checkUserExist(address _publicKey) public view returns(bool){... */\n    tag_7:\n      tag_30\n      0x04\n      dup1\n      calldatasize\n      sub\n      dup2\n      add\n      swap1\n      tag_31\n      swap2\n      swap1\n      tag_14\n      jump\t// in\n    tag_31:\n      tag_32\n      jump\t// in\n    tag_30:\n      mload(0x40)\n      tag_33\n      swap2\n      swap1\n      tag_34\n      jump\t// in\n    tag_33:\n      mload(0x40)\n      dup1\n      swap2\n      sub\n      swap1\n      return\n        /* \"Chat.sol\":2738:2860  function getMyFriendList() external view returns(friend[] memory){... */\n    tag_8:\n      tag_35\n      tag_36\n      jump\t// in\n    tag_35:\n      mload(0x40)\n      tag_37\n      swap2\n      swap1\n      tag_38\n      jump\t// in\n    tag_37:\n      mload(0x40)\n      dup1\n      swap2\n      sub\n      swap1\n      return\n        /* \"Chat.sol\":1154:1349  function getUsername(address _publicKey) external view  returns (string memory){... */\n    tag_9:\n      tag_39\n      0x04\n      dup1\n      calldatasize\n      sub\n      dup2\n      add\n      swap1\n      tag_40\n      swap2\n      swap1\n      tag_14\n      jump\t// in\n    tag_40:\n      tag_41\n      jump\t// in\n    tag_39:\n      mload(0x40)\n      tag_42\n      swap2\n      swap1\n      tag_43\n      jump\t// in\n    tag_42:\n      mload(0x40)\n      dup1\n      swap2\n      sub\n      swap1\n      return\n        /* \"Chat.sol\":3202:3698  function sendMessage(address _friendKey, string calldata _mssg) external {... */\n    tag_10:\n      tag_44\n      0x04\n      dup1\n      calldatasize\n      sub\n      dup2\n      add\n      swap1\n      tag_45\n      swap2\n      swap1\n      tag_46\n      jump\t// in\n    tag_45:\n      tag_47\n      jump\t// in\n    tag_44:\n      stop\n        /* \"Chat.sol\":3726:4142  function readMessage(address _friendKey) external view returns (message [] memory){... */\n    tag_15:\n        /* \"Chat.sol\":3790:3807  message [] memory */\n      0x60\n        /* \"Chat.sol\":3827:3853  checkUserExist(msg.sender) */\n      tag_49\n        /* \"Chat.sol\":3842:3852  msg.sender */\n      caller\n        /* \"Chat.sol\":3827:3841  checkUserExist */\n      tag_32\n        /* \"Chat.sol\":3827:3853  checkUserExist(msg.sender) */\n      jump\t// in\n    tag_49:\n        /* \"Chat.sol\":3819:3882  require(checkUserExist(msg.sender), \"create an acconut first!\") */\n      tag_50\n      jumpi\n      mload(0x40)\n      0x08c379a000000000000000000000000000000000000000000000000000000000\n      dup2\n      mstore\n      0x04\n      add\n      tag_51\n      swap1\n      tag_52\n      jump\t// in\n    tag_51:\n      mload(0x40)\n      dup1\n      swap2\n      sub\n      swap1\n      revert\n    tag_50:\n        /* \"Chat.sol\":3901:3927  checkUserExist(_friendKey) */\n      tag_53\n        /* \"Chat.sol\":3916:3926  _friendKey */\n      dup3\n        /* \"Chat.sol\":3901:3915  checkUserExist */\n      tag_32\n        /* \"Chat.sol\":3901:3927  checkUserExist(_friendKey) */\n      jump\t// in\n    tag_53:\n        /* \"Chat.sol\":3893:3947  require(checkUserExist(_friendKey), \"user not found!\") */\n      tag_54\n      jumpi\n      mload(0x40)\n      0x08c379a000000000000000000000000000000000000000000000000000000000\n      dup2\n      mstore\n      0x04\n      add\n      tag_55\n      swap1\n      tag_56\n      jump\t// in\n    tag_55:\n      mload(0x40)\n      dup1\n      swap2\n      sub\n      swap1\n      revert\n    tag_54:\n        /* \"Chat.sol\":3966:4008  checkAlreadyFriend(msg.sender, _friendKey) */\n      tag_57\n        /* \"Chat.sol\":3985:3995  msg.sender */\n      caller\n        /* \"Chat.sol\":3997:4007  _friendKey */\n      dup4\n        /* \"Chat.sol\":3966:3984  checkAlreadyFriend */\n      tag_58\n        /* \"Chat.sol\":3966:4008  checkAlreadyFriend(msg.sender, _friendKey) */\n      jump\t// in\n    tag_57:\n        /* \"Chat.sol\":3958:4029  require(checkAlreadyFriend(msg.sender, _friendKey), \"already friends!\") */\n      tag_59\n      jumpi\n      mload(0x40)\n      0x08c379a000000000000000000000000000000000000000000000000000000000\n      dup2\n      mstore\n      0x04\n      add\n      tag_60\n      swap1\n      tag_61\n      jump\t// in\n    tag_60:\n      mload(0x40)\n      dup1\n      swap2\n      sub\n      swap1\n      revert\n    tag_59:\n        /* \"Chat.sol\":4040:4056  bytes32 chatCode */\n      0x00\n        /* \"Chat.sol\":4059:4095  _getChatCode(_friendKey, msg.sender) */\n      tag_62\n        /* \"Chat.sol\":4072:4082  _friendKey */\n      dup4\n        /* \"Chat.sol\":4084:4094  msg.sender */\n      caller\n        /* \"Chat.sol\":4059:4071  _getChatCode */\n      tag_63\n        /* \"Chat.sol\":4059:4095  _getChatCode(_friendKey, msg.sender) */\n      jump\t// in\n    tag_62:\n        /* \"Chat.sol\":4040:4095  bytes32 chatCode = _getChatCode(_friendKey, msg.sender) */\n      swap1\n      pop\n        /* \"Chat.sol\":4113:4124  allMessages */\n      0x02\n        /* \"Chat.sol\":4113:4134  allMessages[chatCode] */\n      0x00\n        /* \"Chat.sol\":4125:4133  chatCode */\n      dup3\n        /* \"Chat.sol\":4113:4134  allMessages[chatCode] */\n      dup2\n      mstore\n      0x20\n      add\n      swap1\n      dup2\n      mstore\n      0x20\n      add\n      0x00\n      keccak256\n        /* \"Chat.sol\":4106:4134  return allMessages[chatCode] */\n      dup1\n      sload\n      dup1\n      0x20\n      mul\n      0x20\n      add\n      mload(0x40)\n      swap1\n      dup2\n      add\n      0x40\n      mstore\n      dup1\n      swap3\n      swap2\n      swap1\n      dup2\n      dup2\n      mstore\n      0x20\n      add\n      0x00\n      swap1\n    tag_64:\n      dup3\n      dup3\n      lt\n      iszero\n      tag_65\n      jumpi\n      dup4\n      dup3\n      swap1\n      0x00\n      mstore\n      keccak256(0x00, 0x20)\n      swap1\n      0x03\n      mul\n      add\n      mload(0x40)\n      dup1\n      0x60\n      add\n      0x40\n      mstore\n      swap1\n      dup2\n      0x00\n      dup3\n      add\n      0x00\n      swap1\n      sload\n      swap1\n      0x0100\n      exp\n      swap1\n      div\n      0xffffffffffffffffffffffffffffffffffffffff\n      and\n      0xffffffffffffffffffffffffffffffffffffffff\n      and\n      0xffffffffffffffffffffffffffffffffffffffff\n      and\n      dup2\n      mstore\n      0x20\n      add\n      0x01\n      dup3\n      add\n      sload\n      dup2\n      mstore\n      0x20\n      add\n      0x02\n      dup3\n      add\n      dup1\n      sload\n      tag_67\n      swap1\n      tag_68\n      jump\t// in\n    tag_67:\n      dup1\n      0x1f\n      add\n      0x20\n      dup1\n      swap2\n      div\n      mul\n      0x20\n      add\n      mload(0x40)\n      swap1\n      dup2\n      add\n      0x40\n      mstore\n      dup1\n      swap3\n      swap2\n      swap1\n      dup2\n      dup2\n      mstore\n      0x20\n      add\n      dup3\n      dup1\n      sload\n      tag_69\n      swap1\n      tag_68\n      jump\t// in\n    tag_69:\n      dup1\n      iszero\n      tag_70\n      jumpi\n      dup1\n      0x1f\n      lt\n      tag_71\n      jumpi\n      0x0100\n      dup1\n      dup4\n      sload\n      div\n      mul\n      dup4\n      mstore\n      swap2\n      0x20\n      add\n      swap2\n      jump(tag_70)\n    tag_71:\n      dup3\n      add\n      swap2\n      swap1\n      0x00\n      mstore\n      keccak256(0x00, 0x20)\n      swap1\n    tag_72:\n      dup2\n      sload\n      dup2\n      mstore\n      swap1\n      0x01\n      add\n      swap1\n      0x20\n      add\n      dup1\n      dup4\n      gt\n      tag_72\n      jumpi\n      dup3\n      swap1\n      sub\n      0x1f\n      and\n      dup3\n      add\n      swap2\n    tag_70:\n      pop\n      pop\n      pop\n      pop\n      pop\n      dup2\n      mstore\n      pop\n      pop\n      dup2\n      mstore\n      0x20\n      add\n      swap1\n      0x01\n      add\n      swap1\n      jump(tag_64)\n    tag_65:\n      pop\n      pop\n      pop\n      pop\n      swap2\n      pop\n      pop\n        /* \"Chat.sol\":3726:4142  function readMessage(address _friendKey) external view returns (message [] memory){... */\n      swap2\n      swap1\n      pop\n      jump\t// out\n        /* \"Chat.sol\":790:1126  function createAccount(string calldata _name) external {... */\n    tag_21:\n        /* \"Chat.sol\":865:891  checkUserExist(msg.sender) */\n      tag_74\n        /* \"Chat.sol\":880:890  msg.sender */\n      caller\n        /* \"Chat.sol\":865:879  checkUserExist */\n      tag_32\n        /* \"Chat.sol\":865:891  checkUserExist(msg.sender) */\n      jump\t// in\n    tag_74:\n        /* \"Chat.sol\":864:891  !checkUserExist(msg.sender) */\n      iszero\n        /* \"Chat.sol\":856:915  require(!checkUserExist(msg.sender), \"User already exist!\") */\n      tag_75\n      jumpi\n      mload(0x40)\n      0x08c379a000000000000000000000000000000000000000000000000000000000\n      dup2\n      mstore\n      0x04\n      add\n      tag_76\n      swap1\n      tag_77\n      jump\t// in\n    tag_76:\n      mload(0x40)\n      dup1\n      swap2\n      sub\n      swap1\n      revert\n    tag_75:\n        /* \"Chat.sol\":954:955  0 */\n      0x00\n        /* \"Chat.sol\":940:945  _name */\n      dup3\n      dup3\n        /* \"Chat.sol\":934:953  bytes(_name).length */\n      swap1\n      pop\n        /* \"Chat.sol\":934:955  bytes(_name).length>0 */\n      gt\n        /* \"Chat.sol\":926:985  require(bytes(_name).length>0, \"Username cannot be empty!\") */\n      tag_78\n      jumpi\n      mload(0x40)\n      0x08c379a000000000000000000000000000000000000000000000000000000000\n      dup2\n      mstore\n      0x04\n      add\n      tag_79\n      swap1\n      tag_80\n      jump\t// in\n    tag_79:\n      mload(0x40)\n      dup1\n      swap2\n      sub\n      swap1\n      revert\n    tag_78:\n        /* \"Chat.sol\":1026:1031  _name */\n      dup2\n      dup2\n        /* \"Chat.sol\":998:1006  userList */\n      0x01\n        /* \"Chat.sol\":998:1018  userList[msg.sender] */\n      0x00\n        /* \"Chat.sol\":1007:1017  msg.sender */\n      caller\n        /* \"Chat.sol\":998:1018  userList[msg.sender] */\n      0xffffffffffffffffffffffffffffffffffffffff\n      and\n      0xffffffffffffffffffffffffffffffffffffffff\n      and\n      dup2\n      mstore\n      0x20\n      add\n      swap1\n      dup2\n      mstore\n      0x20\n      add\n      0x00\n      keccak256\n        /* \"Chat.sol\":998:1023  userList[msg.sender].name */\n      0x00\n      add\n        /* \"Chat.sol\":998:1031  userList[msg.sender].name = _name */\n      swap2\n      dup3\n      tag_81\n      swap3\n      swap2\n      swap1\n      tag_82\n      jump\t// in\n    tag_81:\n      pop\n        /* \"Chat.sol\":1042:1053  getAllUsers */\n      0x00\n        /* \"Chat.sol\":1059:1117  allUserStruck({name : _name, accountAddress : msg.sender}) */\n      mload(0x40)\n      dup1\n      0x40\n      add\n      0x40\n      mstore\n      dup1\n        /* \"Chat.sol\":1081:1086  _name */\n      dup5\n      dup5\n        /* \"Chat.sol\":1059:1117  allUserStruck({name : _name, accountAddress : msg.sender}) */\n      dup1\n      dup1\n      0x1f\n      add\n      0x20\n      dup1\n      swap2\n      div\n      mul\n      0x20\n      add\n      mload(0x40)\n      swap1\n      dup2\n      add\n      0x40\n      mstore\n      dup1\n      swap4\n      swap3\n      swap2\n      swap1\n      dup2\n      dup2\n      mstore\n      0x20\n      add\n      dup4\n      dup4\n      dup1\n      dup3\n      dup5\n      calldatacopy\n      0x00\n      dup2\n      dup5\n      add\n      mstore\n      not(0x1f)\n      0x1f\n      dup3\n      add\n      and\n      swap1\n      pop\n      dup1\n      dup4\n      add\n      swap3\n      pop\n      pop\n      pop\n      pop\n      pop\n      pop\n      pop\n      dup2\n      mstore\n      0x20\n      add\n        /* \"Chat.sol\":1105:1115  msg.sender */\n      caller\n        /* \"Chat.sol\":1059:1117  allUserStruck({name : _name, accountAddress : msg.sender}) */\n      0xffffffffffffffffffffffffffffffffffffffff\n      and\n      dup2\n      mstore\n      pop\n        /* \"Chat.sol\":1042:1118  getAllUsers.push(allUserStruck({name : _name, accountAddress : msg.sender})) */\n      swap1\n      dup1\n      0x01\n      dup2\n      sload\n      add\n      dup1\n      dup3\n      sstore\n      dup1\n      swap2\n      pop\n      pop\n      0x01\n      swap1\n      sub\n      swap1\n      0x00\n      mstore\n      keccak256(0x00, 0x20)\n      swap1\n      0x02\n      mul\n      add\n      0x00\n      swap1\n      swap2\n      swap1\n      swap2\n      swap1\n      swap2\n      pop\n      0x00\n      dup3\n      add\n      mload\n      dup2\n      0x00\n      add\n      swap1\n      dup2\n      tag_84\n      swap2\n      swap1\n      tag_85\n      jump\t// in\n    tag_84:\n      pop\n      0x20\n      dup3\n      add\n      mload\n      dup2\n      0x01\n      add\n      exp(0x0100, 0x00)\n      dup2\n      sload\n      dup2\n      0xffffffffffffffffffffffffffffffffffffffff\n      mul\n      not\n      and\n      swap1\n      dup4\n      0xffffffffffffffffffffffffffffffffffffffff\n      and\n      mul\n      or\n      swap1\n      sstore\n      pop\n      pop\n      pop\n        /* \"Chat.sol\":790:1126  function createAccount(string calldata _name) external {... */\n      pop\n      pop\n      jump\t// out\n        /* \"Chat.sol\":1376:1808  function addFriend(address _friendKey, string memory _name) external {... */\n    tag_25:\n        /* \"Chat.sol\":1464:1490  checkUserExist(msg.sender) */\n      tag_87\n        /* \"Chat.sol\":1479:1489  msg.sender */\n      caller\n        /* \"Chat.sol\":1464:1478  checkUserExist */\n      tag_32\n        /* \"Chat.sol\":1464:1490  checkUserExist(msg.sender) */\n      jump\t// in\n    tag_87:\n        /* \"Chat.sol\":1456:1519  require(checkUserExist(msg.sender), \"create an acconut first!\") */\n      tag_88\n      jumpi\n      mload(0x40)\n      0x08c379a000000000000000000000000000000000000000000000000000000000\n      dup2\n      mstore\n      0x04\n      add\n      tag_89\n      swap1\n      tag_52\n      jump\t// in\n    tag_89:\n      mload(0x40)\n      dup1\n      swap2\n      sub\n      swap1\n      revert\n    tag_88:\n        /* \"Chat.sol\":1538:1564  checkUserExist(_friendKey) */\n      tag_90\n        /* \"Chat.sol\":1553:1563  _friendKey */\n      dup3\n        /* \"Chat.sol\":1538:1552  checkUserExist */\n      tag_32\n        /* \"Chat.sol\":1538:1564  checkUserExist(_friendKey) */\n      jump\t// in\n    tag_90:\n        /* \"Chat.sol\":1530:1584  require(checkUserExist(_friendKey), \"user not found!\") */\n      tag_91\n      jumpi\n      mload(0x40)\n      0x08c379a000000000000000000000000000000000000000000000000000000000\n      dup2\n      mstore\n      0x04\n      add\n      tag_92\n      swap1\n      tag_56\n      jump\t// in\n    tag_92:\n      mload(0x40)\n      dup1\n      swap2\n      sub\n      swap1\n      revert\n    tag_91:\n        /* \"Chat.sol\":1603:1645  checkAlreadyFriend(msg.sender, _friendKey) */\n      tag_93\n        /* \"Chat.sol\":1622:1632  msg.sender */\n      caller\n        /* \"Chat.sol\":1634:1644  _friendKey */\n      dup4\n        /* \"Chat.sol\":1603:1621  checkAlreadyFriend */\n      tag_58\n        /* \"Chat.sol\":1603:1645  checkAlreadyFriend(msg.sender, _friendKey) */\n      jump\t// in\n    tag_93:\n        /* \"Chat.sol\":1595:1666  require(checkAlreadyFriend(msg.sender, _friendKey), \"already friends!\") */\n      tag_94\n      jumpi\n      mload(0x40)\n      0x08c379a000000000000000000000000000000000000000000000000000000000\n      dup2\n      mstore\n      0x04\n      add\n      tag_95\n      swap1\n      tag_61\n      jump\t// in\n    tag_95:\n      mload(0x40)\n      dup1\n      swap2\n      sub\n      swap1\n      revert\n    tag_94:\n        /* \"Chat.sol\":1677:1718  _addFriend(msg.sender, _friendKey, _name) */\n      tag_96\n        /* \"Chat.sol\":1688:1698  msg.sender */\n      caller\n        /* \"Chat.sol\":1700:1710  _friendKey */\n      dup4\n        /* \"Chat.sol\":1712:1717  _name */\n      dup4\n        /* \"Chat.sol\":1677:1687  _addFriend */\n      tag_97\n        /* \"Chat.sol\":1677:1718  _addFriend(msg.sender, _friendKey, _name) */\n      jump\t// in\n    tag_96:\n        /* \"Chat.sol\":1729:1790  _addFriend(_friendKey, msg.sender, userList[msg.sender].name) */\n      tag_98\n        /* \"Chat.sol\":1740:1750  _friendKey */\n      dup3\n        /* \"Chat.sol\":1752:1762  msg.sender */\n      caller\n        /* \"Chat.sol\":1764:1772  userList */\n      0x01\n        /* \"Chat.sol\":1764:1784  userList[msg.sender] */\n      0x00\n        /* \"Chat.sol\":1773:1783  msg.sender */\n      caller\n        /* \"Chat.sol\":1764:1784  userList[msg.sender] */\n      0xffffffffffffffffffffffffffffffffffffffff\n      and\n      0xffffffffffffffffffffffffffffffffffffffff\n      and\n      dup2\n      mstore\n      0x20\n      add\n      swap1\n      dup2\n      mstore\n      0x20\n      add\n      0x00\n      keccak256\n        /* \"Chat.sol\":1764:1789  userList[msg.sender].name */\n      0x00\n      add\n        /* \"Chat.sol\":1729:1790  _addFriend(_friendKey, msg.sender, userList[msg.sender].name) */\n      dup1\n      sload\n      tag_99\n      swap1\n      tag_68\n      jump\t// in\n    tag_99:\n      dup1\n      0x1f\n      add\n      0x20\n      dup1\n      swap2\n      div\n      mul\n      0x20\n      add\n      mload(0x40)\n      swap1\n      dup2\n      add\n      0x40\n      mstore\n      dup1\n      swap3\n      swap2\n      swap1\n      dup2\n      dup2\n      mstore\n      0x20\n      add\n      dup3\n      dup1\n      sload\n      tag_100\n      swap1\n      tag_68\n      jump\t// in\n    tag_100:\n      dup1\n      iszero\n      tag_101\n      jumpi\n      dup1\n      0x1f\n      lt\n      tag_102\n      jumpi\n      0x0100\n      dup1\n      dup4\n      sload\n      div\n      mul\n      dup4\n      mstore\n      swap2\n      0x20\n      add\n      swap2\n      jump(tag_101)\n    tag_102:\n      dup3\n      add\n      swap2\n      swap1\n      0x00\n      mstore\n      keccak256(0x00, 0x20)\n      swap1\n    tag_103:\n      dup2\n      sload\n      dup2\n      mstore\n      swap1\n      0x01\n      add\n      swap1\n      0x20\n      add\n      dup1\n      dup4\n      gt\n      tag_103\n      jumpi\n      dup3\n      swap1\n      sub\n      0x1f\n      and\n      dup3\n      add\n      swap2\n    tag_101:\n      pop\n      pop\n      pop\n      pop\n      pop\n        /* \"Chat.sol\":1729:1739  _addFriend */\n      tag_97\n        /* \"Chat.sol\":1729:1790  _addFriend(_friendKey, msg.sender, userList[msg.sender].name) */\n      jump\t// in\n    tag_98:\n        /* \"Chat.sol\":1376:1808  function addFriend(address _friendKey, string memory _name) external {... */\n      pop\n      pop\n      jump\t// out\n        /* \"Chat.sol\":4171:4272  function allUsers() public view returns (allUserStruck[] memory){... */\n    tag_27:\n        /* \"Chat.sol\":4212:4234  allUserStruck[] memory */\n      0x60\n        /* \"Chat.sol\":4253:4264  getAllUsers */\n      0x00\n        /* \"Chat.sol\":4246:4264  return getAllUsers */\n      dup1\n      sload\n      dup1\n      0x20\n      mul\n      0x20\n      add\n      mload(0x40)\n      swap1\n      dup2\n      add\n      0x40\n      mstore\n      dup1\n      swap3\n      swap2\n      swap1\n      dup2\n      dup2\n      mstore\n      0x20\n      add\n      0x00\n      swap1\n    tag_105:\n      dup3\n      dup3\n      lt\n      iszero\n      tag_106\n      jumpi\n      dup4\n      dup3\n      swap1\n      0x00\n      mstore\n      keccak256(0x00, 0x20)\n      swap1\n      0x02\n      mul\n      add\n      mload(0x40)\n      dup1\n      0x40\n      add\n      0x40\n      mstore\n      swap1\n      dup2\n      0x00\n      dup3\n      add\n      dup1\n      sload\n      tag_108\n      swap1\n      tag_68\n      jump\t// in\n    tag_108:\n      dup1\n      0x1f\n      add\n      0x20\n      dup1\n      swap2\n      div\n      mul\n      0x20\n      add\n      mload(0x40)\n      swap1\n      dup2\n      add\n      0x40\n      mstore\n      dup1\n      swap3\n      swap2\n      swap1\n      dup2\n      dup2\n      mstore\n      0x20\n      add\n      dup3\n      dup1\n      sload\n      tag_109\n      swap1\n      tag_68\n      jump\t// in\n    tag_109:\n      dup1\n      iszero\n      tag_110\n      jumpi\n      dup1\n      0x1f\n      lt\n      tag_111\n      jumpi\n      0x0100\n      dup1\n      dup4\n      sload\n      div\n      mul\n      dup4\n      mstore\n      swap2\n      0x20\n      add\n      swap2\n      jump(tag_110)\n    tag_111:\n      dup3\n      add\n      swap2\n      swap1\n      0x00\n      mstore\n      keccak256(0x00, 0x20)\n      swap1\n    tag_112:\n      dup2\n      sload\n      dup2\n      mstore\n      swap1\n      0x01\n      add\n      swap1\n      0x20\n      add\n      dup1\n      dup4\n      gt\n      tag_112\n      jumpi\n      dup3\n      swap1\n      sub\n      0x1f\n      and\n      dup3\n      add\n      swap2\n    tag_110:\n      pop\n      pop\n      pop\n      pop\n      pop\n      dup2\n      mstore\n      0x20\n      add\n      0x01\n      dup3\n      add\n      0x00\n      swap1\n      sload\n      swap1\n      0x0100\n      exp\n      swap1\n      div\n      0xffffffffffffffffffffffffffffffffffffffff\n      and\n      0xffffffffffffffffffffffffffffffffffffffff\n      and\n      0xffffffffffffffffffffffffffffffffffffffff\n      and\n      dup2\n      mstore\n      pop\n      pop\n      dup2\n      mstore\n      0x20\n      add\n      swap1\n      0x01\n      add\n      swap1\n      jump(tag_105)\n    tag_106:\n      pop\n      pop\n      pop\n      pop\n      swap1\n      pop\n        /* \"Chat.sol\":4171:4272  function allUsers() public view returns (allUserStruck[] memory){... */\n      swap1\n      jump\t// out\n        /* \"Chat.sol\":620:756  function checkUserExist(address _publicKey) public view returns(bool){... */\n    tag_32:\n        /* \"Chat.sol\":684:688  bool */\n      0x00\n        /* \"Chat.sol\":747:748  0 */\n      dup1\n        /* \"Chat.sol\":713:721  userList */\n      0x01\n        /* \"Chat.sol\":713:733  userList[_publicKey] */\n      0x00\n        /* \"Chat.sol\":722:732  _publicKey */\n      dup5\n        /* \"Chat.sol\":713:733  userList[_publicKey] */\n      0xffffffffffffffffffffffffffffffffffffffff\n      and\n      0xffffffffffffffffffffffffffffffffffffffff\n      and\n      dup2\n      mstore\n      0x20\n      add\n      swap1\n      dup2\n      mstore\n      0x20\n      add\n      0x00\n      keccak256\n        /* \"Chat.sol\":713:738  userList[_publicKey].name */\n      0x00\n      add\n        /* \"Chat.sol\":707:746  bytes(userList[_publicKey].name).length */\n      dup1\n      sload\n      tag_114\n      swap1\n      tag_68\n      jump\t// in\n    tag_114:\n      swap1\n      pop\n        /* \"Chat.sol\":707:748  bytes(userList[_publicKey].name).length>0 */\n      gt\n        /* \"Chat.sol\":700:748  return bytes(userList[_publicKey].name).length>0 */\n      swap1\n      pop\n        /* \"Chat.sol\":620:756  function checkUserExist(address _publicKey) public view returns(bool){... */\n      swap2\n      swap1\n      pop\n      jump\t// out\n        /* \"Chat.sol\":2738:2860  function getMyFriendList() external view returns(friend[] memory){... */\n    tag_36:\n        /* \"Chat.sol\":2787:2802  friend[] memory */\n      0x60\n        /* \"Chat.sol\":2821:2829  userList */\n      0x01\n        /* \"Chat.sol\":2821:2841  userList[msg.sender] */\n      0x00\n        /* \"Chat.sol\":2830:2840  msg.sender */\n      caller\n        /* \"Chat.sol\":2821:2841  userList[msg.sender] */\n      0xffffffffffffffffffffffffffffffffffffffff\n      and\n      0xffffffffffffffffffffffffffffffffffffffff\n      and\n      dup2\n      mstore\n      0x20\n      add\n      swap1\n      dup2\n      mstore\n      0x20\n      add\n      0x00\n      keccak256\n        /* \"Chat.sol\":2821:2852  userList[msg.sender].friendList */\n      0x01\n      add\n        /* \"Chat.sol\":2814:2852  return userList[msg.sender].friendList */\n      dup1\n      sload\n      dup1\n      0x20\n      mul\n      0x20\n      add\n      mload(0x40)\n      swap1\n      dup2\n      add\n      0x40\n      mstore\n      dup1\n      swap3\n      swap2\n      swap1\n      dup2\n      dup2\n      mstore\n      0x20\n      add\n      0x00\n      swap1\n    tag_116:\n      dup3\n      dup3\n      lt\n      iszero\n      tag_117\n      jumpi\n      dup4\n      dup3\n      swap1\n      0x00\n      mstore\n      keccak256(0x00, 0x20)\n      swap1\n      0x02\n      mul\n      add\n      mload(0x40)\n      dup1\n      0x40\n      add\n      0x40\n      mstore\n      swap1\n      dup2\n      0x00\n      dup3\n      add\n      0x00\n      swap1\n      sload\n      swap1\n      0x0100\n      exp\n      swap1\n      div\n      0xffffffffffffffffffffffffffffffffffffffff\n      and\n      0xffffffffffffffffffffffffffffffffffffffff\n      and\n      0xffffffffffffffffffffffffffffffffffffffff\n      and\n      dup2\n      mstore\n      0x20\n      add\n      0x01\n      dup3\n      add\n      dup1\n      sload\n      tag_119\n      swap1\n      tag_68\n      jump\t// in\n    tag_119:\n      dup1\n      0x1f\n      add\n      0x20\n      dup1\n      swap2\n      div\n      mul\n      0x20\n      add\n      mload(0x40)\n      swap1\n      dup2\n      add\n      0x40\n      mstore\n      dup1\n      swap3\n      swap2\n      swap1\n      dup2\n      dup2\n      mstore\n      0x20\n      add\n      dup3\n      dup1\n      sload\n      tag_120\n      swap1\n      tag_68\n      jump\t// in\n    tag_120:\n      dup1\n      iszero\n      tag_121\n      jumpi\n      dup1\n      0x1f\n      lt\n      tag_122\n      jumpi\n      0x0100\n      dup1\n      dup4\n      sload\n      div\n      mul\n      dup4\n      mstore\n      swap2\n      0x20\n      add\n      swap2\n      jump(tag_121)\n    tag_122:\n      dup3\n      add\n      swap2\n      swap1\n      0x00\n      mstore\n      keccak256(0x00, 0x20)\n      swap1\n    tag_123:\n      dup2\n      sload\n      dup2\n      mstore\n      swap1\n      0x01\n      add\n      swap1\n      0x20\n      add\n      dup1\n      dup4\n      gt\n      tag_123\n      jumpi\n      dup3\n      swap1\n      sub\n      0x1f\n      and\n      dup3\n      add\n      swap2\n    tag_121:\n      pop\n      pop\n      pop\n      pop\n      pop\n      dup2\n      mstore\n      pop\n      pop\n      dup2\n      mstore\n      0x20\n      add\n      swap1\n      0x01\n      add\n      swap1\n      jump(tag_116)\n    tag_117:\n      pop\n      pop\n      pop\n      pop\n      swap1\n      pop\n        /* \"Chat.sol\":2738:2860  function getMyFriendList() external view returns(friend[] memory){... */\n      swap1\n      jump\t// out\n        /* \"Chat.sol\":1154:1349  function getUsername(address _publicKey) external view  returns (string memory){... */\n    tag_41:\n        /* \"Chat.sol\":1219:1232  string memory */\n      0x60\n        /* \"Chat.sol\":1252:1278  checkUserExist(_publicKey) */\n      tag_125\n        /* \"Chat.sol\":1267:1277  _publicKey */\n      dup3\n        /* \"Chat.sol\":1252:1266  checkUserExist */\n      tag_32\n        /* \"Chat.sol\":1252:1278  checkUserExist(_publicKey) */\n      jump\t// in\n    tag_125:\n        /* \"Chat.sol\":1244:1298  require(checkUserExist(_publicKey), \"user not found!\") */\n      tag_126\n      jumpi\n      mload(0x40)\n      0x08c379a000000000000000000000000000000000000000000000000000000000\n      dup2\n      mstore\n      0x04\n      add\n      tag_127\n      swap1\n      tag_56\n      jump\t// in\n    tag_127:\n      mload(0x40)\n      dup1\n      swap2\n      sub\n      swap1\n      revert\n    tag_126:\n        /* \"Chat.sol\":1316:1324  userList */\n      0x01\n        /* \"Chat.sol\":1316:1336  userList[_publicKey] */\n      0x00\n        /* \"Chat.sol\":1325:1335  _publicKey */\n      dup4\n        /* \"Chat.sol\":1316:1336  userList[_publicKey] */\n      0xffffffffffffffffffffffffffffffffffffffff\n      and\n      0xffffffffffffffffffffffffffffffffffffffff\n      and\n      dup2\n      mstore\n      0x20\n      add\n      swap1\n      dup2\n      mstore\n      0x20\n      add\n      0x00\n      keccak256\n        /* \"Chat.sol\":1316:1341  userList[_publicKey].name */\n      0x00\n      add\n        /* \"Chat.sol\":1309:1341  return userList[_publicKey].name */\n      dup1\n      sload\n      tag_128\n      swap1\n      tag_68\n      jump\t// in\n    tag_128:\n      dup1\n      0x1f\n      add\n      0x20\n      dup1\n      swap2\n      div\n      mul\n      0x20\n      add\n      mload(0x40)\n      swap1\n      dup2\n      add\n      0x40\n      mstore\n      dup1\n      swap3\n      swap2\n      swap1\n      dup2\n      dup2\n      mstore\n      0x20\n      add\n      dup3\n      dup1\n      sload\n      tag_129\n      swap1\n      tag_68\n      jump\t// in\n    tag_129:\n      dup1\n      iszero\n      tag_130\n      jumpi\n      dup1\n      0x1f\n      lt\n      tag_131\n      jumpi\n      0x0100\n      dup1\n      dup4\n      sload\n      div\n      mul\n      dup4\n      mstore\n      swap2\n      0x20\n      add\n      swap2\n      jump(tag_130)\n    tag_131:\n      dup3\n      add\n      swap2\n      swap1\n      0x00\n      mstore\n      keccak256(0x00, 0x20)\n      swap1\n    tag_132:\n      dup2\n      sload\n      dup2\n      mstore\n      swap1\n      0x01\n      add\n      swap1\n      0x20\n      add\n      dup1\n      dup4\n      gt\n      tag_132\n      jumpi\n      dup3\n      swap1\n      sub\n      0x1f\n      and\n      dup3\n      add\n      swap2\n    tag_130:\n      pop\n      pop\n      pop\n      pop\n      pop\n      swap1\n      pop\n        /* \"Chat.sol\":1154:1349  function getUsername(address _publicKey) external view  returns (string memory){... */\n      swap2\n      swap1\n      pop\n      jump\t// out\n        /* \"Chat.sol\":3202:3698  function sendMessage(address _friendKey, string calldata _mssg) external {... */\n    tag_47:\n        /* \"Chat.sol\":3294:3320  checkUserExist(msg.sender) */\n      tag_134\n        /* \"Chat.sol\":3309:3319  msg.sender */\n      caller\n        /* \"Chat.sol\":3294:3308  checkUserExist */\n      tag_32\n        /* \"Chat.sol\":3294:3320  checkUserExist(msg.sender) */\n      jump\t// in\n    tag_134:\n        /* \"Chat.sol\":3286:3349  require(checkUserExist(msg.sender), \"create an account first!\") */\n      tag_135\n      jumpi\n      mload(0x40)\n      0x08c379a000000000000000000000000000000000000000000000000000000000\n      dup2\n      mstore\n      0x04\n      add\n      tag_136\n      swap1\n      tag_137\n      jump\t// in\n    tag_136:\n      mload(0x40)\n      dup1\n      swap2\n      sub\n      swap1\n      revert\n    tag_135:\n        /* \"Chat.sol\":3368:3394  checkUserExist(_friendKey) */\n      tag_138\n        /* \"Chat.sol\":3383:3393  _friendKey */\n      dup4\n        /* \"Chat.sol\":3368:3382  checkUserExist */\n      tag_32\n        /* \"Chat.sol\":3368:3394  checkUserExist(_friendKey) */\n      jump\t// in\n    tag_138:\n        /* \"Chat.sol\":3360:3414  require(checkUserExist(_friendKey), \"user not found!\") */\n      tag_139\n      jumpi\n      mload(0x40)\n      0x08c379a000000000000000000000000000000000000000000000000000000000\n      dup2\n      mstore\n      0x04\n      add\n      tag_140\n      swap1\n      tag_56\n      jump\t// in\n    tag_140:\n      mload(0x40)\n      dup1\n      swap2\n      sub\n      swap1\n      revert\n    tag_139:\n        /* \"Chat.sol\":3433:3475  checkAlreadyFriend(_friendKey, msg.sender) */\n      tag_141\n        /* \"Chat.sol\":3452:3462  _friendKey */\n      dup4\n        /* \"Chat.sol\":3464:3474  msg.sender */\n      caller\n        /* \"Chat.sol\":3433:3451  checkAlreadyFriend */\n      tag_58\n        /* \"Chat.sol\":3433:3475  checkAlreadyFriend(_friendKey, msg.sender) */\n      jump\t// in\n    tag_141:\n        /* \"Chat.sol\":3425:3498  require(checkAlreadyFriend(_friendKey, msg.sender), \"You're not friends\") */\n      tag_142\n      jumpi\n      mload(0x40)\n      0x08c379a000000000000000000000000000000000000000000000000000000000\n      dup2\n      mstore\n      0x04\n      add\n      tag_143\n      swap1\n      tag_144\n      jump\t// in\n    tag_143:\n      mload(0x40)\n      dup1\n      swap2\n      sub\n      swap1\n      revert\n    tag_142:\n        /* \"Chat.sol\":3511:3527  bytes32 chatCode */\n      0x00\n        /* \"Chat.sol\":3530:3566  _getChatCode(msg.sender, _friendKey) */\n      tag_145\n        /* \"Chat.sol\":3543:3553  msg.sender */\n      caller\n        /* \"Chat.sol\":3555:3565  _friendKey */\n      dup6\n        /* \"Chat.sol\":3530:3542  _getChatCode */\n      tag_63\n        /* \"Chat.sol\":3530:3566  _getChatCode(msg.sender, _friendKey) */\n      jump\t// in\n    tag_145:\n        /* \"Chat.sol\":3511:3566  bytes32 chatCode = _getChatCode(msg.sender, _friendKey) */\n      swap1\n      pop\n        /* \"Chat.sol\":3577:3598  message memory newMsg */\n      0x00\n        /* \"Chat.sol\":3601:3644  message(msg.sender, block.timestamp, _mssg) */\n      mload(0x40)\n      dup1\n      0x60\n      add\n      0x40\n      mstore\n      dup1\n        /* \"Chat.sol\":3609:3619  msg.sender */\n      caller\n        /* \"Chat.sol\":3601:3644  message(msg.sender, block.timestamp, _mssg) */\n      0xffffffffffffffffffffffffffffffffffffffff\n      and\n      dup2\n      mstore\n      0x20\n      add\n        /* \"Chat.sol\":3621:3636  block.timestamp */\n      timestamp\n        /* \"Chat.sol\":3601:3644  message(msg.sender, block.timestamp, _mssg) */\n      dup2\n      mstore\n      0x20\n      add\n        /* \"Chat.sol\":3638:3643  _mssg */\n      dup6\n      dup6\n        /* \"Chat.sol\":3601:3644  message(msg.sender, block.timestamp, _mssg) */\n      dup1\n      dup1\n      0x1f\n      add\n      0x20\n      dup1\n      swap2\n      div\n      mul\n      0x20\n      add\n      mload(0x40)\n      swap1\n      dup2\n      add\n      0x40\n      mstore\n      dup1\n      swap4\n      swap3\n      swap2\n      swap1\n      dup2\n      dup2\n      mstore\n      0x20\n      add\n      dup4\n      dup4\n      dup1\n      dup3\n      dup5\n      calldatacopy\n      0x00\n      dup2\n      dup5\n      add\n      mstore\n      not(0x1f)\n      0x1f\n      dup3\n      add\n      and\n      swap1\n      pop\n      dup1\n      dup4\n      add\n      swap3\n      pop\n      pop\n      pop\n      pop\n      pop\n      pop\n      pop\n      dup2\n      mstore\n      pop\n        /* \"Chat.sol\":3577:3644  message memory newMsg = message(msg.sender, block.timestamp, _mssg) */\n      swap1\n      pop\n        /* \"Chat.sol\":3655:3666  allMessages */\n      0x02\n        /* \"Chat.sol\":3655:3676  allMessages[chatCode] */\n      0x00\n        /* \"Chat.sol\":3667:3675  chatCode */\n      dup4\n        /* \"Chat.sol\":3655:3676  allMessages[chatCode] */\n      dup2\n      mstore\n      0x20\n      add\n      swap1\n      dup2\n      mstore\n      0x20\n      add\n      0x00\n      keccak256\n        /* \"Chat.sol\":3682:3688  newMsg */\n      dup2\n        /* \"Chat.sol\":3655:3689  allMessages[chatCode].push(newMsg) */\n      swap1\n      dup1\n      0x01\n      dup2\n      sload\n      add\n      dup1\n      dup3\n      sstore\n      dup1\n      swap2\n      pop\n      pop\n      0x01\n      swap1\n      sub\n      swap1\n      0x00\n      mstore\n      keccak256(0x00, 0x20)\n      swap1\n      0x03\n      mul\n      add\n      0x00\n      swap1\n      swap2\n      swap1\n      swap2\n      swap1\n      swap2\n      pop\n      0x00\n      dup3\n      add\n      mload\n      dup2\n      0x00\n      add\n      exp(0x0100, 0x00)\n      dup2\n      sload\n      dup2\n      0xffffffffffffffffffffffffffffffffffffffff\n      mul\n      not\n      and\n      swap1\n      dup4\n      0xffffffffffffffffffffffffffffffffffffffff\n      and\n      mul\n      or\n      swap1\n      sstore\n      pop\n      0x20\n      dup3\n      add\n      mload\n      dup2\n      0x01\n      add\n      sstore\n      0x40\n      dup3\n      add\n      mload\n      dup2\n      0x02\n      add\n      swap1\n      dup2\n      tag_147\n      swap2\n      swap1\n      tag_85\n      jump\t// in\n    tag_147:\n      pop\n      pop\n      pop\n        /* \"Chat.sol\":3275:3698  {... */\n      pop\n      pop\n        /* \"Chat.sol\":3202:3698  function sendMessage(address _friendKey, string calldata _mssg) external {... */\n      pop\n      pop\n      pop\n      jump\t// out\n        /* \"Chat.sol\":2131:2708  function checkAlreadyFriend(address _publicKey1, address _publicKey2) internal view virtual returns (bool){... */\n    tag_58:\n        /* \"Chat.sol\":2232:2236  bool */\n      0x00\n        /* \"Chat.sol\":2291:2299  userList */\n      0x01\n        /* \"Chat.sol\":2291:2312  userList[_publicKey2] */\n      0x00\n        /* \"Chat.sol\":2300:2311  _publicKey2 */\n      dup4\n        /* \"Chat.sol\":2291:2312  userList[_publicKey2] */\n      0xffffffffffffffffffffffffffffffffffffffff\n      and\n      0xffffffffffffffffffffffffffffffffffffffff\n      and\n      dup2\n      mstore\n      0x20\n      add\n      swap1\n      dup2\n      mstore\n      0x20\n      add\n      0x00\n      keccak256\n        /* \"Chat.sol\":2291:2323  userList[_publicKey2].friendList */\n      0x01\n      add\n        /* \"Chat.sol\":2291:2330  userList[_publicKey2].friendList.length */\n      dup1\n      sload\n      swap1\n      pop\n        /* \"Chat.sol\":2251:2259  userList */\n      0x01\n        /* \"Chat.sol\":2251:2272  userList[_publicKey1] */\n      0x00\n        /* \"Chat.sol\":2260:2271  _publicKey1 */\n      dup6\n        /* \"Chat.sol\":2251:2272  userList[_publicKey1] */\n      0xffffffffffffffffffffffffffffffffffffffff\n      and\n      0xffffffffffffffffffffffffffffffffffffffff\n      and\n      dup2\n      mstore\n      0x20\n      add\n      swap1\n      dup2\n      mstore\n      0x20\n      add\n      0x00\n      keccak256\n        /* \"Chat.sol\":2251:2283  userList[_publicKey1].friendList */\n      0x01\n      add\n        /* \"Chat.sol\":2251:2290  userList[_publicKey1].friendList.length */\n      dup1\n      sload\n      swap1\n      pop\n        /* \"Chat.sol\":2251:2330  userList[_publicKey1].friendList.length>userList[_publicKey2].friendList.length */\n      gt\n        /* \"Chat.sol\":2248:2459  if(userList[_publicKey1].friendList.length>userList[_publicKey2].friendList.length){... */\n      iszero\n      tag_149\n      jumpi\n        /* \"Chat.sol\":2346:2358  address temp */\n      0x00\n        /* \"Chat.sol\":2361:2372  _publicKey1 */\n      dup4\n        /* \"Chat.sol\":2346:2372  address temp = _publicKey1 */\n      swap1\n      pop\n        /* \"Chat.sol\":2402:2413  _publicKey2 */\n      dup3\n        /* \"Chat.sol\":2388:2413  _publicKey1 = _publicKey2 */\n      swap4\n      pop\n        /* \"Chat.sol\":2443:2447  temp */\n      dup1\n        /* \"Chat.sol\":2429:2447  _publicKey2 = temp */\n      swap3\n      pop\n        /* \"Chat.sol\":2331:2459  {... */\n      pop\n        /* \"Chat.sol\":2248:2459  if(userList[_publicKey1].friendList.length>userList[_publicKey2].friendList.length){... */\n    tag_149:\n        /* \"Chat.sol\":2469:2483  uint256 length */\n      0x00\n        /* \"Chat.sol\":2486:2494  userList */\n      0x01\n        /* \"Chat.sol\":2486:2507  userList[_publicKey1] */\n      0x00\n        /* \"Chat.sol\":2495:2506  _publicKey1 */\n      dup6\n        /* \"Chat.sol\":2486:2507  userList[_publicKey1] */\n      0xffffffffffffffffffffffffffffffffffffffff\n      and\n      0xffffffffffffffffffffffffffffffffffffffff\n      and\n      dup2\n      mstore\n      0x20\n      add\n      swap1\n      dup2\n      mstore\n      0x20\n      add\n      0x00\n      keccak256\n        /* \"Chat.sol\":2486:2518  userList[_publicKey1].friendList */\n      0x01\n      add\n        /* \"Chat.sol\":2486:2525  userList[_publicKey1].friendList.length */\n      dup1\n      sload\n      swap1\n      pop\n        /* \"Chat.sol\":2469:2525  uint256 length = userList[_publicKey1].friendList.length */\n      swap1\n      pop\n        /* \"Chat.sol\":2540:2549  uint256 i */\n      0x00\n        /* \"Chat.sol\":2536:2668  for(uint256 i=0; i<length; i++){... */\n    tag_150:\n        /* \"Chat.sol\":2555:2561  length */\n      dup2\n        /* \"Chat.sol\":2553:2554  i */\n      dup2\n        /* \"Chat.sol\":2553:2561  i<length */\n      lt\n        /* \"Chat.sol\":2536:2668  for(uint256 i=0; i<length; i++){... */\n      iszero\n      tag_151\n      jumpi\n        /* \"Chat.sol\":2632:2643  _publicKey2 */\n      dup4\n        /* \"Chat.sol\":2585:2643  userList[_publicKey1].friendList[i].publicKey==_publicKey2 */\n      0xffffffffffffffffffffffffffffffffffffffff\n      and\n        /* \"Chat.sol\":2585:2593  userList */\n      0x01\n        /* \"Chat.sol\":2585:2606  userList[_publicKey1] */\n      0x00\n        /* \"Chat.sol\":2594:2605  _publicKey1 */\n      dup8\n        /* \"Chat.sol\":2585:2606  userList[_publicKey1] */\n      0xffffffffffffffffffffffffffffffffffffffff\n      and\n      0xffffffffffffffffffffffffffffffffffffffff\n      and\n      dup2\n      mstore\n      0x20\n      add\n      swap1\n      dup2\n      mstore\n      0x20\n      add\n      0x00\n      keccak256\n        /* \"Chat.sol\":2585:2617  userList[_publicKey1].friendList */\n      0x01\n      add\n        /* \"Chat.sol\":2618:2619  i */\n      dup3\n        /* \"Chat.sol\":2585:2620  userList[_publicKey1].friendList[i] */\n      dup2\n      sload\n      dup2\n      lt\n      tag_153\n      jumpi\n      tag_154\n      tag_155\n      jump\t// in\n    tag_154:\n    tag_153:\n      swap1\n      0x00\n      mstore\n      keccak256(0x00, 0x20)\n      swap1\n      0x02\n      mul\n      add\n        /* \"Chat.sol\":2585:2630  userList[_publicKey1].friendList[i].publicKey */\n      0x00\n      add\n      0x00\n      swap1\n      sload\n      swap1\n      0x0100\n      exp\n      swap1\n      div\n      0xffffffffffffffffffffffffffffffffffffffff\n      and\n        /* \"Chat.sol\":2585:2643  userList[_publicKey1].friendList[i].publicKey==_publicKey2 */\n      0xffffffffffffffffffffffffffffffffffffffff\n      and\n      sub\n        /* \"Chat.sol\":2582:2656  if(userList[_publicKey1].friendList[i].publicKey==_publicKey2) return true */\n      tag_157\n      jumpi\n        /* \"Chat.sol\":2652:2656  true */\n      0x01\n        /* \"Chat.sol\":2645:2656  return true */\n      swap3\n      pop\n      pop\n      pop\n      jump(tag_148)\n        /* \"Chat.sol\":2582:2656  if(userList[_publicKey1].friendList[i].publicKey==_publicKey2) return true */\n    tag_157:\n        /* \"Chat.sol\":2563:2566  i++ */\n      dup1\n      dup1\n      tag_158\n      swap1\n      tag_159\n      jump\t// in\n    tag_158:\n      swap2\n      pop\n      pop\n        /* \"Chat.sol\":2536:2668  for(uint256 i=0; i<length; i++){... */\n      jump(tag_150)\n    tag_151:\n      pop\n        /* \"Chat.sol\":2695:2700  false */\n      0x00\n        /* \"Chat.sol\":2688:2700  return false */\n      swap2\n      pop\n      pop\n        /* \"Chat.sol\":2131:2708  function checkAlreadyFriend(address _publicKey1, address _publicKey2) internal view virtual returns (bool){... */\n    tag_148:\n      swap3\n      swap2\n      pop\n      pop\n      jump\t// out\n        /* \"Chat.sol\":2889:3174  function _getChatCode(address _publicKey1, address _publicKey2) internal view virtual returns(bytes32){... */\n    tag_63:\n        /* \"Chat.sol\":2983:2990  bytes32 */\n      0x00\n        /* \"Chat.sol\":3017:3028  _publicKey2 */\n      dup2\n        /* \"Chat.sol\":3005:3028  _publicKey1<_publicKey2 */\n      0xffffffffffffffffffffffffffffffffffffffff\n      and\n        /* \"Chat.sol\":3005:3016  _publicKey1 */\n      dup4\n        /* \"Chat.sol\":3005:3028  _publicKey1<_publicKey2 */\n      0xffffffffffffffffffffffffffffffffffffffff\n      and\n      lt\n        /* \"Chat.sol\":3002:3166  if(_publicKey1<_publicKey2) return keccak256(abi.encodePacked(_publicKey1, _publicKey2));... */\n      iszero\n      tag_161\n      jumpi\n        /* \"Chat.sol\":3064:3075  _publicKey1 */\n      dup3\n        /* \"Chat.sol\":3077:3088  _publicKey2 */\n      dup3\n        /* \"Chat.sol\":3047:3089  abi.encodePacked(_publicKey1, _publicKey2) */\n      add(0x20, mload(0x40))\n      tag_162\n      swap3\n      swap2\n      swap1\n      tag_163\n      jump\t// in\n    tag_162:\n      mload(0x40)\n      0x20\n      dup2\n      dup4\n      sub\n      sub\n      dup2\n      mstore\n      swap1\n      0x40\n      mstore\n        /* \"Chat.sol\":3037:3090  keccak256(abi.encodePacked(_publicKey1, _publicKey2)) */\n      dup1\n      mload\n      swap1\n      0x20\n      add\n      keccak256\n        /* \"Chat.sol\":3030:3090  return keccak256(abi.encodePacked(_publicKey1, _publicKey2)) */\n      swap1\n      pop\n      jump(tag_160)\n        /* \"Chat.sol\":3002:3166  if(_publicKey1<_publicKey2) return keccak256(abi.encodePacked(_publicKey1, _publicKey2));... */\n    tag_161:\n        /* \"Chat.sol\":3140:3151  _publicKey2 */\n      dup2\n        /* \"Chat.sol\":3153:3164  _publicKey1 */\n      dup4\n        /* \"Chat.sol\":3123:3165  abi.encodePacked(_publicKey2, _publicKey1) */\n      add(0x20, mload(0x40))\n      tag_165\n      swap3\n      swap2\n      swap1\n      tag_163\n      jump\t// in\n    tag_165:\n      mload(0x40)\n      0x20\n      dup2\n      dup4\n      sub\n      sub\n      dup2\n      mstore\n      swap1\n      0x40\n      mstore\n        /* \"Chat.sol\":3113:3166  keccak256(abi.encodePacked(_publicKey2, _publicKey1)) */\n      dup1\n      mload\n      swap1\n      0x20\n      add\n      keccak256\n        /* \"Chat.sol\":3106:3166  return keccak256(abi.encodePacked(_publicKey2, _publicKey1)) */\n      swap1\n      pop\n        /* \"Chat.sol\":2889:3174  function _getChatCode(address _publicKey1, address _publicKey2) internal view virtual returns(bytes32){... */\n    tag_160:\n      swap3\n      swap2\n      pop\n      pop\n      jump\t// out\n        /* \"Chat.sol\":1816:2091  function _addFriend(address _publicKey1, address _publicKey2, string memory  _name) internal virtual  {... */\n    tag_97:\n        /* \"Chat.sol\":1957:1958  0 */\n      0x00\n        /* \"Chat.sol\":1943:1948  _name */\n      dup2\n        /* \"Chat.sol\":1937:1956  bytes(_name).length */\n      mload\n        /* \"Chat.sol\":1937:1958  bytes(_name).length>0 */\n      gt\n        /* \"Chat.sol\":1929:1988  require(bytes(_name).length>0, \"Username cannot be empty!\") */\n      tag_167\n      jumpi\n      mload(0x40)\n      0x08c379a000000000000000000000000000000000000000000000000000000000\n      dup2\n      mstore\n      0x04\n      add\n      tag_168\n      swap1\n      tag_80\n      jump\t// in\n    tag_168:\n      mload(0x40)\n      dup1\n      swap2\n      sub\n      swap1\n      revert\n    tag_167:\n        /* \"Chat.sol\":1999:2007  userList */\n      0x01\n        /* \"Chat.sol\":1999:2020  userList[_publicKey1] */\n      0x00\n        /* \"Chat.sol\":2008:2019  _publicKey1 */\n      dup5\n        /* \"Chat.sol\":1999:2020  userList[_publicKey1] */\n      0xffffffffffffffffffffffffffffffffffffffff\n      and\n      0xffffffffffffffffffffffffffffffffffffffff\n      and\n      dup2\n      mstore\n      0x20\n      add\n      swap1\n      dup2\n      mstore\n      0x20\n      add\n      0x00\n      keccak256\n        /* \"Chat.sol\":1999:2031  userList[_publicKey1].friendList */\n      0x01\n      add\n        /* \"Chat.sol\":2037:2082  friend({name: _name, publicKey: _publicKey2}) */\n      mload(0x40)\n      dup1\n      0x40\n      add\n      0x40\n      mstore\n      dup1\n        /* \"Chat.sol\":2069:2080  _publicKey2 */\n      dup5\n        /* \"Chat.sol\":2037:2082  friend({name: _name, publicKey: _publicKey2}) */\n      0xffffffffffffffffffffffffffffffffffffffff\n      and\n      dup2\n      mstore\n      0x20\n      add\n        /* \"Chat.sol\":2051:2056  _name */\n      dup4\n        /* \"Chat.sol\":2037:2082  friend({name: _name, publicKey: _publicKey2}) */\n      dup2\n      mstore\n      pop\n        /* \"Chat.sol\":1999:2083  userList[_publicKey1].friendList.push(friend({name: _name, publicKey: _publicKey2})) */\n      swap1\n      dup1\n      0x01\n      dup2\n      sload\n      add\n      dup1\n      dup3\n      sstore\n      dup1\n      swap2\n      pop\n      pop\n      0x01\n      swap1\n      sub\n      swap1\n      0x00\n      mstore\n      keccak256(0x00, 0x20)\n      swap1\n      0x02\n      mul\n      add\n      0x00\n      swap1\n      swap2\n      swap1\n      swap2\n      swap1\n      swap2\n      pop\n      0x00\n      dup3\n      add\n      mload\n      dup2\n      0x00\n      add\n      exp(0x0100, 0x00)\n      dup2\n      sload\n      dup2\n      0xffffffffffffffffffffffffffffffffffffffff\n      mul\n      not\n      and\n      swap1\n      dup4\n      0xffffffffffffffffffffffffffffffffffffffff\n      and\n      mul\n      or\n      swap1\n      sstore\n      pop\n      0x20\n      dup3\n      add\n      mload\n      dup2\n      0x01\n      add\n      swap1\n      dup2\n      tag_170\n      swap2\n      swap1\n      tag_85\n      jump\t// in\n    tag_170:\n      pop\n      pop\n      pop\n        /* \"Chat.sol\":1816:2091  function _addFriend(address _publicKey1, address _publicKey2, string memory  _name) internal virtual  {... */\n      pop\n      pop\n      pop\n      jump\t// out\n        /* \"#utility.yul\":7:82   */\n    tag_171:\n        /* \"#utility.yul\":40:46   */\n      0x00\n        /* \"#utility.yul\":73:75   */\n      0x40\n        /* \"#utility.yul\":67:76   */\n      mload\n        /* \"#utility.yul\":57:76   */\n      swap1\n      pop\n        /* \"#utility.yul\":7:82   */\n      swap1\n      jump\t// out\n        /* \"#utility.yul\":88:205   */\n    tag_172:\n        /* \"#utility.yul\":197:198   */\n      0x00\n        /* \"#utility.yul\":194:195   */\n      dup1\n        /* \"#utility.yul\":187:199   */\n      revert\n        /* \"#utility.yul\":211:328   */\n    tag_173:\n        /* \"#utility.yul\":320:321   */\n      0x00\n        /* \"#utility.yul\":317:318   */\n      dup1\n        /* \"#utility.yul\":310:322   */\n      revert\n        /* \"#utility.yul\":334:460   */\n    tag_174:\n        /* \"#utility.yul\":371:378   */\n      0x00\n        /* \"#utility.yul\":411:453   */\n      0xffffffffffffffffffffffffffffffffffffffff\n        /* \"#utility.yul\":404:409   */\n      dup3\n        /* \"#utility.yul\":400:454   */\n      and\n        /* \"#utility.yul\":389:454   */\n      swap1\n      pop\n        /* \"#utility.yul\":334:460   */\n      swap2\n      swap1\n      pop\n      jump\t// out\n        /* \"#utility.yul\":466:562   */\n    tag_175:\n        /* \"#utility.yul\":503:510   */\n      0x00\n        /* \"#utility.yul\":532:556   */\n      tag_265\n        /* \"#utility.yul\":550:555   */\n      dup3\n        /* \"#utility.yul\":532:556   */\n      tag_174\n      jump\t// in\n    tag_265:\n        /* \"#utility.yul\":521:556   */\n      swap1\n      pop\n        /* \"#utility.yul\":466:562   */\n      swap2\n      swap1\n      pop\n      jump\t// out\n        /* \"#utility.yul\":568:690   */\n    tag_176:\n        /* \"#utility.yul\":641:665   */\n      tag_267\n        /* \"#utility.yul\":659:664   */\n      dup2\n        /* \"#utility.yul\":641:665   */\n      tag_175\n      jump\t// in\n    tag_267:\n        /* \"#utility.yul\":634:639   */\n      dup2\n        /* \"#utility.yul\":631:666   */\n      eq\n        /* \"#utility.yul\":621:684   */\n      tag_268\n      jumpi\n        /* \"#utility.yul\":680:681   */\n      0x00\n        /* \"#utility.yul\":677:678   */\n      dup1\n        /* \"#utility.yul\":670:682   */\n      revert\n        /* \"#utility.yul\":621:684   */\n    tag_268:\n        /* \"#utility.yul\":568:690   */\n      pop\n      jump\t// out\n        /* \"#utility.yul\":696:835   */\n    tag_177:\n        /* \"#utility.yul\":742:747   */\n      0x00\n        /* \"#utility.yul\":780:786   */\n      dup2\n        /* \"#utility.yul\":767:787   */\n      calldataload\n        /* \"#utility.yul\":758:787   */\n      swap1\n      pop\n        /* \"#utility.yul\":796:829   */\n      tag_270\n        /* \"#utility.yul\":823:828   */\n      dup2\n        /* \"#utility.yul\":796:829   */\n      tag_176\n      jump\t// in\n    tag_270:\n        /* \"#utility.yul\":696:835   */\n      swap3\n      swap2\n      pop\n      pop\n      jump\t// out\n        /* \"#utility.yul\":841:1170   */\n    tag_14:\n        /* \"#utility.yul\":900:906   */\n      0x00\n        /* \"#utility.yul\":949:951   */\n      0x20\n        /* \"#utility.yul\":937:946   */\n      dup3\n        /* \"#utility.yul\":928:935   */\n      dup5\n        /* \"#utility.yul\":924:947   */\n      sub\n        /* \"#utility.yul\":920:952   */\n      slt\n        /* \"#utility.yul\":917:1036   */\n      iszero\n      tag_272\n      jumpi\n        /* \"#utility.yul\":955:1034   */\n      tag_273\n      tag_172\n      jump\t// in\n    tag_273:\n        /* \"#utility.yul\":917:1036   */\n    tag_272:\n        /* \"#utility.yul\":1075:1076   */\n      0x00\n        /* \"#utility.yul\":1100:1153   */\n      tag_274\n        /* \"#utility.yul\":1145:1152   */\n      dup5\n        /* \"#utility.yul\":1136:1142   */\n      dup3\n        /* \"#utility.yul\":1125:1134   */\n      dup6\n        /* \"#utility.yul\":1121:1143   */\n      add\n        /* \"#utility.yul\":1100:1153   */\n      tag_177\n      jump\t// in\n    tag_274:\n        /* \"#utility.yul\":1090:1153   */\n      swap2\n      pop\n        /* \"#utility.yul\":1046:1163   */\n      pop\n        /* \"#utility.yul\":841:1170   */\n      swap3\n      swap2\n      pop\n      pop\n      jump\t// out\n        /* \"#utility.yul\":1176:1313   */\n    tag_178:\n        /* \"#utility.yul\":1266:1272   */\n      0x00\n        /* \"#utility.yul\":1300:1305   */\n      dup2\n        /* \"#utility.yul\":1294:1306   */\n      mload\n        /* \"#utility.yul\":1284:1306   */\n      swap1\n      pop\n        /* \"#utility.yul\":1176:1313   */\n      swap2\n      swap1\n      pop\n      jump\t// out\n        /* \"#utility.yul\":1319:1526   */\n    tag_179:\n        /* \"#utility.yul\":1441:1452   */\n      0x00\n        /* \"#utility.yul\":1475:1481   */\n      dup3\n        /* \"#utility.yul\":1470:1473   */\n      dup3\n        /* \"#utility.yul\":1463:1482   */\n      mstore\n        /* \"#utility.yul\":1515:1519   */\n      0x20\n        /* \"#utility.yul\":1510:1513   */\n      dup3\n        /* \"#utility.yul\":1506:1520   */\n      add\n        /* \"#utility.yul\":1491:1520   */\n      swap1\n      pop\n        /* \"#utility.yul\":1319:1526   */\n      swap3\n      swap2\n      pop\n      pop\n      jump\t// out\n        /* \"#utility.yul\":1532:1687   */\n    tag_180:\n        /* \"#utility.yul\":1622:1626   */\n      0x00\n        /* \"#utility.yul\":1645:1648   */\n      dup2\n        /* \"#utility.yul\":1637:1648   */\n      swap1\n      pop\n        /* \"#utility.yul\":1675:1679   */\n      0x20\n        /* \"#utility.yul\":1670:1673   */\n      dup3\n        /* \"#utility.yul\":1666:1680   */\n      add\n        /* \"#utility.yul\":1658:1680   */\n      swap1\n      pop\n        /* \"#utility.yul\":1532:1687   */\n      swap2\n      swap1\n      pop\n      jump\t// out\n        /* \"#utility.yul\":1693:1801   */\n    tag_181:\n        /* \"#utility.yul\":1770:1794   */\n      tag_279\n        /* \"#utility.yul\":1788:1793   */\n      dup2\n        /* \"#utility.yul\":1770:1794   */\n      tag_175\n      jump\t// in\n    tag_279:\n        /* \"#utility.yul\":1765:1768   */\n      dup3\n        /* \"#utility.yul\":1758:1795   */\n      mstore\n        /* \"#utility.yul\":1693:1801   */\n      pop\n      pop\n      jump\t// out\n        /* \"#utility.yul\":1807:1884   */\n    tag_182:\n        /* \"#utility.yul\":1844:1851   */\n      0x00\n        /* \"#utility.yul\":1873:1878   */\n      dup2\n        /* \"#utility.yul\":1862:1878   */\n      swap1\n      pop\n        /* \"#utility.yul\":1807:1884   */\n      swap2\n      swap1\n      pop\n      jump\t// out\n        /* \"#utility.yul\":1890:1998   */\n    tag_183:\n        /* \"#utility.yul\":1967:1991   */\n      tag_282\n        /* \"#utility.yul\":1985:1990   */\n      dup2\n        /* \"#utility.yul\":1967:1991   */\n      tag_182\n      jump\t// in\n    tag_282:\n        /* \"#utility.yul\":1962:1965   */\n      dup3\n        /* \"#utility.yul\":1955:1992   */\n      mstore\n        /* \"#utility.yul\":1890:1998   */\n      pop\n      pop\n      jump\t// out\n        /* \"#utility.yul\":2004:2103   */\n    tag_184:\n        /* \"#utility.yul\":2056:2062   */\n      0x00\n        /* \"#utility.yul\":2090:2095   */\n      dup2\n        /* \"#utility.yul\":2084:2096   */\n      mload\n        /* \"#utility.yul\":2074:2096   */\n      swap1\n      pop\n        /* \"#utility.yul\":2004:2103   */\n      swap2\n      swap1\n      pop\n      jump\t// out\n        /* \"#utility.yul\":2109:2268   */\n    tag_185:\n        /* \"#utility.yul\":2183:2194   */\n      0x00\n        /* \"#utility.yul\":2217:2223   */\n      dup3\n        /* \"#utility.yul\":2212:2215   */\n      dup3\n        /* \"#utility.yul\":2205:2224   */\n      mstore\n        /* \"#utility.yul\":2257:2261   */\n      0x20\n        /* \"#utility.yul\":2252:2255   */\n      dup3\n        /* \"#utility.yul\":2248:2262   */\n      add\n        /* \"#utility.yul\":2233:2262   */\n      swap1\n      pop\n        /* \"#utility.yul\":2109:2268   */\n      swap3\n      swap2\n      pop\n      pop\n      jump\t// out\n        /* \"#utility.yul\":2274:2520   */\n    tag_186:\n        /* \"#utility.yul\":2355:2356   */\n      0x00\n        /* \"#utility.yul\":2365:2478   */\n    tag_286:\n        /* \"#utility.yul\":2379:2385   */\n      dup4\n        /* \"#utility.yul\":2376:2377   */\n      dup2\n        /* \"#utility.yul\":2373:2386   */\n      lt\n        /* \"#utility.yul\":2365:2478   */\n      iszero\n      tag_288\n      jumpi\n        /* \"#utility.yul\":2464:2465   */\n      dup1\n        /* \"#utility.yul\":2459:2462   */\n      dup3\n        /* \"#utility.yul\":2455:2466   */\n      add\n        /* \"#utility.yul\":2449:2467   */\n      mload\n        /* \"#utility.yul\":2445:2446   */\n      dup2\n        /* \"#utility.yul\":2440:2443   */\n      dup5\n        /* \"#utility.yul\":2436:2447   */\n      add\n        /* \"#utility.yul\":2429:2468   */\n      mstore\n        /* \"#utility.yul\":2401:2403   */\n      0x20\n        /* \"#utility.yul\":2398:2399   */\n      dup2\n        /* \"#utility.yul\":2394:2404   */\n      add\n        /* \"#utility.yul\":2389:2404   */\n      swap1\n      pop\n        /* \"#utility.yul\":2365:2478   */\n      jump(tag_286)\n    tag_288:\n        /* \"#utility.yul\":2512:2513   */\n      0x00\n        /* \"#utility.yul\":2503:2509   */\n      dup5\n        /* \"#utility.yul\":2498:2501   */\n      dup5\n        /* \"#utility.yul\":2494:2510   */\n      add\n        /* \"#utility.yul\":2487:2514   */\n      mstore\n        /* \"#utility.yul\":2336:2520   */\n      pop\n        /* \"#utility.yul\":2274:2520   */\n      pop\n      pop\n      pop\n      jump\t// out\n        /* \"#utility.yul\":2526:2628   */\n    tag_187:\n        /* \"#utility.yul\":2567:2573   */\n      0x00\n        /* \"#utility.yul\":2618:2620   */\n      0x1f\n        /* \"#utility.yul\":2614:2621   */\n      not\n        /* \"#utility.yul\":2609:2611   */\n      0x1f\n        /* \"#utility.yul\":2602:2607   */\n      dup4\n        /* \"#utility.yul\":2598:2612   */\n      add\n        /* \"#utility.yul\":2594:2622   */\n      and\n        /* \"#utility.yul\":2584:2622   */\n      swap1\n      pop\n        /* \"#utility.yul\":2526:2628   */\n      swap2\n      swap1\n      pop\n      jump\t// out\n        /* \"#utility.yul\":2634:2991   */\n    tag_188:\n        /* \"#utility.yul\":2712:2715   */\n      0x00\n        /* \"#utility.yul\":2740:2779   */\n      tag_291\n        /* \"#utility.yul\":2773:2778   */\n      dup3\n        /* \"#utility.yul\":2740:2779   */\n      tag_184\n      jump\t// in\n    tag_291:\n        /* \"#utility.yul\":2795:2856   */\n      tag_292\n        /* \"#utility.yul\":2849:2855   */\n      dup2\n        /* \"#utility.yul\":2844:2847   */\n      dup6\n        /* \"#utility.yul\":2795:2856   */\n      tag_185\n      jump\t// in\n    tag_292:\n        /* \"#utility.yul\":2788:2856   */\n      swap4\n      pop\n        /* \"#utility.yul\":2865:2930   */\n      tag_293\n        /* \"#utility.yul\":2923:2929   */\n      dup2\n        /* \"#utility.yul\":2918:2921   */\n      dup6\n        /* \"#utility.yul\":2911:2915   */\n      0x20\n        /* \"#utility.yul\":2904:2909   */\n      dup7\n        /* \"#utility.yul\":2900:2916   */\n      add\n        /* \"#utility.yul\":2865:2930   */\n      tag_186\n      jump\t// in\n    tag_293:\n        /* \"#utility.yul\":2955:2984   */\n      tag_294\n        /* \"#utility.yul\":2977:2983   */\n      dup2\n        /* \"#utility.yul\":2955:2984   */\n      tag_187\n      jump\t// in\n    tag_294:\n        /* \"#utility.yul\":2950:2953   */\n      dup5\n        /* \"#utility.yul\":2946:2985   */\n      add\n        /* \"#utility.yul\":2939:2985   */\n      swap2\n      pop\n        /* \"#utility.yul\":2716:2991   */\n      pop\n        /* \"#utility.yul\":2634:2991   */\n      swap3\n      swap2\n      pop\n      pop\n      jump\t// out\n        /* \"#utility.yul\":3047:3820   */\n    tag_189:\n        /* \"#utility.yul\":3152:3155   */\n      0x00\n        /* \"#utility.yul\":3188:3192   */\n      0x60\n        /* \"#utility.yul\":3183:3186   */\n      dup4\n        /* \"#utility.yul\":3179:3193   */\n      add\n        /* \"#utility.yul\":3277:3281   */\n      0x00\n        /* \"#utility.yul\":3270:3275   */\n      dup4\n        /* \"#utility.yul\":3266:3282   */\n      add\n        /* \"#utility.yul\":3260:3283   */\n      mload\n        /* \"#utility.yul\":3296:3359   */\n      tag_296\n        /* \"#utility.yul\":3353:3357   */\n      0x00\n        /* \"#utility.yul\":3348:3351   */\n      dup7\n        /* \"#utility.yul\":3344:3358   */\n      add\n        /* \"#utility.yul\":3330:3342   */\n      dup3\n        /* \"#utility.yul\":3296:3359   */\n      tag_181\n      jump\t// in\n    tag_296:\n        /* \"#utility.yul\":3203:3369   */\n      pop\n        /* \"#utility.yul\":3456:3460   */\n      0x20\n        /* \"#utility.yul\":3449:3454   */\n      dup4\n        /* \"#utility.yul\":3445:3461   */\n      add\n        /* \"#utility.yul\":3439:3462   */\n      mload\n        /* \"#utility.yul\":3475:3538   */\n      tag_297\n        /* \"#utility.yul\":3532:3536   */\n      0x20\n        /* \"#utility.yul\":3527:3530   */\n      dup7\n        /* \"#utility.yul\":3523:3537   */\n      add\n        /* \"#utility.yul\":3509:3521   */\n      dup3\n        /* \"#utility.yul\":3475:3538   */\n      tag_183\n      jump\t// in\n    tag_297:\n        /* \"#utility.yul\":3379:3548   */\n      pop\n        /* \"#utility.yul\":3630:3634   */\n      0x40\n        /* \"#utility.yul\":3623:3628   */\n      dup4\n        /* \"#utility.yul\":3619:3635   */\n      add\n        /* \"#utility.yul\":3613:3636   */\n      mload\n        /* \"#utility.yul\":3683:3686   */\n      dup5\n        /* \"#utility.yul\":3677:3681   */\n      dup3\n        /* \"#utility.yul\":3673:3687   */\n      sub\n        /* \"#utility.yul\":3666:3670   */\n      0x40\n        /* \"#utility.yul\":3661:3664   */\n      dup7\n        /* \"#utility.yul\":3657:3671   */\n      add\n        /* \"#utility.yul\":3650:3688   */\n      mstore\n        /* \"#utility.yul\":3709:3782   */\n      tag_298\n        /* \"#utility.yul\":3777:3781   */\n      dup3\n        /* \"#utility.yul\":3763:3775   */\n      dup3\n        /* \"#utility.yul\":3709:3782   */\n      tag_188\n      jump\t// in\n    tag_298:\n        /* \"#utility.yul\":3701:3782   */\n      swap2\n      pop\n        /* \"#utility.yul\":3558:3793   */\n      pop\n        /* \"#utility.yul\":3810:3814   */\n      dup1\n        /* \"#utility.yul\":3803:3814   */\n      swap2\n      pop\n        /* \"#utility.yul\":3157:3820   */\n      pop\n        /* \"#utility.yul\":3047:3820   */\n      swap3\n      swap2\n      pop\n      pop\n      jump\t// out\n        /* \"#utility.yul\":3826:4074   */\n    tag_190:\n        /* \"#utility.yul\":3941:3951   */\n      0x00\n        /* \"#utility.yul\":3976:4068   */\n      tag_300\n        /* \"#utility.yul\":4064:4067   */\n      dup4\n        /* \"#utility.yul\":4056:4062   */\n      dup4\n        /* \"#utility.yul\":3976:4068   */\n      tag_189\n      jump\t// in\n    tag_300:\n        /* \"#utility.yul\":3962:4068   */\n      swap1\n      pop\n        /* \"#utility.yul\":3826:4074   */\n      swap3\n      swap2\n      pop\n      pop\n      jump\t// out\n        /* \"#utility.yul\":4080:4216   */\n    tag_191:\n        /* \"#utility.yul\":4173:4177   */\n      0x00\n        /* \"#utility.yul\":4205:4209   */\n      0x20\n        /* \"#utility.yul\":4200:4203   */\n      dup3\n        /* \"#utility.yul\":4196:4210   */\n      add\n        /* \"#utility.yul\":4188:4210   */\n      swap1\n      pop\n        /* \"#utility.yul\":4080:4216   */\n      swap2\n      swap1\n      pop\n      jump\t// out\n        /* \"#utility.yul\":4276:5371   */\n    tag_192:\n        /* \"#utility.yul\":4441:4444   */\n      0x00\n        /* \"#utility.yul\":4470:4547   */\n      tag_303\n        /* \"#utility.yul\":4541:4546   */\n      dup3\n        /* \"#utility.yul\":4470:4547   */\n      tag_178\n      jump\t// in\n    tag_303:\n        /* \"#utility.yul\":4563:4672   */\n      tag_304\n        /* \"#utility.yul\":4665:4671   */\n      dup2\n        /* \"#utility.yul\":4660:4663   */\n      dup6\n        /* \"#utility.yul\":4563:4672   */\n      tag_179\n      jump\t// in\n    tag_304:\n        /* \"#utility.yul\":4556:4672   */\n      swap4\n      pop\n        /* \"#utility.yul\":4698:4701   */\n      dup4\n        /* \"#utility.yul\":4743:4747   */\n      0x20\n        /* \"#utility.yul\":4735:4741   */\n      dup3\n        /* \"#utility.yul\":4731:4748   */\n      mul\n        /* \"#utility.yul\":4726:4729   */\n      dup6\n        /* \"#utility.yul\":4722:4749   */\n      add\n        /* \"#utility.yul\":4773:4852   */\n      tag_305\n        /* \"#utility.yul\":4846:4851   */\n      dup6\n        /* \"#utility.yul\":4773:4852   */\n      tag_180\n      jump\t// in\n    tag_305:\n        /* \"#utility.yul\":4875:4882   */\n      dup1\n        /* \"#utility.yul\":4906:4907   */\n      0x00\n        /* \"#utility.yul\":4891:5326   */\n    tag_306:\n        /* \"#utility.yul\":4916:4922   */\n      dup6\n        /* \"#utility.yul\":4913:4914   */\n      dup2\n        /* \"#utility.yul\":4910:4923   */\n      lt\n        /* \"#utility.yul\":4891:5326   */\n      iszero\n      tag_308\n      jumpi\n        /* \"#utility.yul\":4987:4996   */\n      dup5\n        /* \"#utility.yul\":4981:4985   */\n      dup5\n        /* \"#utility.yul\":4977:4997   */\n      sub\n        /* \"#utility.yul\":4972:4975   */\n      dup10\n        /* \"#utility.yul\":4965:4998   */\n      mstore\n        /* \"#utility.yul\":5038:5044   */\n      dup2\n        /* \"#utility.yul\":5032:5045   */\n      mload\n        /* \"#utility.yul\":5066:5176   */\n      tag_309\n        /* \"#utility.yul\":5171:5175   */\n      dup6\n        /* \"#utility.yul\":5156:5169   */\n      dup3\n        /* \"#utility.yul\":5066:5176   */\n      tag_190\n      jump\t// in\n    tag_309:\n        /* \"#utility.yul\":5058:5176   */\n      swap5\n      pop\n        /* \"#utility.yul\":5199:5282   */\n      tag_310\n        /* \"#utility.yul\":5275:5281   */\n      dup4\n        /* \"#utility.yul\":5199:5282   */\n      tag_191\n      jump\t// in\n    tag_310:\n        /* \"#utility.yul\":5189:5282   */\n      swap3\n      pop\n        /* \"#utility.yul\":5311:5315   */\n      0x20\n        /* \"#utility.yul\":5306:5309   */\n      dup11\n        /* \"#utility.yul\":5302:5316   */\n      add\n        /* \"#utility.yul\":5295:5316   */\n      swap10\n      pop\n        /* \"#utility.yul\":4951:5326   */\n      pop\n        /* \"#utility.yul\":4938:4939   */\n      0x01\n        /* \"#utility.yul\":4935:4936   */\n      dup2\n        /* \"#utility.yul\":4931:4940   */\n      add\n        /* \"#utility.yul\":4926:4940   */\n      swap1\n      pop\n        /* \"#utility.yul\":4891:5326   */\n      jump(tag_306)\n    tag_308:\n        /* \"#utility.yul\":4895:4909   */\n      pop\n        /* \"#utility.yul\":5342:5346   */\n      dup3\n        /* \"#utility.yul\":5335:5346   */\n      swap8\n      pop\n        /* \"#utility.yul\":5362:5365   */\n      dup8\n        /* \"#utility.yul\":5355:5365   */\n      swap6\n      pop\n        /* \"#utility.yul\":4446:5371   */\n      pop\n      pop\n      pop\n      pop\n      pop\n        /* \"#utility.yul\":4276:5371   */\n      swap3\n      swap2\n      pop\n      pop\n      jump\t// out\n        /* \"#utility.yul\":5377:5842   */\n    tag_17:\n        /* \"#utility.yul\":5566:5570   */\n      0x00\n        /* \"#utility.yul\":5604:5606   */\n      0x20\n        /* \"#utility.yul\":5593:5602   */\n      dup3\n        /* \"#utility.yul\":5589:5607   */\n      add\n        /* \"#utility.yul\":5581:5607   */\n      swap1\n      pop\n        /* \"#utility.yul\":5653:5662   */\n      dup2\n        /* \"#utility.yul\":5647:5651   */\n      dup2\n        /* \"#utility.yul\":5643:5663   */\n      sub\n        /* \"#utility.yul\":5639:5640   */\n      0x00\n        /* \"#utility.yul\":5628:5637   */\n      dup4\n        /* \"#utility.yul\":5624:5641   */\n      add\n        /* \"#utility.yul\":5617:5664   */\n      mstore\n        /* \"#utility.yul\":5681:5835   */\n      tag_312\n        /* \"#utility.yul\":5830:5834   */\n      dup2\n        /* \"#utility.yul\":5821:5827   */\n      dup5\n        /* \"#utility.yul\":5681:5835   */\n      tag_192\n      jump\t// in\n    tag_312:\n        /* \"#utility.yul\":5673:5835   */\n      swap1\n      pop\n        /* \"#utility.yul\":5377:5842   */\n      swap3\n      swap2\n      pop\n      pop\n      jump\t// out\n        /* \"#utility.yul\":5848:5965   */\n    tag_193:\n        /* \"#utility.yul\":5957:5958   */\n      0x00\n        /* \"#utility.yul\":5954:5955   */\n      dup1\n        /* \"#utility.yul\":5947:5959   */\n      revert\n        /* \"#utility.yul\":5971:6088   */\n    tag_194:\n        /* \"#utility.yul\":6080:6081   */\n      0x00\n        /* \"#utility.yul\":6077:6078   */\n      dup1\n        /* \"#utility.yul\":6070:6082   */\n      revert\n        /* \"#utility.yul\":6094:6211   */\n    tag_195:\n        /* \"#utility.yul\":6203:6204   */\n      0x00\n        /* \"#utility.yul\":6200:6201   */\n      dup1\n        /* \"#utility.yul\":6193:6205   */\n      revert\n        /* \"#utility.yul\":6231:6784   */\n    tag_196:\n        /* \"#utility.yul\":6289:6297   */\n      0x00\n        /* \"#utility.yul\":6299:6305   */\n      dup1\n        /* \"#utility.yul\":6349:6352   */\n      dup4\n        /* \"#utility.yul\":6342:6346   */\n      0x1f\n        /* \"#utility.yul\":6334:6340   */\n      dup5\n        /* \"#utility.yul\":6330:6347   */\n      add\n        /* \"#utility.yul\":6326:6353   */\n      slt\n        /* \"#utility.yul\":6316:6438   */\n      tag_317\n      jumpi\n        /* \"#utility.yul\":6357:6436   */\n      tag_318\n      tag_193\n      jump\t// in\n    tag_318:\n        /* \"#utility.yul\":6316:6438   */\n    tag_317:\n        /* \"#utility.yul\":6470:6476   */\n      dup3\n        /* \"#utility.yul\":6457:6477   */\n      calldataload\n        /* \"#utility.yul\":6447:6477   */\n      swap1\n      pop\n        /* \"#utility.yul\":6500:6518   */\n      0xffffffffffffffff\n        /* \"#utility.yul\":6492:6498   */\n      dup2\n        /* \"#utility.yul\":6489:6519   */\n      gt\n        /* \"#utility.yul\":6486:6603   */\n      iszero\n      tag_319\n      jumpi\n        /* \"#utility.yul\":6522:6601   */\n      tag_320\n      tag_194\n      jump\t// in\n    tag_320:\n        /* \"#utility.yul\":6486:6603   */\n    tag_319:\n        /* \"#utility.yul\":6636:6640   */\n      0x20\n        /* \"#utility.yul\":6628:6634   */\n      dup4\n        /* \"#utility.yul\":6624:6641   */\n      add\n        /* \"#utility.yul\":6612:6641   */\n      swap2\n      pop\n        /* \"#utility.yul\":6690:6693   */\n      dup4\n        /* \"#utility.yul\":6682:6686   */\n      0x01\n        /* \"#utility.yul\":6674:6680   */\n      dup3\n        /* \"#utility.yul\":6670:6687   */\n      mul\n        /* \"#utility.yul\":6660:6668   */\n      dup4\n        /* \"#utility.yul\":6656:6688   */\n      add\n        /* \"#utility.yul\":6653:6694   */\n      gt\n        /* \"#utility.yul\":6650:6778   */\n      iszero\n      tag_321\n      jumpi\n        /* \"#utility.yul\":6697:6776   */\n      tag_322\n      tag_195\n      jump\t// in\n    tag_322:\n        /* \"#utility.yul\":6650:6778   */\n    tag_321:\n        /* \"#utility.yul\":6231:6784   */\n      swap3\n      pop\n      swap3\n      swap1\n      pop\n      jump\t// out\n        /* \"#utility.yul\":6790:7319   */\n    tag_20:\n        /* \"#utility.yul\":6861:6867   */\n      0x00\n        /* \"#utility.yul\":6869:6875   */\n      dup1\n        /* \"#utility.yul\":6918:6920   */\n      0x20\n        /* \"#utility.yul\":6906:6915   */\n      dup4\n        /* \"#utility.yul\":6897:6904   */\n      dup6\n        /* \"#utility.yul\":6893:6916   */\n      sub\n        /* \"#utility.yul\":6889:6921   */\n      slt\n        /* \"#utility.yul\":6886:7005   */\n      iszero\n      tag_324\n      jumpi\n        /* \"#utility.yul\":6924:7003   */\n      tag_325\n      tag_172\n      jump\t// in\n    tag_325:\n        /* \"#utility.yul\":6886:7005   */\n    tag_324:\n        /* \"#utility.yul\":7072:7073   */\n      0x00\n        /* \"#utility.yul\":7061:7070   */\n      dup4\n        /* \"#utility.yul\":7057:7074   */\n      add\n        /* \"#utility.yul\":7044:7075   */\n      calldataload\n        /* \"#utility.yul\":7102:7120   */\n      0xffffffffffffffff\n        /* \"#utility.yul\":7094:7100   */\n      dup2\n        /* \"#utility.yul\":7091:7121   */\n      gt\n        /* \"#utility.yul\":7088:7205   */\n      iszero\n      tag_326\n      jumpi\n        /* \"#utility.yul\":7124:7203   */\n      tag_327\n      tag_173\n      jump\t// in\n    tag_327:\n        /* \"#utility.yul\":7088:7205   */\n    tag_326:\n        /* \"#utility.yul\":7237:7302   */\n      tag_328\n        /* \"#utility.yul\":7294:7301   */\n      dup6\n        /* \"#utility.yul\":7285:7291   */\n      dup3\n        /* \"#utility.yul\":7274:7283   */\n      dup7\n        /* \"#utility.yul\":7270:7292   */\n      add\n        /* \"#utility.yul\":7237:7302   */\n      tag_196\n      jump\t// in\n    tag_328:\n        /* \"#utility.yul\":7219:7302   */\n      swap3\n      pop\n      swap3\n      pop\n        /* \"#utility.yul\":7015:7312   */\n      pop\n        /* \"#utility.yul\":6790:7319   */\n      swap3\n      pop\n      swap3\n      swap1\n      pop\n      jump\t// out\n        /* \"#utility.yul\":7325:7442   */\n    tag_197:\n        /* \"#utility.yul\":7434:7435   */\n      0x00\n        /* \"#utility.yul\":7431:7432   */\n      dup1\n        /* \"#utility.yul\":7424:7436   */\n      revert\n        /* \"#utility.yul\":7448:7628   */\n    tag_198:\n        /* \"#utility.yul\":7496:7573   */\n      0x4e487b7100000000000000000000000000000000000000000000000000000000\n        /* \"#utility.yul\":7493:7494   */\n      0x00\n        /* \"#utility.yul\":7486:7574   */\n      mstore\n        /* \"#utility.yul\":7593:7597   */\n      0x41\n        /* \"#utility.yul\":7590:7591   */\n      0x04\n        /* \"#utility.yul\":7583:7598   */\n      mstore\n        /* \"#utility.yul\":7617:7621   */\n      0x24\n        /* \"#utility.yul\":7614:7615   */\n      0x00\n        /* \"#utility.yul\":7607:7622   */\n      revert\n        /* \"#utility.yul\":7634:7915   */\n    tag_199:\n        /* \"#utility.yul\":7717:7744   */\n      tag_332\n        /* \"#utility.yul\":7739:7743   */\n      dup3\n        /* \"#utility.yul\":7717:7744   */\n      tag_187\n      jump\t// in\n    tag_332:\n        /* \"#utility.yul\":7709:7715   */\n      dup2\n        /* \"#utility.yul\":7705:7745   */\n      add\n        /* \"#utility.yul\":7847:7853   */\n      dup2\n        /* \"#utility.yul\":7835:7845   */\n      dup2\n        /* \"#utility.yul\":7832:7854   */\n      lt\n        /* \"#utility.yul\":7811:7829   */\n      0xffffffffffffffff\n        /* \"#utility.yul\":7799:7809   */\n      dup3\n        /* \"#utility.yul\":7796:7830   */\n      gt\n        /* \"#utility.yul\":7793:7855   */\n      or\n        /* \"#utility.yul\":7790:7878   */\n      iszero\n      tag_333\n      jumpi\n        /* \"#utility.yul\":7858:7876   */\n      tag_334\n      tag_198\n      jump\t// in\n    tag_334:\n        /* \"#utility.yul\":7790:7878   */\n    tag_333:\n        /* \"#utility.yul\":7898:7908   */\n      dup1\n        /* \"#utility.yul\":7894:7896   */\n      0x40\n        /* \"#utility.yul\":7887:7909   */\n      mstore\n        /* \"#utility.yul\":7677:7915   */\n      pop\n        /* \"#utility.yul\":7634:7915   */\n      pop\n      pop\n      jump\t// out\n        /* \"#utility.yul\":7921:8050   */\n    tag_200:\n        /* \"#utility.yul\":7955:7961   */\n      0x00\n        /* \"#utility.yul\":7982:8002   */\n      tag_336\n      tag_171\n      jump\t// in\n    tag_336:\n        /* \"#utility.yul\":7972:8002   */\n      swap1\n      pop\n        /* \"#utility.yul\":8011:8044   */\n      tag_337\n        /* \"#utility.yul\":8039:8043   */\n      dup3\n        /* \"#utility.yul\":8031:8037   */\n      dup3\n        /* \"#utility.yul\":8011:8044   */\n      tag_199\n      jump\t// in\n    tag_337:\n        /* \"#utility.yul\":7921:8050   */\n      swap2\n      swap1\n      pop\n      jump\t// out\n        /* \"#utility.yul\":8056:8364   */\n    tag_201:\n        /* \"#utility.yul\":8118:8122   */\n      0x00\n        /* \"#utility.yul\":8208:8226   */\n      0xffffffffffffffff\n        /* \"#utility.yul\":8200:8206   */\n      dup3\n        /* \"#utility.yul\":8197:8227   */\n      gt\n        /* \"#utility.yul\":8194:8250   */\n      iszero\n      tag_339\n      jumpi\n        /* \"#utility.yul\":8230:8248   */\n      tag_340\n      tag_198\n      jump\t// in\n    tag_340:\n        /* \"#utility.yul\":8194:8250   */\n    tag_339:\n        /* \"#utility.yul\":8268:8297   */\n      tag_341\n        /* \"#utility.yul\":8290:8296   */\n      dup3\n        /* \"#utility.yul\":8268:8297   */\n      tag_187\n      jump\t// in\n    tag_341:\n        /* \"#utility.yul\":8260:8297   */\n      swap1\n      pop\n        /* \"#utility.yul\":8352:8356   */\n      0x20\n        /* \"#utility.yul\":8346:8350   */\n      dup2\n        /* \"#utility.yul\":8342:8357   */\n      add\n        /* \"#utility.yul\":8334:8357   */\n      swap1\n      pop\n        /* \"#utility.yul\":8056:8364   */\n      swap2\n      swap1\n      pop\n      jump\t// out\n        /* \"#utility.yul\":8370:8516   */\n    tag_202:\n        /* \"#utility.yul\":8467:8473   */\n      dup3\n        /* \"#utility.yul\":8462:8465   */\n      dup2\n        /* \"#utility.yul\":8457:8460   */\n      dup4\n        /* \"#utility.yul\":8444:8474   */\n      calldatacopy\n        /* \"#utility.yul\":8508:8509   */\n      0x00\n        /* \"#utility.yul\":8499:8505   */\n      dup4\n        /* \"#utility.yul\":8494:8497   */\n      dup4\n        /* \"#utility.yul\":8490:8506   */\n      add\n        /* \"#utility.yul\":8483:8510   */\n      mstore\n        /* \"#utility.yul\":8370:8516   */\n      pop\n      pop\n      pop\n      jump\t// out\n        /* \"#utility.yul\":8522:8947   */\n    tag_203:\n        /* \"#utility.yul\":8600:8605   */\n      0x00\n        /* \"#utility.yul\":8625:8691   */\n      tag_344\n        /* \"#utility.yul\":8641:8690   */\n      tag_345\n        /* \"#utility.yul\":8683:8689   */\n      dup5\n        /* \"#utility.yul\":8641:8690   */\n      tag_201\n      jump\t// in\n    tag_345:\n        /* \"#utility.yul\":8625:8691   */\n      tag_200\n      jump\t// in\n    tag_344:\n        /* \"#utility.yul\":8616:8691   */\n      swap1\n      pop\n        /* \"#utility.yul\":8714:8720   */\n      dup3\n        /* \"#utility.yul\":8707:8712   */\n      dup2\n        /* \"#utility.yul\":8700:8721   */\n      mstore\n        /* \"#utility.yul\":8752:8756   */\n      0x20\n        /* \"#utility.yul\":8745:8750   */\n      dup2\n        /* \"#utility.yul\":8741:8757   */\n      add\n        /* \"#utility.yul\":8790:8793   */\n      dup5\n        /* \"#utility.yul\":8781:8787   */\n      dup5\n        /* \"#utility.yul\":8776:8779   */\n      dup5\n        /* \"#utility.yul\":8772:8788   */\n      add\n        /* \"#utility.yul\":8769:8794   */\n      gt\n        /* \"#utility.yul\":8766:8878   */\n      iszero\n      tag_346\n      jumpi\n        /* \"#utility.yul\":8797:8876   */\n      tag_347\n      tag_197\n      jump\t// in\n    tag_347:\n        /* \"#utility.yul\":8766:8878   */\n    tag_346:\n        /* \"#utility.yul\":8887:8941   */\n      tag_348\n        /* \"#utility.yul\":8934:8940   */\n      dup5\n        /* \"#utility.yul\":8929:8932   */\n      dup3\n        /* \"#utility.yul\":8924:8927   */\n      dup6\n        /* \"#utility.yul\":8887:8941   */\n      tag_202\n      jump\t// in\n    tag_348:\n        /* \"#utility.yul\":8606:8947   */\n      pop\n        /* \"#utility.yul\":8522:8947   */\n      swap4\n      swap3\n      pop\n      pop\n      pop\n      jump\t// out\n        /* \"#utility.yul\":8967:9307   */\n    tag_204:\n        /* \"#utility.yul\":9023:9028   */\n      0x00\n        /* \"#utility.yul\":9072:9075   */\n      dup3\n        /* \"#utility.yul\":9065:9069   */\n      0x1f\n        /* \"#utility.yul\":9057:9063   */\n      dup4\n        /* \"#utility.yul\":9053:9070   */\n      add\n        /* \"#utility.yul\":9049:9076   */\n      slt\n        /* \"#utility.yul\":9039:9161   */\n      tag_350\n      jumpi\n        /* \"#utility.yul\":9080:9159   */\n      tag_351\n      tag_193\n      jump\t// in\n    tag_351:\n        /* \"#utility.yul\":9039:9161   */\n    tag_350:\n        /* \"#utility.yul\":9197:9203   */\n      dup2\n        /* \"#utility.yul\":9184:9204   */\n      calldataload\n        /* \"#utility.yul\":9222:9301   */\n      tag_352\n        /* \"#utility.yul\":9297:9300   */\n      dup5\n        /* \"#utility.yul\":9289:9295   */\n      dup3\n        /* \"#utility.yul\":9282:9286   */\n      0x20\n        /* \"#utility.yul\":9274:9280   */\n      dup7\n        /* \"#utility.yul\":9270:9287   */\n      add\n        /* \"#utility.yul\":9222:9301   */\n      tag_203\n      jump\t// in\n    tag_352:\n        /* \"#utility.yul\":9213:9301   */\n      swap2\n      pop\n        /* \"#utility.yul\":9029:9307   */\n      pop\n        /* \"#utility.yul\":8967:9307   */\n      swap3\n      swap2\n      pop\n      pop\n      jump\t// out\n        /* \"#utility.yul\":9313:9967   */\n    tag_24:\n        /* \"#utility.yul\":9391:9397   */\n      0x00\n        /* \"#utility.yul\":9399:9405   */\n      dup1\n        /* \"#utility.yul\":9448:9450   */\n      0x40\n        /* \"#utility.yul\":9436:9445   */\n      dup4\n        /* \"#utility.yul\":9427:9434   */\n      dup6\n        /* \"#utility.yul\":9423:9446   */\n      sub\n        /* \"#utility.yul\":9419:9451   */\n      slt\n        /* \"#utility.yul\":9416:9535   */\n      iszero\n      tag_354\n      jumpi\n        /* \"#utility.yul\":9454:9533   */\n      tag_355\n      tag_172\n      jump\t// in\n    tag_355:\n        /* \"#utility.yul\":9416:9535   */\n    tag_354:\n        /* \"#utility.yul\":9574:9575   */\n      0x00\n        /* \"#utility.yul\":9599:9652   */\n      tag_356\n        /* \"#utility.yul\":9644:9651   */\n      dup6\n        /* \"#utility.yul\":9635:9641   */\n      dup3\n        /* \"#utility.yul\":9624:9633   */\n      dup7\n        /* \"#utility.yul\":9620:9642   */\n      add\n        /* \"#utility.yul\":9599:9652   */\n      tag_177\n      jump\t// in\n    tag_356:\n        /* \"#utility.yul\":9589:9652   */\n      swap3\n      pop\n        /* \"#utility.yul\":9545:9662   */\n      pop\n        /* \"#utility.yul\":9729:9731   */\n      0x20\n        /* \"#utility.yul\":9718:9727   */\n      dup4\n        /* \"#utility.yul\":9714:9732   */\n      add\n        /* \"#utility.yul\":9701:9733   */\n      calldataload\n        /* \"#utility.yul\":9760:9778   */\n      0xffffffffffffffff\n        /* \"#utility.yul\":9752:9758   */\n      dup2\n        /* \"#utility.yul\":9749:9779   */\n      gt\n        /* \"#utility.yul\":9746:9863   */\n      iszero\n      tag_357\n      jumpi\n        /* \"#utility.yul\":9782:9861   */\n      tag_358\n      tag_173\n      jump\t// in\n    tag_358:\n        /* \"#utility.yul\":9746:9863   */\n    tag_357:\n        /* \"#utility.yul\":9887:9950   */\n      tag_359\n        /* \"#utility.yul\":9942:9949   */\n      dup6\n        /* \"#utility.yul\":9933:9939   */\n      dup3\n        /* \"#utility.yul\":9922:9931   */\n      dup7\n        /* \"#utility.yul\":9918:9940   */\n      add\n        /* \"#utility.yul\":9887:9950   */\n      tag_204\n      jump\t// in\n    tag_359:\n        /* \"#utility.yul\":9877:9950   */\n      swap2\n      pop\n        /* \"#utility.yul\":9672:9960   */\n      pop\n        /* \"#utility.yul\":9313:9967   */\n      swap3\n      pop\n      swap3\n      swap1\n      pop\n      jump\t// out\n        /* \"#utility.yul\":9973:10116   */\n    tag_205:\n        /* \"#utility.yul\":10069:10075   */\n      0x00\n        /* \"#utility.yul\":10103:10108   */\n      dup2\n        /* \"#utility.yul\":10097:10109   */\n      mload\n        /* \"#utility.yul\":10087:10109   */\n      swap1\n      pop\n        /* \"#utility.yul\":9973:10116   */\n      swap2\n      swap1\n      pop\n      jump\t// out\n        /* \"#utility.yul\":10122:10335   */\n    tag_206:\n        /* \"#utility.yul\":10250:10261   */\n      0x00\n        /* \"#utility.yul\":10284:10290   */\n      dup3\n        /* \"#utility.yul\":10279:10282   */\n      dup3\n        /* \"#utility.yul\":10272:10291   */\n      mstore\n        /* \"#utility.yul\":10324:10328   */\n      0x20\n        /* \"#utility.yul\":10319:10322   */\n      dup3\n        /* \"#utility.yul\":10315:10329   */\n      add\n        /* \"#utility.yul\":10300:10329   */\n      swap1\n      pop\n        /* \"#utility.yul\":10122:10335   */\n      swap3\n      swap2\n      pop\n      pop\n      jump\t// out\n        /* \"#utility.yul\":10341:10502   */\n    tag_207:\n        /* \"#utility.yul\":10437:10441   */\n      0x00\n        /* \"#utility.yul\":10460:10463   */\n      dup2\n        /* \"#utility.yul\":10452:10463   */\n      swap1\n      pop\n        /* \"#utility.yul\":10490:10494   */\n      0x20\n        /* \"#utility.yul\":10485:10488   */\n      dup3\n        /* \"#utility.yul\":10481:10495   */\n      add\n        /* \"#utility.yul\":10473:10495   */\n      swap1\n      pop\n        /* \"#utility.yul\":10341:10502   */\n      swap2\n      swap1\n      pop\n      jump\t// out\n        /* \"#utility.yul\":10570:11184   */\n    tag_208:\n        /* \"#utility.yul\":10687:10690   */\n      0x00\n        /* \"#utility.yul\":10723:10727   */\n      0x40\n        /* \"#utility.yul\":10718:10721   */\n      dup4\n        /* \"#utility.yul\":10714:10728   */\n      add\n        /* \"#utility.yul\":10810:10814   */\n      0x00\n        /* \"#utility.yul\":10803:10808   */\n      dup4\n        /* \"#utility.yul\":10799:10815   */\n      add\n        /* \"#utility.yul\":10793:10816   */\n      mload\n        /* \"#utility.yul\":10863:10866   */\n      dup5\n        /* \"#utility.yul\":10857:10861   */\n      dup3\n        /* \"#utility.yul\":10853:10867   */\n      sub\n        /* \"#utility.yul\":10846:10850   */\n      0x00\n        /* \"#utility.yul\":10841:10844   */\n      dup7\n        /* \"#utility.yul\":10837:10851   */\n      add\n        /* \"#utility.yul\":10830:10868   */\n      mstore\n        /* \"#utility.yul\":10889:10962   */\n      tag_364\n        /* \"#utility.yul\":10957:10961   */\n      dup3\n        /* \"#utility.yul\":10943:10955   */\n      dup3\n        /* \"#utility.yul\":10889:10962   */\n      tag_188\n      jump\t// in\n    tag_364:\n        /* \"#utility.yul\":10881:10962   */\n      swap2\n      pop\n        /* \"#utility.yul\":10738:10973   */\n      pop\n        /* \"#utility.yul\":11065:11069   */\n      0x20\n        /* \"#utility.yul\":11058:11063   */\n      dup4\n        /* \"#utility.yul\":11054:11070   */\n      add\n        /* \"#utility.yul\":11048:11071   */\n      mload\n        /* \"#utility.yul\":11084:11147   */\n      tag_365\n        /* \"#utility.yul\":11141:11145   */\n      0x20\n        /* \"#utility.yul\":11136:11139   */\n      dup7\n        /* \"#utility.yul\":11132:11146   */\n      add\n        /* \"#utility.yul\":11118:11130   */\n      dup3\n        /* \"#utility.yul\":11084:11147   */\n      tag_181\n      jump\t// in\n    tag_365:\n        /* \"#utility.yul\":10983:11157   */\n      pop\n        /* \"#utility.yul\":11174:11178   */\n      dup1\n        /* \"#utility.yul\":11167:11178   */\n      swap2\n      pop\n        /* \"#utility.yul\":10692:11184   */\n      pop\n        /* \"#utility.yul\":10570:11184   */\n      swap3\n      swap2\n      pop\n      pop\n      jump\t// out\n        /* \"#utility.yul\":11190:11462   */\n    tag_209:\n        /* \"#utility.yul\":11317:11327   */\n      0x00\n        /* \"#utility.yul\":11352:11456   */\n      tag_367\n        /* \"#utility.yul\":11452:11455   */\n      dup4\n        /* \"#utility.yul\":11444:11450   */\n      dup4\n        /* \"#utility.yul\":11352:11456   */\n      tag_208\n      jump\t// in\n    tag_367:\n        /* \"#utility.yul\":11338:11456   */\n      swap1\n      pop\n        /* \"#utility.yul\":11190:11462   */\n      swap3\n      swap2\n      pop\n      pop\n      jump\t// out\n        /* \"#utility.yul\":11468:11610   */\n    tag_210:\n        /* \"#utility.yul\":11567:11571   */\n      0x00\n        /* \"#utility.yul\":11599:11603   */\n      0x20\n        /* \"#utility.yul\":11594:11597   */\n      dup3\n        /* \"#utility.yul\":11590:11604   */\n      add\n        /* \"#utility.yul\":11582:11604   */\n      swap1\n      pop\n        /* \"#utility.yul\":11468:11610   */\n      swap2\n      swap1\n      pop\n      jump\t// out\n        /* \"#utility.yul\":11682:12825   */\n    tag_211:\n        /* \"#utility.yul\":11859:11862   */\n      0x00\n        /* \"#utility.yul\":11888:11971   */\n      tag_370\n        /* \"#utility.yul\":11965:11970   */\n      dup3\n        /* \"#utility.yul\":11888:11971   */\n      tag_205\n      jump\t// in\n    tag_370:\n        /* \"#utility.yul\":11987:12102   */\n      tag_371\n        /* \"#utility.yul\":12095:12101   */\n      dup2\n        /* \"#utility.yul\":12090:12093   */\n      dup6\n        /* \"#utility.yul\":11987:12102   */\n      tag_206\n      jump\t// in\n    tag_371:\n        /* \"#utility.yul\":11980:12102   */\n      swap4\n      pop\n        /* \"#utility.yul\":12128:12131   */\n      dup4\n        /* \"#utility.yul\":12173:12177   */\n      0x20\n        /* \"#utility.yul\":12165:12171   */\n      dup3\n        /* \"#utility.yul\":12161:12178   */\n      mul\n        /* \"#utility.yul\":12156:12159   */\n      dup6\n        /* \"#utility.yul\":12152:12179   */\n      add\n        /* \"#utility.yul\":12203:12288   */\n      tag_372\n        /* \"#utility.yul\":12282:12287   */\n      dup6\n        /* \"#utility.yul\":12203:12288   */\n      tag_207\n      jump\t// in\n    tag_372:\n        /* \"#utility.yul\":12311:12318   */\n      dup1\n        /* \"#utility.yul\":12342:12343   */\n      0x00\n        /* \"#utility.yul\":12327:12780   */\n    tag_373:\n        /* \"#utility.yul\":12352:12358   */\n      dup6\n        /* \"#utility.yul\":12349:12350   */\n      dup2\n        /* \"#utility.yul\":12346:12359   */\n      lt\n        /* \"#utility.yul\":12327:12780   */\n      iszero\n      tag_375\n      jumpi\n        /* \"#utility.yul\":12423:12432   */\n      dup5\n        /* \"#utility.yul\":12417:12421   */\n      dup5\n        /* \"#utility.yul\":12413:12433   */\n      sub\n        /* \"#utility.yul\":12408:12411   */\n      dup10\n        /* \"#utility.yul\":12401:12434   */\n      mstore\n        /* \"#utility.yul\":12474:12480   */\n      dup2\n        /* \"#utility.yul\":12468:12481   */\n      mload\n        /* \"#utility.yul\":12502:12624   */\n      tag_376\n        /* \"#utility.yul\":12619:12623   */\n      dup6\n        /* \"#utility.yul\":12604:12617   */\n      dup3\n        /* \"#utility.yul\":12502:12624   */\n      tag_209\n      jump\t// in\n    tag_376:\n        /* \"#utility.yul\":12494:12624   */\n      swap5\n      pop\n        /* \"#utility.yul\":12647:12736   */\n      tag_377\n        /* \"#utility.yul\":12729:12735   */\n      dup4\n        /* \"#utility.yul\":12647:12736   */\n      tag_210\n      jump\t// in\n    tag_377:\n        /* \"#utility.yul\":12637:12736   */\n      swap3\n      pop\n        /* \"#utility.yul\":12765:12769   */\n      0x20\n        /* \"#utility.yul\":12760:12763   */\n      dup11\n        /* \"#utility.yul\":12756:12770   */\n      add\n        /* \"#utility.yul\":12749:12770   */\n      swap10\n      pop\n        /* \"#utility.yul\":12387:12780   */\n      pop\n        /* \"#utility.yul\":12374:12375   */\n      0x01\n        /* \"#utility.yul\":12371:12372   */\n      dup2\n        /* \"#utility.yul\":12367:12376   */\n      add\n        /* \"#utility.yul\":12362:12376   */\n      swap1\n      pop\n        /* \"#utility.yul\":12327:12780   */\n      jump(tag_373)\n    tag_375:\n        /* \"#utility.yul\":12331:12345   */\n      pop\n        /* \"#utility.yul\":12796:12800   */\n      dup3\n        /* \"#utility.yul\":12789:12800   */\n      swap8\n      pop\n        /* \"#utility.yul\":12816:12819   */\n      dup8\n        /* \"#utility.yul\":12809:12819   */\n      swap6\n      pop\n        /* \"#utility.yul\":11864:12825   */\n      pop\n      pop\n      pop\n      pop\n      pop\n        /* \"#utility.yul\":11682:12825   */\n      swap3\n      swap2\n      pop\n      pop\n      jump\t// out\n        /* \"#utility.yul\":12831:13320   */\n    tag_29:\n        /* \"#utility.yul\":13032:13036   */\n      0x00\n        /* \"#utility.yul\":13070:13072   */\n      0x20\n        /* \"#utility.yul\":13059:13068   */\n      dup3\n        /* \"#utility.yul\":13055:13073   */\n      add\n        /* \"#utility.yul\":13047:13073   */\n      swap1\n      pop\n        /* \"#utility.yul\":13119:13128   */\n      dup2\n        /* \"#utility.yul\":13113:13117   */\n      dup2\n        /* \"#utility.yul\":13109:13129   */\n      sub\n        /* \"#utility.yul\":13105:13106   */\n      0x00\n        /* \"#utility.yul\":13094:13103   */\n      dup4\n        /* \"#utility.yul\":13090:13107   */\n      add\n        /* \"#utility.yul\":13083:13130   */\n      mstore\n        /* \"#utility.yul\":13147:13313   */\n      tag_379\n        /* \"#utility.yul\":13308:13312   */\n      dup2\n        /* \"#utility.yul\":13299:13305   */\n      dup5\n        /* \"#utility.yul\":13147:13313   */\n      tag_211\n      jump\t// in\n    tag_379:\n        /* \"#utility.yul\":13139:13313   */\n      swap1\n      pop\n        /* \"#utility.yul\":12831:13320   */\n      swap3\n      swap2\n      pop\n      pop\n      jump\t// out\n        /* \"#utility.yul\":13326:13416   */\n    tag_212:\n        /* \"#utility.yul\":13360:13367   */\n      0x00\n        /* \"#utility.yul\":13403:13408   */\n      dup2\n        /* \"#utility.yul\":13396:13409   */\n      iszero\n        /* \"#utility.yul\":13389:13410   */\n      iszero\n        /* \"#utility.yul\":13378:13410   */\n      swap1\n      pop\n        /* \"#utility.yul\":13326:13416   */\n      swap2\n      swap1\n      pop\n      jump\t// out\n        /* \"#utility.yul\":13422:13531   */\n    tag_213:\n        /* \"#utility.yul\":13503:13524   */\n      tag_382\n        /* \"#utility.yul\":13518:13523   */\n      dup2\n        /* \"#utility.yul\":13503:13524   */\n      tag_212\n      jump\t// in\n    tag_382:\n        /* \"#utility.yul\":13498:13501   */\n      dup3\n        /* \"#utility.yul\":13491:13525   */\n      mstore\n        /* \"#utility.yul\":13422:13531   */\n      pop\n      pop\n      jump\t// out\n        /* \"#utility.yul\":13537:13747   */\n    tag_34:\n        /* \"#utility.yul\":13624:13628   */\n      0x00\n        /* \"#utility.yul\":13662:13664   */\n      0x20\n        /* \"#utility.yul\":13651:13660   */\n      dup3\n        /* \"#utility.yul\":13647:13665   */\n      add\n        /* \"#utility.yul\":13639:13665   */\n      swap1\n      pop\n        /* \"#utility.yul\":13675:13740   */\n      tag_384\n        /* \"#utility.yul\":13737:13738   */\n      0x00\n        /* \"#utility.yul\":13726:13735   */\n      dup4\n        /* \"#utility.yul\":13722:13739   */\n      add\n        /* \"#utility.yul\":13713:13719   */\n      dup5\n        /* \"#utility.yul\":13675:13740   */\n      tag_213\n      jump\t// in\n    tag_384:\n        /* \"#utility.yul\":13537:13747   */\n      swap3\n      swap2\n      pop\n      pop\n      jump\t// out\n        /* \"#utility.yul\":13753:13889   */\n    tag_214:\n        /* \"#utility.yul\":13842:13848   */\n      0x00\n        /* \"#utility.yul\":13876:13881   */\n      dup2\n        /* \"#utility.yul\":13870:13882   */\n      mload\n        /* \"#utility.yul\":13860:13882   */\n      swap1\n      pop\n        /* \"#utility.yul\":13753:13889   */\n      swap2\n      swap1\n      pop\n      jump\t// out\n        /* \"#utility.yul\":13895:14101   */\n    tag_215:\n        /* \"#utility.yul\":14016:14027   */\n      0x00\n        /* \"#utility.yul\":14050:14056   */\n      dup3\n        /* \"#utility.yul\":14045:14048   */\n      dup3\n        /* \"#utility.yul\":14038:14057   */\n      mstore\n        /* \"#utility.yul\":14090:14094   */\n      0x20\n        /* \"#utility.yul\":14085:14088   */\n      dup3\n        /* \"#utility.yul\":14081:14095   */\n      add\n        /* \"#utility.yul\":14066:14095   */\n      swap1\n      pop\n        /* \"#utility.yul\":13895:14101   */\n      swap3\n      swap2\n      pop\n      pop\n      jump\t// out\n        /* \"#utility.yul\":14107:14261   */\n    tag_216:\n        /* \"#utility.yul\":14196:14200   */\n      0x00\n        /* \"#utility.yul\":14219:14222   */\n      dup2\n        /* \"#utility.yul\":14211:14222   */\n      swap1\n      pop\n        /* \"#utility.yul\":14249:14253   */\n      0x20\n        /* \"#utility.yul\":14244:14247   */\n      dup3\n        /* \"#utility.yul\":14240:14254   */\n      add\n        /* \"#utility.yul\":14232:14254   */\n      swap1\n      pop\n        /* \"#utility.yul\":14107:14261   */\n      swap2\n      swap1\n      pop\n      jump\t// out\n        /* \"#utility.yul\":14315:14910   */\n    tag_217:\n        /* \"#utility.yul\":14418:14421   */\n      0x00\n        /* \"#utility.yul\":14454:14458   */\n      0x40\n        /* \"#utility.yul\":14449:14452   */\n      dup4\n        /* \"#utility.yul\":14445:14459   */\n      add\n        /* \"#utility.yul\":14546:14550   */\n      0x00\n        /* \"#utility.yul\":14539:14544   */\n      dup4\n        /* \"#utility.yul\":14535:14551   */\n      add\n        /* \"#utility.yul\":14529:14552   */\n      mload\n        /* \"#utility.yul\":14565:14628   */\n      tag_389\n        /* \"#utility.yul\":14622:14626   */\n      0x00\n        /* \"#utility.yul\":14617:14620   */\n      dup7\n        /* \"#utility.yul\":14613:14627   */\n      add\n        /* \"#utility.yul\":14599:14611   */\n      dup3\n        /* \"#utility.yul\":14565:14628   */\n      tag_181\n      jump\t// in\n    tag_389:\n        /* \"#utility.yul\":14469:14638   */\n      pop\n        /* \"#utility.yul\":14720:14724   */\n      0x20\n        /* \"#utility.yul\":14713:14718   */\n      dup4\n        /* \"#utility.yul\":14709:14725   */\n      add\n        /* \"#utility.yul\":14703:14726   */\n      mload\n        /* \"#utility.yul\":14773:14776   */\n      dup5\n        /* \"#utility.yul\":14767:14771   */\n      dup3\n        /* \"#utility.yul\":14763:14777   */\n      sub\n        /* \"#utility.yul\":14756:14760   */\n      0x20\n        /* \"#utility.yul\":14751:14754   */\n      dup7\n        /* \"#utility.yul\":14747:14761   */\n      add\n        /* \"#utility.yul\":14740:14778   */\n      mstore\n        /* \"#utility.yul\":14799:14872   */\n      tag_390\n        /* \"#utility.yul\":14867:14871   */\n      dup3\n        /* \"#utility.yul\":14853:14865   */\n      dup3\n        /* \"#utility.yul\":14799:14872   */\n      tag_188\n      jump\t// in\n    tag_390:\n        /* \"#utility.yul\":14791:14872   */\n      swap2\n      pop\n        /* \"#utility.yul\":14648:14883   */\n      pop\n        /* \"#utility.yul\":14900:14904   */\n      dup1\n        /* \"#utility.yul\":14893:14904   */\n      swap2\n      pop\n        /* \"#utility.yul\":14423:14910   */\n      pop\n        /* \"#utility.yul\":14315:14910   */\n      swap3\n      swap2\n      pop\n      pop\n      jump\t// out\n        /* \"#utility.yul\":14916:15160   */\n    tag_218:\n        /* \"#utility.yul\":15029:15039   */\n      0x00\n        /* \"#utility.yul\":15064:15154   */\n      tag_392\n        /* \"#utility.yul\":15150:15153   */\n      dup4\n        /* \"#utility.yul\":15142:15148   */\n      dup4\n        /* \"#utility.yul\":15064:15154   */\n      tag_217\n      jump\t// in\n    tag_392:\n        /* \"#utility.yul\":15050:15154   */\n      swap1\n      pop\n        /* \"#utility.yul\":14916:15160   */\n      swap3\n      swap2\n      pop\n      pop\n      jump\t// out\n        /* \"#utility.yul\":15166:15301   */\n    tag_219:\n        /* \"#utility.yul\":15258:15262   */\n      0x00\n        /* \"#utility.yul\":15290:15294   */\n      0x20\n        /* \"#utility.yul\":15285:15288   */\n      dup3\n        /* \"#utility.yul\":15281:15295   */\n      add\n        /* \"#utility.yul\":15273:15295   */\n      swap1\n      pop\n        /* \"#utility.yul\":15166:15301   */\n      swap2\n      swap1\n      pop\n      jump\t// out\n        /* \"#utility.yul\":15359:16446   */\n    tag_220:\n        /* \"#utility.yul\":15522:15525   */\n      0x00\n        /* \"#utility.yul\":15551:15627   */\n      tag_395\n        /* \"#utility.yul\":15621:15626   */\n      dup3\n        /* \"#utility.yul\":15551:15627   */\n      tag_214\n      jump\t// in\n    tag_395:\n        /* \"#utility.yul\":15643:15751   */\n      tag_396\n        /* \"#utility.yul\":15744:15750   */\n      dup2\n        /* \"#utility.yul\":15739:15742   */\n      dup6\n        /* \"#utility.yul\":15643:15751   */\n      tag_215\n      jump\t// in\n    tag_396:\n        /* \"#utility.yul\":15636:15751   */\n      swap4\n      pop\n        /* \"#utility.yul\":15777:15780   */\n      dup4\n        /* \"#utility.yul\":15822:15826   */\n      0x20\n        /* \"#utility.yul\":15814:15820   */\n      dup3\n        /* \"#utility.yul\":15810:15827   */\n      mul\n        /* \"#utility.yul\":15805:15808   */\n      dup6\n        /* \"#utility.yul\":15801:15828   */\n      add\n        /* \"#utility.yul\":15852:15930   */\n      tag_397\n        /* \"#utility.yul\":15924:15929   */\n      dup6\n        /* \"#utility.yul\":15852:15930   */\n      tag_216\n      jump\t// in\n    tag_397:\n        /* \"#utility.yul\":15953:15960   */\n      dup1\n        /* \"#utility.yul\":15984:15985   */\n      0x00\n        /* \"#utility.yul\":15969:16401   */\n    tag_398:\n        /* \"#utility.yul\":15994:16000   */\n      dup6\n        /* \"#utility.yul\":15991:15992   */\n      dup2\n        /* \"#utility.yul\":15988:16001   */\n      lt\n        /* \"#utility.yul\":15969:16401   */\n      iszero\n      tag_400\n      jumpi\n        /* \"#utility.yul\":16065:16074   */\n      dup5\n        /* \"#utility.yul\":16059:16063   */\n      dup5\n        /* \"#utility.yul\":16055:16075   */\n      sub\n        /* \"#utility.yul\":16050:16053   */\n      dup10\n        /* \"#utility.yul\":16043:16076   */\n      mstore\n        /* \"#utility.yul\":16116:16122   */\n      dup2\n        /* \"#utility.yul\":16110:16123   */\n      mload\n        /* \"#utility.yul\":16144:16252   */\n      tag_401\n        /* \"#utility.yul\":16247:16251   */\n      dup6\n        /* \"#utility.yul\":16232:16245   */\n      dup3\n        /* \"#utility.yul\":16144:16252   */\n      tag_218\n      jump\t// in\n    tag_401:\n        /* \"#utility.yul\":16136:16252   */\n      swap5\n      pop\n        /* \"#utility.yul\":16275:16357   */\n      tag_402\n        /* \"#utility.yul\":16350:16356   */\n      dup4\n        /* \"#utility.yul\":16275:16357   */\n      tag_219\n      jump\t// in\n    tag_402:\n        /* \"#utility.yul\":16265:16357   */\n      swap3\n      pop\n        /* \"#utility.yul\":16386:16390   */\n      0x20\n        /* \"#utility.yul\":16381:16384   */\n      dup11\n        /* \"#utility.yul\":16377:16391   */\n      add\n        /* \"#utility.yul\":16370:16391   */\n      swap10\n      pop\n        /* \"#utility.yul\":16029:16401   */\n      pop\n        /* \"#utility.yul\":16016:16017   */\n      0x01\n        /* \"#utility.yul\":16013:16014   */\n      dup2\n        /* \"#utility.yul\":16009:16018   */\n      add\n        /* \"#utility.yul\":16004:16018   */\n      swap1\n      pop\n        /* \"#utility.yul\":15969:16401   */\n      jump(tag_398)\n    tag_400:\n        /* \"#utility.yul\":15973:15987   */\n      pop\n        /* \"#utility.yul\":16417:16421   */\n      dup3\n        /* \"#utility.yul\":16410:16421   */\n      swap8\n      pop\n        /* \"#utility.yul\":16437:16440   */\n      dup8\n        /* \"#utility.yul\":16430:16440   */\n      swap6\n      pop\n        /* \"#utility.yul\":15527:16446   */\n      pop\n      pop\n      pop\n      pop\n      pop\n        /* \"#utility.yul\":15359:16446   */\n      swap3\n      swap2\n      pop\n      pop\n      jump\t// out\n        /* \"#utility.yul\":16452:16913   */\n    tag_38:\n        /* \"#utility.yul\":16639:16643   */\n      0x00\n        /* \"#utility.yul\":16677:16679   */\n      0x20\n        /* \"#utility.yul\":16666:16675   */\n      dup3\n        /* \"#utility.yul\":16662:16680   */\n      add\n        /* \"#utility.yul\":16654:16680   */\n      swap1\n      pop\n        /* \"#utility.yul\":16726:16735   */\n      dup2\n        /* \"#utility.yul\":16720:16724   */\n      dup2\n        /* \"#utility.yul\":16716:16736   */\n      sub\n        /* \"#utility.yul\":16712:16713   */\n      0x00\n        /* \"#utility.yul\":16701:16710   */\n      dup4\n        /* \"#utility.yul\":16697:16714   */\n      add\n        /* \"#utility.yul\":16690:16737   */\n      mstore\n        /* \"#utility.yul\":16754:16906   */\n      tag_404\n        /* \"#utility.yul\":16901:16905   */\n      dup2\n        /* \"#utility.yul\":16892:16898   */\n      dup5\n        /* \"#utility.yul\":16754:16906   */\n      tag_220\n      jump\t// in\n    tag_404:\n        /* \"#utility.yul\":16746:16906   */\n      swap1\n      pop\n        /* \"#utility.yul\":16452:16913   */\n      swap3\n      swap2\n      pop\n      pop\n      jump\t// out\n        /* \"#utility.yul\":16919:17088   */\n    tag_221:\n        /* \"#utility.yul\":17003:17014   */\n      0x00\n        /* \"#utility.yul\":17037:17043   */\n      dup3\n        /* \"#utility.yul\":17032:17035   */\n      dup3\n        /* \"#utility.yul\":17025:17044   */\n      mstore\n        /* \"#utility.yul\":17077:17081   */\n      0x20\n        /* \"#utility.yul\":17072:17075   */\n      dup3\n        /* \"#utility.yul\":17068:17082   */\n      add\n        /* \"#utility.yul\":17053:17082   */\n      swap1\n      pop\n        /* \"#utility.yul\":16919:17088   */\n      swap3\n      swap2\n      pop\n      pop\n      jump\t// out\n        /* \"#utility.yul\":17094:17471   */\n    tag_222:\n        /* \"#utility.yul\":17182:17185   */\n      0x00\n        /* \"#utility.yul\":17210:17249   */\n      tag_407\n        /* \"#utility.yul\":17243:17248   */\n      dup3\n        /* \"#utility.yul\":17210:17249   */\n      tag_184\n      jump\t// in\n    tag_407:\n        /* \"#utility.yul\":17265:17336   */\n      tag_408\n        /* \"#utility.yul\":17329:17335   */\n      dup2\n        /* \"#utility.yul\":17324:17327   */\n      dup6\n        /* \"#utility.yul\":17265:17336   */\n      tag_221\n      jump\t// in\n    tag_408:\n        /* \"#utility.yul\":17258:17336   */\n      swap4\n      pop\n        /* \"#utility.yul\":17345:17410   */\n      tag_409\n        /* \"#utility.yul\":17403:17409   */\n      dup2\n        /* \"#utility.yul\":17398:17401   */\n      dup6\n        /* \"#utility.yul\":17391:17395   */\n      0x20\n        /* \"#utility.yul\":17384:17389   */\n      dup7\n        /* \"#utility.yul\":17380:17396   */\n      add\n        /* \"#utility.yul\":17345:17410   */\n      tag_186\n      jump\t// in\n    tag_409:\n        /* \"#utility.yul\":17435:17464   */\n      tag_410\n        /* \"#utility.yul\":17457:17463   */\n      dup2\n        /* \"#utility.yul\":17435:17464   */\n      tag_187\n      jump\t// in\n    tag_410:\n        /* \"#utility.yul\":17430:17433   */\n      dup5\n        /* \"#utility.yul\":17426:17465   */\n      add\n        /* \"#utility.yul\":17419:17465   */\n      swap2\n      pop\n        /* \"#utility.yul\":17186:17471   */\n      pop\n        /* \"#utility.yul\":17094:17471   */\n      swap3\n      swap2\n      pop\n      pop\n      jump\t// out\n        /* \"#utility.yul\":17477:17790   */\n    tag_43:\n        /* \"#utility.yul\":17590:17594   */\n      0x00\n        /* \"#utility.yul\":17628:17630   */\n      0x20\n        /* \"#utility.yul\":17617:17626   */\n      dup3\n        /* \"#utility.yul\":17613:17631   */\n      add\n        /* \"#utility.yul\":17605:17631   */\n      swap1\n      pop\n        /* \"#utility.yul\":17677:17686   */\n      dup2\n        /* \"#utility.yul\":17671:17675   */\n      dup2\n        /* \"#utility.yul\":17667:17687   */\n      sub\n        /* \"#utility.yul\":17663:17664   */\n      0x00\n        /* \"#utility.yul\":17652:17661   */\n      dup4\n        /* \"#utility.yul\":17648:17665   */\n      add\n        /* \"#utility.yul\":17641:17688   */\n      mstore\n        /* \"#utility.yul\":17705:17783   */\n      tag_412\n        /* \"#utility.yul\":17778:17782   */\n      dup2\n        /* \"#utility.yul\":17769:17775   */\n      dup5\n        /* \"#utility.yul\":17705:17783   */\n      tag_222\n      jump\t// in\n    tag_412:\n        /* \"#utility.yul\":17697:17783   */\n      swap1\n      pop\n        /* \"#utility.yul\":17477:17790   */\n      swap3\n      swap2\n      pop\n      pop\n      jump\t// out\n        /* \"#utility.yul\":17796:18470   */\n    tag_46:\n        /* \"#utility.yul\":17876:17882   */\n      0x00\n        /* \"#utility.yul\":17884:17890   */\n      dup1\n        /* \"#utility.yul\":17892:17898   */\n      0x00\n        /* \"#utility.yul\":17941:17943   */\n      0x40\n        /* \"#utility.yul\":17929:17938   */\n      dup5\n        /* \"#utility.yul\":17920:17927   */\n      dup7\n        /* \"#utility.yul\":17916:17939   */\n      sub\n        /* \"#utility.yul\":17912:17944   */\n      slt\n        /* \"#utility.yul\":17909:18028   */\n      iszero\n      tag_414\n      jumpi\n        /* \"#utility.yul\":17947:18026   */\n      tag_415\n      tag_172\n      jump\t// in\n    tag_415:\n        /* \"#utility.yul\":17909:18028   */\n    tag_414:\n        /* \"#utility.yul\":18067:18068   */\n      0x00\n        /* \"#utility.yul\":18092:18145   */\n      tag_416\n        /* \"#utility.yul\":18137:18144   */\n      dup7\n        /* \"#utility.yul\":18128:18134   */\n      dup3\n        /* \"#utility.yul\":18117:18126   */\n      dup8\n        /* \"#utility.yul\":18113:18135   */\n      add\n        /* \"#utility.yul\":18092:18145   */\n      tag_177\n      jump\t// in\n    tag_416:\n        /* \"#utility.yul\":18082:18145   */\n      swap4\n      pop\n        /* \"#utility.yul\":18038:18155   */\n      pop\n        /* \"#utility.yul\":18222:18224   */\n      0x20\n        /* \"#utility.yul\":18211:18220   */\n      dup5\n        /* \"#utility.yul\":18207:18225   */\n      add\n        /* \"#utility.yul\":18194:18226   */\n      calldataload\n        /* \"#utility.yul\":18253:18271   */\n      0xffffffffffffffff\n        /* \"#utility.yul\":18245:18251   */\n      dup2\n        /* \"#utility.yul\":18242:18272   */\n      gt\n        /* \"#utility.yul\":18239:18356   */\n      iszero\n      tag_417\n      jumpi\n        /* \"#utility.yul\":18275:18354   */\n      tag_418\n      tag_173\n      jump\t// in\n    tag_418:\n        /* \"#utility.yul\":18239:18356   */\n    tag_417:\n        /* \"#utility.yul\":18388:18453   */\n      tag_419\n        /* \"#utility.yul\":18445:18452   */\n      dup7\n        /* \"#utility.yul\":18436:18442   */\n      dup3\n        /* \"#utility.yul\":18425:18434   */\n      dup8\n        /* \"#utility.yul\":18421:18443   */\n      add\n        /* \"#utility.yul\":18388:18453   */\n      tag_196\n      jump\t// in\n    tag_419:\n        /* \"#utility.yul\":18370:18453   */\n      swap3\n      pop\n      swap3\n      pop\n        /* \"#utility.yul\":18165:18463   */\n      pop\n        /* \"#utility.yul\":17796:18470   */\n      swap3\n      pop\n      swap3\n      pop\n      swap3\n      jump\t// out\n        /* \"#utility.yul\":18476:18650   */\n    tag_223:\n        /* \"#utility.yul\":18616:18642   */\n      0x63726561746520616e206163636f6e7574206669727374210000000000000000\n        /* \"#utility.yul\":18612:18613   */\n      0x00\n        /* \"#utility.yul\":18604:18610   */\n      dup3\n        /* \"#utility.yul\":18600:18614   */\n      add\n        /* \"#utility.yul\":18593:18643   */\n      mstore\n        /* \"#utility.yul\":18476:18650   */\n      pop\n      jump\t// out\n        /* \"#utility.yul\":18656:19022   */\n    tag_224:\n        /* \"#utility.yul\":18798:18801   */\n      0x00\n        /* \"#utility.yul\":18819:18886   */\n      tag_422\n        /* \"#utility.yul\":18883:18885   */\n      0x18\n        /* \"#utility.yul\":18878:18881   */\n      dup4\n        /* \"#utility.yul\":18819:18886   */\n      tag_221\n      jump\t// in\n    tag_422:\n        /* \"#utility.yul\":18812:18886   */\n      swap2\n      pop\n        /* \"#utility.yul\":18895:18988   */\n      tag_423\n        /* \"#utility.yul\":18984:18987   */\n      dup3\n        /* \"#utility.yul\":18895:18988   */\n      tag_223\n      jump\t// in\n    tag_423:\n        /* \"#utility.yul\":19013:19015   */\n      0x20\n        /* \"#utility.yul\":19008:19011   */\n      dup3\n        /* \"#utility.yul\":19004:19016   */\n      add\n        /* \"#utility.yul\":18997:19016   */\n      swap1\n      pop\n        /* \"#utility.yul\":18656:19022   */\n      swap2\n      swap1\n      pop\n      jump\t// out\n        /* \"#utility.yul\":19028:19447   */\n    tag_52:\n        /* \"#utility.yul\":19194:19198   */\n      0x00\n        /* \"#utility.yul\":19232:19234   */\n      0x20\n        /* \"#utility.yul\":19221:19230   */\n      dup3\n        /* \"#utility.yul\":19217:19235   */\n      add\n        /* \"#utility.yul\":19209:19235   */\n      swap1\n      pop\n        /* \"#utility.yul\":19281:19290   */\n      dup2\n        /* \"#utility.yul\":19275:19279   */\n      dup2\n        /* \"#utility.yul\":19271:19291   */\n      sub\n        /* \"#utility.yul\":19267:19268   */\n      0x00\n        /* \"#utility.yul\":19256:19265   */\n      dup4\n        /* \"#utility.yul\":19252:19269   */\n      add\n        /* \"#utility.yul\":19245:19292   */\n      mstore\n        /* \"#utility.yul\":19309:19440   */\n      tag_425\n        /* \"#utility.yul\":19435:19439   */\n      dup2\n        /* \"#utility.yul\":19309:19440   */\n      tag_224\n      jump\t// in\n    tag_425:\n        /* \"#utility.yul\":19301:19440   */\n      swap1\n      pop\n        /* \"#utility.yul\":19028:19447   */\n      swap2\n      swap1\n      pop\n      jump\t// out\n        /* \"#utility.yul\":19453:19618   */\n    tag_225:\n        /* \"#utility.yul\":19593:19610   */\n      0x75736572206e6f7420666f756e64210000000000000000000000000000000000\n        /* \"#utility.yul\":19589:19590   */\n      0x00\n        /* \"#utility.yul\":19581:19587   */\n      dup3\n        /* \"#utility.yul\":19577:19591   */\n      add\n        /* \"#utility.yul\":19570:19611   */\n      mstore\n        /* \"#utility.yul\":19453:19618   */\n      pop\n      jump\t// out\n        /* \"#utility.yul\":19624:19990   */\n    tag_226:\n        /* \"#utility.yul\":19766:19769   */\n      0x00\n        /* \"#utility.yul\":19787:19854   */\n      tag_428\n        /* \"#utility.yul\":19851:19853   */\n      0x0f\n        /* \"#utility.yul\":19846:19849   */\n      dup4\n        /* \"#utility.yul\":19787:19854   */\n      tag_221\n      jump\t// in\n    tag_428:\n        /* \"#utility.yul\":19780:19854   */\n      swap2\n      pop\n        /* \"#utility.yul\":19863:19956   */\n      tag_429\n        /* \"#utility.yul\":19952:19955   */\n      dup3\n        /* \"#utility.yul\":19863:19956   */\n      tag_225\n      jump\t// in\n    tag_429:\n        /* \"#utility.yul\":19981:19983   */\n      0x20\n        /* \"#utility.yul\":19976:19979   */\n      dup3\n        /* \"#utility.yul\":19972:19984   */\n      add\n        /* \"#utility.yul\":19965:19984   */\n      swap1\n      pop\n        /* \"#utility.yul\":19624:19990   */\n      swap2\n      swap1\n      pop\n      jump\t// out\n        /* \"#utility.yul\":19996:20415   */\n    tag_56:\n        /* \"#utility.yul\":20162:20166   */\n      0x00\n        /* \"#utility.yul\":20200:20202   */\n      0x20\n        /* \"#utility.yul\":20189:20198   */\n      dup3\n        /* \"#utility.yul\":20185:20203   */\n      add\n        /* \"#utility.yul\":20177:20203   */\n      swap1\n      pop\n        /* \"#utility.yul\":20249:20258   */\n      dup2\n        /* \"#utility.yul\":20243:20247   */\n      dup2\n        /* \"#utility.yul\":20239:20259   */\n      sub\n        /* \"#utility.yul\":20235:20236   */\n      0x00\n        /* \"#utility.yul\":20224:20233   */\n      dup4\n        /* \"#utility.yul\":20220:20237   */\n      add\n        /* \"#utility.yul\":20213:20260   */\n      mstore\n        /* \"#utility.yul\":20277:20408   */\n      tag_431\n        /* \"#utility.yul\":20403:20407   */\n      dup2\n        /* \"#utility.yul\":20277:20408   */\n      tag_226\n      jump\t// in\n    tag_431:\n        /* \"#utility.yul\":20269:20408   */\n      swap1\n      pop\n        /* \"#utility.yul\":19996:20415   */\n      swap2\n      swap1\n      pop\n      jump\t// out\n        /* \"#utility.yul\":20421:20587   */\n    tag_227:\n        /* \"#utility.yul\":20561:20579   */\n      0x616c726561647920667269656e64732100000000000000000000000000000000\n        /* \"#utility.yul\":20557:20558   */\n      0x00\n        /* \"#utility.yul\":20549:20555   */\n      dup3\n        /* \"#utility.yul\":20545:20559   */\n      add\n        /* \"#utility.yul\":20538:20580   */\n      mstore\n        /* \"#utility.yul\":20421:20587   */\n      pop\n      jump\t// out\n        /* \"#utility.yul\":20593:20959   */\n    tag_228:\n        /* \"#utility.yul\":20735:20738   */\n      0x00\n        /* \"#utility.yul\":20756:20823   */\n      tag_434\n        /* \"#utility.yul\":20820:20822   */\n      0x10\n        /* \"#utility.yul\":20815:20818   */\n      dup4\n        /* \"#utility.yul\":20756:20823   */\n      tag_221\n      jump\t// in\n    tag_434:\n        /* \"#utility.yul\":20749:20823   */\n      swap2\n      pop\n        /* \"#utility.yul\":20832:20925   */\n      tag_435\n        /* \"#utility.yul\":20921:20924   */\n      dup3\n        /* \"#utility.yul\":20832:20925   */\n      tag_227\n      jump\t// in\n    tag_435:\n        /* \"#utility.yul\":20950:20952   */\n      0x20\n        /* \"#utility.yul\":20945:20948   */\n      dup3\n        /* \"#utility.yul\":20941:20953   */\n      add\n        /* \"#utility.yul\":20934:20953   */\n      swap1\n      pop\n        /* \"#utility.yul\":20593:20959   */\n      swap2\n      swap1\n      pop\n      jump\t// out\n        /* \"#utility.yul\":20965:21384   */\n    tag_61:\n        /* \"#utility.yul\":21131:21135   */\n      0x00\n        /* \"#utility.yul\":21169:21171   */\n      0x20\n        /* \"#utility.yul\":21158:21167   */\n      dup3\n        /* \"#utility.yul\":21154:21172   */\n      add\n        /* \"#utility.yul\":21146:21172   */\n      swap1\n      pop\n        /* \"#utility.yul\":21218:21227   */\n      dup2\n        /* \"#utility.yul\":21212:21216   */\n      dup2\n        /* \"#utility.yul\":21208:21228   */\n      sub\n        /* \"#utility.yul\":21204:21205   */\n      0x00\n        /* \"#utility.yul\":21193:21202   */\n      dup4\n        /* \"#utility.yul\":21189:21206   */\n      add\n        /* \"#utility.yul\":21182:21229   */\n      mstore\n        /* \"#utility.yul\":21246:21377   */\n      tag_437\n        /* \"#utility.yul\":21372:21376   */\n      dup2\n        /* \"#utility.yul\":21246:21377   */\n      tag_228\n      jump\t// in\n    tag_437:\n        /* \"#utility.yul\":21238:21377   */\n      swap1\n      pop\n        /* \"#utility.yul\":20965:21384   */\n      swap2\n      swap1\n      pop\n      jump\t// out\n        /* \"#utility.yul\":21390:21570   */\n    tag_229:\n        /* \"#utility.yul\":21438:21515   */\n      0x4e487b7100000000000000000000000000000000000000000000000000000000\n        /* \"#utility.yul\":21435:21436   */\n      0x00\n        /* \"#utility.yul\":21428:21516   */\n      mstore\n        /* \"#utility.yul\":21535:21539   */\n      0x22\n        /* \"#utility.yul\":21532:21533   */\n      0x04\n        /* \"#utility.yul\":21525:21540   */\n      mstore\n        /* \"#utility.yul\":21559:21563   */\n      0x24\n        /* \"#utility.yul\":21556:21557   */\n      0x00\n        /* \"#utility.yul\":21549:21564   */\n      revert\n        /* \"#utility.yul\":21576:21896   */\n    tag_68:\n        /* \"#utility.yul\":21620:21626   */\n      0x00\n        /* \"#utility.yul\":21657:21658   */\n      0x02\n        /* \"#utility.yul\":21651:21655   */\n      dup3\n        /* \"#utility.yul\":21647:21659   */\n      div\n        /* \"#utility.yul\":21637:21659   */\n      swap1\n      pop\n        /* \"#utility.yul\":21704:21705   */\n      0x01\n        /* \"#utility.yul\":21698:21702   */\n      dup3\n        /* \"#utility.yul\":21694:21706   */\n      and\n        /* \"#utility.yul\":21725:21743   */\n      dup1\n        /* \"#utility.yul\":21715:21796   */\n      tag_440\n      jumpi\n        /* \"#utility.yul\":21781:21785   */\n      0x7f\n        /* \"#utility.yul\":21773:21779   */\n      dup3\n        /* \"#utility.yul\":21769:21786   */\n      and\n        /* \"#utility.yul\":21759:21786   */\n      swap2\n      pop\n        /* \"#utility.yul\":21715:21796   */\n    tag_440:\n        /* \"#utility.yul\":21843:21845   */\n      0x20\n        /* \"#utility.yul\":21835:21841   */\n      dup3\n        /* \"#utility.yul\":21832:21846   */\n      lt\n        /* \"#utility.yul\":21812:21830   */\n      dup2\n        /* \"#utility.yul\":21809:21847   */\n      sub\n        /* \"#utility.yul\":21806:21890   */\n      tag_441\n      jumpi\n        /* \"#utility.yul\":21862:21880   */\n      tag_442\n      tag_229\n      jump\t// in\n    tag_442:\n        /* \"#utility.yul\":21806:21890   */\n    tag_441:\n        /* \"#utility.yul\":21627:21896   */\n      pop\n        /* \"#utility.yul\":21576:21896   */\n      swap2\n      swap1\n      pop\n      jump\t// out\n        /* \"#utility.yul\":21902:22071   */\n    tag_230:\n        /* \"#utility.yul\":22042:22063   */\n      0x5573657220616c72656164792065786973742100000000000000000000000000\n        /* \"#utility.yul\":22038:22039   */\n      0x00\n        /* \"#utility.yul\":22030:22036   */\n      dup3\n        /* \"#utility.yul\":22026:22040   */\n      add\n        /* \"#utility.yul\":22019:22064   */\n      mstore\n        /* \"#utility.yul\":21902:22071   */\n      pop\n      jump\t// out\n        /* \"#utility.yul\":22077:22443   */\n    tag_231:\n        /* \"#utility.yul\":22219:22222   */\n      0x00\n        /* \"#utility.yul\":22240:22307   */\n      tag_445\n        /* \"#utility.yul\":22304:22306   */\n      0x13\n        /* \"#utility.yul\":22299:22302   */\n      dup4\n        /* \"#utility.yul\":22240:22307   */\n      tag_221\n      jump\t// in\n    tag_445:\n        /* \"#utility.yul\":22233:22307   */\n      swap2\n      pop\n        /* \"#utility.yul\":22316:22409   */\n      tag_446\n        /* \"#utility.yul\":22405:22408   */\n      dup3\n        /* \"#utility.yul\":22316:22409   */\n      tag_230\n      jump\t// in\n    tag_446:\n        /* \"#utility.yul\":22434:22436   */\n      0x20\n        /* \"#utility.yul\":22429:22432   */\n      dup3\n        /* \"#utility.yul\":22425:22437   */\n      add\n        /* \"#utility.yul\":22418:22437   */\n      swap1\n      pop\n        /* \"#utility.yul\":22077:22443   */\n      swap2\n      swap1\n      pop\n      jump\t// out\n        /* \"#utility.yul\":22449:22868   */\n    tag_77:\n        /* \"#utility.yul\":22615:22619   */\n      0x00\n        /* \"#utility.yul\":22653:22655   */\n      0x20\n        /* \"#utility.yul\":22642:22651   */\n      dup3\n        /* \"#utility.yul\":22638:22656   */\n      add\n        /* \"#utility.yul\":22630:22656   */\n      swap1\n      pop\n        /* \"#utility.yul\":22702:22711   */\n      dup2\n        /* \"#utility.yul\":22696:22700   */\n      dup2\n        /* \"#utility.yul\":22692:22712   */\n      sub\n        /* \"#utility.yul\":22688:22689   */\n      0x00\n        /* \"#utility.yul\":22677:22686   */\n      dup4\n        /* \"#utility.yul\":22673:22690   */\n      add\n        /* \"#utility.yul\":22666:22713   */\n      mstore\n        /* \"#utility.yul\":22730:22861   */\n      tag_448\n        /* \"#utility.yul\":22856:22860   */\n      dup2\n        /* \"#utility.yul\":22730:22861   */\n      tag_231\n      jump\t// in\n    tag_448:\n        /* \"#utility.yul\":22722:22861   */\n      swap1\n      pop\n        /* \"#utility.yul\":22449:22868   */\n      swap2\n      swap1\n      pop\n      jump\t// out\n        /* \"#utility.yul\":22874:23049   */\n    tag_232:\n        /* \"#utility.yul\":23014:23041   */\n      0x557365726e616d652063616e6e6f7420626520656d7074792100000000000000\n        /* \"#utility.yul\":23010:23011   */\n      0x00\n        /* \"#utility.yul\":23002:23008   */\n      dup3\n        /* \"#utility.yul\":22998:23012   */\n      add\n        /* \"#utility.yul\":22991:23042   */\n      mstore\n        /* \"#utility.yul\":22874:23049   */\n      pop\n      jump\t// out\n        /* \"#utility.yul\":23055:23421   */\n    tag_233:\n        /* \"#utility.yul\":23197:23200   */\n      0x00\n        /* \"#utility.yul\":23218:23285   */\n      tag_451\n        /* \"#utility.yul\":23282:23284   */\n      0x19\n        /* \"#utility.yul\":23277:23280   */\n      dup4\n        /* \"#utility.yul\":23218:23285   */\n      tag_221\n      jump\t// in\n    tag_451:\n        /* \"#utility.yul\":23211:23285   */\n      swap2\n      pop\n        /* \"#utility.yul\":23294:23387   */\n      tag_452\n        /* \"#utility.yul\":23383:23386   */\n      dup3\n        /* \"#utility.yul\":23294:23387   */\n      tag_232\n      jump\t// in\n    tag_452:\n        /* \"#utility.yul\":23412:23414   */\n      0x20\n        /* \"#utility.yul\":23407:23410   */\n      dup3\n        /* \"#utility.yul\":23403:23415   */\n      add\n        /* \"#utility.yul\":23396:23415   */\n      swap1\n      pop\n        /* \"#utility.yul\":23055:23421   */\n      swap2\n      swap1\n      pop\n      jump\t// out\n        /* \"#utility.yul\":23427:23846   */\n    tag_80:\n        /* \"#utility.yul\":23593:23597   */\n      0x00\n        /* \"#utility.yul\":23631:23633   */\n      0x20\n        /* \"#utility.yul\":23620:23629   */\n      dup3\n        /* \"#utility.yul\":23616:23634   */\n      add\n        /* \"#utility.yul\":23608:23634   */\n      swap1\n      pop\n        /* \"#utility.yul\":23680:23689   */\n      dup2\n        /* \"#utility.yul\":23674:23678   */\n      dup2\n        /* \"#utility.yul\":23670:23690   */\n      sub\n        /* \"#utility.yul\":23666:23667   */\n      0x00\n        /* \"#utility.yul\":23655:23664   */\n      dup4\n        /* \"#utility.yul\":23651:23668   */\n      add\n        /* \"#utility.yul\":23644:23691   */\n      mstore\n        /* \"#utility.yul\":23708:23839   */\n      tag_454\n        /* \"#utility.yul\":23834:23838   */\n      dup2\n        /* \"#utility.yul\":23708:23839   */\n      tag_233\n      jump\t// in\n    tag_454:\n        /* \"#utility.yul\":23700:23839   */\n      swap1\n      pop\n        /* \"#utility.yul\":23427:23846   */\n      swap2\n      swap1\n      pop\n      jump\t// out\n        /* \"#utility.yul\":23852:23949   */\n    tag_234:\n        /* \"#utility.yul\":23911:23917   */\n      0x00\n        /* \"#utility.yul\":23939:23942   */\n      dup3\n        /* \"#utility.yul\":23929:23942   */\n      swap1\n      pop\n        /* \"#utility.yul\":23852:23949   */\n      swap3\n      swap2\n      pop\n      pop\n      jump\t// out\n        /* \"#utility.yul\":23955:24096   */\n    tag_235:\n        /* \"#utility.yul\":24004:24008   */\n      0x00\n        /* \"#utility.yul\":24027:24030   */\n      dup2\n        /* \"#utility.yul\":24019:24030   */\n      swap1\n      pop\n        /* \"#utility.yul\":24050:24053   */\n      dup2\n        /* \"#utility.yul\":24047:24048   */\n      0x00\n        /* \"#utility.yul\":24040:24054   */\n      mstore\n        /* \"#utility.yul\":24084:24088   */\n      0x20\n        /* \"#utility.yul\":24081:24082   */\n      0x00\n        /* \"#utility.yul\":24071:24089   */\n      keccak256\n        /* \"#utility.yul\":24063:24089   */\n      swap1\n      pop\n        /* \"#utility.yul\":23955:24096   */\n      swap2\n      swap1\n      pop\n      jump\t// out\n        /* \"#utility.yul\":24102:24195   */\n    tag_236:\n        /* \"#utility.yul\":24139:24145   */\n      0x00\n        /* \"#utility.yul\":24186:24188   */\n      0x20\n        /* \"#utility.yul\":24181:24183   */\n      0x1f\n        /* \"#utility.yul\":24174:24179   */\n      dup4\n        /* \"#utility.yul\":24170:24184   */\n      add\n        /* \"#utility.yul\":24166:24189   */\n      div\n        /* \"#utility.yul\":24156:24189   */\n      swap1\n      pop\n        /* \"#utility.yul\":24102:24195   */\n      swap2\n      swap1\n      pop\n      jump\t// out\n        /* \"#utility.yul\":24201:24308   */\n    tag_237:\n        /* \"#utility.yul\":24245:24253   */\n      0x00\n        /* \"#utility.yul\":24295:24300   */\n      dup3\n        /* \"#utility.yul\":24289:24293   */\n      dup3\n        /* \"#utility.yul\":24285:24301   */\n      shl\n        /* \"#utility.yul\":24264:24301   */\n      swap1\n      pop\n        /* \"#utility.yul\":24201:24308   */\n      swap3\n      swap2\n      pop\n      pop\n      jump\t// out\n        /* \"#utility.yul\":24314:24707   */\n    tag_238:\n        /* \"#utility.yul\":24383:24389   */\n      0x00\n        /* \"#utility.yul\":24433:24434   */\n      0x08\n        /* \"#utility.yul\":24421:24431   */\n      dup4\n        /* \"#utility.yul\":24417:24435   */\n      mul\n        /* \"#utility.yul\":24456:24553   */\n      tag_460\n        /* \"#utility.yul\":24486:24552   */\n      0xffffffffffffffffffffffffffffffffffffffffffffffffffffffffffffffff\n        /* \"#utility.yul\":24475:24484   */\n      dup3\n        /* \"#utility.yul\":24456:24553   */\n      tag_237\n      jump\t// in\n    tag_460:\n        /* \"#utility.yul\":24574:24613   */\n      tag_461\n        /* \"#utility.yul\":24604:24612   */\n      dup7\n        /* \"#utility.yul\":24593:24602   */\n      dup4\n        /* \"#utility.yul\":24574:24613   */\n      tag_237\n      jump\t// in\n    tag_461:\n        /* \"#utility.yul\":24562:24613   */\n      swap6\n      pop\n        /* \"#utility.yul\":24646:24650   */\n      dup1\n        /* \"#utility.yul\":24642:24651   */\n      not\n        /* \"#utility.yul\":24635:24640   */\n      dup5\n        /* \"#utility.yul\":24631:24652   */\n      and\n        /* \"#utility.yul\":24622:24652   */\n      swap4\n      pop\n        /* \"#utility.yul\":24695:24699   */\n      dup1\n        /* \"#utility.yul\":24685:24693   */\n      dup7\n        /* \"#utility.yul\":24681:24700   */\n      and\n        /* \"#utility.yul\":24674:24679   */\n      dup5\n        /* \"#utility.yul\":24671:24701   */\n      or\n        /* \"#utility.yul\":24661:24701   */\n      swap3\n      pop\n        /* \"#utility.yul\":24390:24707   */\n      pop\n      pop\n        /* \"#utility.yul\":24314:24707   */\n      swap4\n      swap3\n      pop\n      pop\n      pop\n      jump\t// out\n        /* \"#utility.yul\":24713:24773   */\n    tag_239:\n        /* \"#utility.yul\":24741:24744   */\n      0x00\n        /* \"#utility.yul\":24762:24767   */\n      dup2\n        /* \"#utility.yul\":24755:24767   */\n      swap1\n      pop\n        /* \"#utility.yul\":24713:24773   */\n      swap2\n      swap1\n      pop\n      jump\t// out\n        /* \"#utility.yul\":24779:24921   */\n    tag_240:\n        /* \"#utility.yul\":24829:24838   */\n      0x00\n        /* \"#utility.yul\":24862:24915   */\n      tag_464\n        /* \"#utility.yul\":24880:24914   */\n      tag_465\n        /* \"#utility.yul\":24889:24913   */\n      tag_466\n        /* \"#utility.yul\":24907:24912   */\n      dup5\n        /* \"#utility.yul\":24889:24913   */\n      tag_182\n      jump\t// in\n    tag_466:\n        /* \"#utility.yul\":24880:24914   */\n      tag_239\n      jump\t// in\n    tag_465:\n        /* \"#utility.yul\":24862:24915   */\n      tag_182\n      jump\t// in\n    tag_464:\n        /* \"#utility.yul\":24849:24915   */\n      swap1\n      pop\n        /* \"#utility.yul\":24779:24921   */\n      swap2\n      swap1\n      pop\n      jump\t// out\n        /* \"#utility.yul\":24927:25002   */\n    tag_241:\n        /* \"#utility.yul\":24970:24973   */\n      0x00\n        /* \"#utility.yul\":24991:24996   */\n      dup2\n        /* \"#utility.yul\":24984:24996   */\n      swap1\n      pop\n        /* \"#utility.yul\":24927:25002   */\n      swap2\n      swap1\n      pop\n      jump\t// out\n        /* \"#utility.yul\":25008:25277   */\n    tag_242:\n        /* \"#utility.yul\":25118:25157   */\n      tag_469\n        /* \"#utility.yul\":25149:25156   */\n      dup4\n        /* \"#utility.yul\":25118:25157   */\n      tag_240\n      jump\t// in\n    tag_469:\n        /* \"#utility.yul\":25179:25270   */\n      tag_470\n        /* \"#utility.yul\":25228:25269   */\n      tag_471\n        /* \"#utility.yul\":25252:25268   */\n      dup3\n        /* \"#utility.yul\":25228:25269   */\n      tag_241\n      jump\t// in\n    tag_471:\n        /* \"#utility.yul\":25220:25226   */\n      dup5\n        /* \"#utility.yul\":25213:25217   */\n      dup5\n        /* \"#utility.yul\":25207:25218   */\n      sload\n        /* \"#utility.yul\":25179:25270   */\n      tag_238\n      jump\t// in\n    tag_470:\n        /* \"#utility.yul\":25173:25177   */\n      dup3\n        /* \"#utility.yul\":25166:25271   */\n      sstore\n        /* \"#utility.yul\":25084:25277   */\n      pop\n        /* \"#utility.yul\":25008:25277   */\n      pop\n      pop\n      pop\n      jump\t// out\n        /* \"#utility.yul\":25283:25356   */\n    tag_243:\n        /* \"#utility.yul\":25328:25331   */\n      0x00\n        /* \"#utility.yul\":25283:25356   */\n      swap1\n      jump\t// out\n        /* \"#utility.yul\":25362:25551   */\n    tag_244:\n        /* \"#utility.yul\":25439:25471   */\n      tag_474\n      tag_243\n      jump\t// in\n    tag_474:\n        /* \"#utility.yul\":25480:25545   */\n      tag_475\n        /* \"#utility.yul\":25538:25544   */\n      dup2\n        /* \"#utility.yul\":25530:25536   */\n      dup5\n        /* \"#utility.yul\":25524:25528   */\n      dup5\n        /* \"#utility.yul\":25480:25545   */\n      tag_242\n      jump\t// in\n    tag_475:\n        /* \"#utility.yul\":25415:25551   */\n      pop\n        /* \"#utility.yul\":25362:25551   */\n      pop\n      pop\n      jump\t// out\n        /* \"#utility.yul\":25557:25743   */\n    tag_245:\n        /* \"#utility.yul\":25617:25737   */\n    tag_477:\n        /* \"#utility.yul\":25634:25637   */\n      dup2\n        /* \"#utility.yul\":25627:25632   */\n      dup2\n        /* \"#utility.yul\":25624:25638   */\n      lt\n        /* \"#utility.yul\":25617:25737   */\n      iszero\n      tag_479\n      jumpi\n        /* \"#utility.yul\":25688:25727   */\n      tag_480\n        /* \"#utility.yul\":25725:25726   */\n      0x00\n        /* \"#utility.yul\":25718:25723   */\n      dup3\n        /* \"#utility.yul\":25688:25727   */\n      tag_244\n      jump\t// in\n    tag_480:\n        /* \"#utility.yul\":25661:25662   */\n      0x01\n        /* \"#utility.yul\":25654:25659   */\n      dup2\n        /* \"#utility.yul\":25650:25663   */\n      add\n        /* \"#utility.yul\":25641:25663   */\n      swap1\n      pop\n        /* \"#utility.yul\":25617:25737   */\n      jump(tag_477)\n    tag_479:\n        /* \"#utility.yul\":25557:25743   */\n      pop\n      pop\n      jump\t// out\n        /* \"#utility.yul\":25749:26292   */\n    tag_246:\n        /* \"#utility.yul\":25850:25852   */\n      0x1f\n        /* \"#utility.yul\":25845:25848   */\n      dup3\n        /* \"#utility.yul\":25842:25853   */\n      gt\n        /* \"#utility.yul\":25839:26285   */\n      iszero\n      tag_482\n      jumpi\n        /* \"#utility.yul\":25884:25922   */\n      tag_483\n        /* \"#utility.yul\":25916:25921   */\n      dup2\n        /* \"#utility.yul\":25884:25922   */\n      tag_235\n      jump\t// in\n    tag_483:\n        /* \"#utility.yul\":25968:25997   */\n      tag_484\n        /* \"#utility.yul\":25986:25996   */\n      dup5\n        /* \"#utility.yul\":25968:25997   */\n      tag_236\n      jump\t// in\n    tag_484:\n        /* \"#utility.yul\":25958:25966   */\n      dup2\n        /* \"#utility.yul\":25954:25998   */\n      add\n        /* \"#utility.yul\":26151:26153   */\n      0x20\n        /* \"#utility.yul\":26139:26149   */\n      dup6\n        /* \"#utility.yul\":26136:26154   */\n      lt\n        /* \"#utility.yul\":26133:26182   */\n      iszero\n      tag_485\n      jumpi\n        /* \"#utility.yul\":26172:26180   */\n      dup2\n        /* \"#utility.yul\":26157:26180   */\n      swap1\n      pop\n        /* \"#utility.yul\":26133:26182   */\n    tag_485:\n        /* \"#utility.yul\":26195:26275   */\n      tag_486\n        /* \"#utility.yul\":26251:26273   */\n      tag_487\n        /* \"#utility.yul\":26269:26272   */\n      dup6\n        /* \"#utility.yul\":26251:26273   */\n      tag_236\n      jump\t// in\n    tag_487:\n        /* \"#utility.yul\":26241:26249   */\n      dup4\n        /* \"#utility.yul\":26237:26274   */\n      add\n        /* \"#utility.yul\":26224:26235   */\n      dup3\n        /* \"#utility.yul\":26195:26275   */\n      tag_245\n      jump\t// in\n    tag_486:\n        /* \"#utility.yul\":25854:26285   */\n      pop\n      pop\n        /* \"#utility.yul\":25839:26285   */\n    tag_482:\n        /* \"#utility.yul\":25749:26292   */\n      pop\n      pop\n      pop\n      jump\t// out\n        /* \"#utility.yul\":26298:26415   */\n    tag_247:\n        /* \"#utility.yul\":26352:26360   */\n      0x00\n        /* \"#utility.yul\":26402:26407   */\n      dup3\n        /* \"#utility.yul\":26396:26400   */\n      dup3\n        /* \"#utility.yul\":26392:26408   */\n      shr\n        /* \"#utility.yul\":26371:26408   */\n      swap1\n      pop\n        /* \"#utility.yul\":26298:26415   */\n      swap3\n      swap2\n      pop\n      pop\n      jump\t// out\n        /* \"#utility.yul\":26421:26590   */\n    tag_248:\n        /* \"#utility.yul\":26465:26471   */\n      0x00\n        /* \"#utility.yul\":26498:26549   */\n      tag_490\n        /* \"#utility.yul\":26546:26547   */\n      0x00\n        /* \"#utility.yul\":26542:26548   */\n      not\n        /* \"#utility.yul\":26534:26539   */\n      dup5\n        /* \"#utility.yul\":26531:26532   */\n      0x08\n        /* \"#utility.yul\":26527:26540   */\n      mul\n        /* \"#utility.yul\":26498:26549   */\n      tag_247\n      jump\t// in\n    tag_490:\n        /* \"#utility.yul\":26494:26550   */\n      not\n        /* \"#utility.yul\":26579:26583   */\n      dup1\n        /* \"#utility.yul\":26573:26577   */\n      dup4\n        /* \"#utility.yul\":26569:26584   */\n      and\n        /* \"#utility.yul\":26559:26584   */\n      swap2\n      pop\n        /* \"#utility.yul\":26472:26590   */\n      pop\n        /* \"#utility.yul\":26421:26590   */\n      swap3\n      swap2\n      pop\n      pop\n      jump\t// out\n        /* \"#utility.yul\":26595:26890   */\n    tag_249:\n        /* \"#utility.yul\":26671:26675   */\n      0x00\n        /* \"#utility.yul\":26817:26846   */\n      tag_492\n        /* \"#utility.yul\":26842:26845   */\n      dup4\n        /* \"#utility.yul\":26836:26840   */\n      dup4\n        /* \"#utility.yul\":26817:26846   */\n      tag_248\n      jump\t// in\n    tag_492:\n        /* \"#utility.yul\":26809:26846   */\n      swap2\n      pop\n        /* \"#utility.yul\":26879:26882   */\n      dup3\n        /* \"#utility.yul\":26876:26877   */\n      0x02\n        /* \"#utility.yul\":26872:26883   */\n      mul\n        /* \"#utility.yul\":26866:26870   */\n      dup3\n        /* \"#utility.yul\":26863:26884   */\n      or\n        /* \"#utility.yul\":26855:26884   */\n      swap1\n      pop\n        /* \"#utility.yul\":26595:26890   */\n      swap3\n      swap2\n      pop\n      pop\n      jump\t// out\n        /* \"#utility.yul\":26895:28298   */\n    tag_82:\n        /* \"#utility.yul\":27019:27063   */\n      tag_494\n        /* \"#utility.yul\":27059:27062   */\n      dup4\n        /* \"#utility.yul\":27054:27057   */\n      dup4\n        /* \"#utility.yul\":27019:27063   */\n      tag_234\n      jump\t// in\n    tag_494:\n        /* \"#utility.yul\":27128:27146   */\n      0xffffffffffffffff\n        /* \"#utility.yul\":27120:27126   */\n      dup2\n        /* \"#utility.yul\":27117:27147   */\n      gt\n        /* \"#utility.yul\":27114:27170   */\n      iszero\n      tag_495\n      jumpi\n        /* \"#utility.yul\":27150:27168   */\n      tag_496\n      tag_198\n      jump\t// in\n    tag_496:\n        /* \"#utility.yul\":27114:27170   */\n    tag_495:\n        /* \"#utility.yul\":27194:27232   */\n      tag_497\n        /* \"#utility.yul\":27226:27230   */\n      dup3\n        /* \"#utility.yul\":27220:27231   */\n      sload\n        /* \"#utility.yul\":27194:27232   */\n      tag_68\n      jump\t// in\n    tag_497:\n        /* \"#utility.yul\":27279:27346   */\n      tag_498\n        /* \"#utility.yul\":27339:27345   */\n      dup3\n        /* \"#utility.yul\":27331:27337   */\n      dup3\n        /* \"#utility.yul\":27325:27329   */\n      dup6\n        /* \"#utility.yul\":27279:27346   */\n      tag_246\n      jump\t// in\n    tag_498:\n        /* \"#utility.yul\":27373:27374   */\n      0x00\n        /* \"#utility.yul\":27402:27404   */\n      0x1f\n        /* \"#utility.yul\":27394:27400   */\n      dup4\n        /* \"#utility.yul\":27391:27405   */\n      gt\n        /* \"#utility.yul\":27419:27420   */\n      0x01\n        /* \"#utility.yul\":27414:28046   */\n      dup2\n      eq\n      tag_500\n      jumpi\n        /* \"#utility.yul\":28090:28091   */\n      0x00\n        /* \"#utility.yul\":28107:28113   */\n      dup5\n        /* \"#utility.yul\":28104:28188   */\n      iszero\n      tag_501\n      jumpi\n        /* \"#utility.yul\":28163:28172   */\n      dup3\n        /* \"#utility.yul\":28158:28161   */\n      dup8\n        /* \"#utility.yul\":28154:28173   */\n      add\n        /* \"#utility.yul\":28141:28174   */\n      calldataload\n        /* \"#utility.yul\":28132:28174   */\n      swap1\n      pop\n        /* \"#utility.yul\":28104:28188   */\n    tag_501:\n        /* \"#utility.yul\":28214:28281   */\n      tag_502\n        /* \"#utility.yul\":28274:28280   */\n      dup6\n        /* \"#utility.yul\":28267:28272   */\n      dup3\n        /* \"#utility.yul\":28214:28281   */\n      tag_249\n      jump\t// in\n    tag_502:\n        /* \"#utility.yul\":28208:28212   */\n      dup7\n        /* \"#utility.yul\":28201:28282   */\n      sstore\n        /* \"#utility.yul\":28063:28292   */\n      pop\n        /* \"#utility.yul\":27384:28292   */\n      jump(tag_499)\n        /* \"#utility.yul\":27414:28046   */\n    tag_500:\n        /* \"#utility.yul\":27466:27470   */\n      0x1f\n        /* \"#utility.yul\":27462:27471   */\n      not\n        /* \"#utility.yul\":27454:27460   */\n      dup5\n        /* \"#utility.yul\":27450:27472   */\n      and\n        /* \"#utility.yul\":27500:27537   */\n      tag_503\n        /* \"#utility.yul\":27532:27536   */\n      dup7\n        /* \"#utility.yul\":27500:27537   */\n      tag_235\n      jump\t// in\n    tag_503:\n        /* \"#utility.yul\":27559:27560   */\n      0x00\n        /* \"#utility.yul\":27573:27788   */\n    tag_504:\n        /* \"#utility.yul\":27587:27594   */\n      dup3\n        /* \"#utility.yul\":27584:27585   */\n      dup2\n        /* \"#utility.yul\":27581:27595   */\n      lt\n        /* \"#utility.yul\":27573:27788   */\n      iszero\n      tag_506\n      jumpi\n        /* \"#utility.yul\":27673:27682   */\n      dup5\n        /* \"#utility.yul\":27668:27671   */\n      dup10\n        /* \"#utility.yul\":27664:27683   */\n      add\n        /* \"#utility.yul\":27651:27684   */\n      calldataload\n        /* \"#utility.yul\":27643:27649   */\n      dup3\n        /* \"#utility.yul\":27636:27685   */\n      sstore\n        /* \"#utility.yul\":27724:27725   */\n      0x01\n        /* \"#utility.yul\":27716:27722   */\n      dup3\n        /* \"#utility.yul\":27712:27726   */\n      add\n        /* \"#utility.yul\":27702:27726   */\n      swap2\n      pop\n        /* \"#utility.yul\":27771:27773   */\n      0x20\n        /* \"#utility.yul\":27760:27769   */\n      dup6\n        /* \"#utility.yul\":27756:27774   */\n      add\n        /* \"#utility.yul\":27743:27774   */\n      swap5\n      pop\n        /* \"#utility.yul\":27610:27614   */\n      0x20\n        /* \"#utility.yul\":27607:27608   */\n      dup2\n        /* \"#utility.yul\":27603:27615   */\n      add\n        /* \"#utility.yul\":27598:27615   */\n      swap1\n      pop\n        /* \"#utility.yul\":27573:27788   */\n      jump(tag_504)\n    tag_506:\n        /* \"#utility.yul\":27816:27822   */\n      dup7\n        /* \"#utility.yul\":27807:27814   */\n      dup4\n        /* \"#utility.yul\":27804:27823   */\n      lt\n        /* \"#utility.yul\":27801:27987   */\n      iszero\n      tag_507\n      jumpi\n        /* \"#utility.yul\":27881:27890   */\n      dup5\n        /* \"#utility.yul\":27876:27879   */\n      dup10\n        /* \"#utility.yul\":27872:27891   */\n      add\n        /* \"#utility.yul\":27859:27892   */\n      calldataload\n        /* \"#utility.yul\":27924:27972   */\n      tag_508\n        /* \"#utility.yul\":27966:27970   */\n      0x1f\n        /* \"#utility.yul\":27958:27964   */\n      dup10\n        /* \"#utility.yul\":27954:27971   */\n      and\n        /* \"#utility.yul\":27943:27952   */\n      dup3\n        /* \"#utility.yul\":27924:27972   */\n      tag_248\n      jump\t// in\n    tag_508:\n        /* \"#utility.yul\":27916:27922   */\n      dup4\n        /* \"#utility.yul\":27909:27973   */\n      sstore\n        /* \"#utility.yul\":27824:27987   */\n      pop\n        /* \"#utility.yul\":27801:27987   */\n    tag_507:\n        /* \"#utility.yul\":28033:28034   */\n      0x01\n        /* \"#utility.yul\":28029:28030   */\n      0x02\n        /* \"#utility.yul\":28021:28027   */\n      dup9\n        /* \"#utility.yul\":28017:28031   */\n      mul\n        /* \"#utility.yul\":28013:28035   */\n      add\n        /* \"#utility.yul\":28007:28011   */\n      dup9\n        /* \"#utility.yul\":28000:28036   */\n      sstore\n        /* \"#utility.yul\":27421:28046   */\n      pop\n      pop\n      pop\n        /* \"#utility.yul\":27384:28292   */\n    tag_499:\n      pop\n        /* \"#utility.yul\":26994:28298   */\n      pop\n      pop\n      pop\n        /* \"#utility.yul\":26895:28298   */\n      pop\n      pop\n      pop\n      jump\t// out\n        /* \"#utility.yul\":28304:29699   */\n    tag_85:\n        /* \"#utility.yul\":28421:28458   */\n      tag_510\n        /* \"#utility.yul\":28454:28457   */\n      dup3\n        /* \"#utility.yul\":28421:28458   */\n      tag_184\n      jump\t// in\n    tag_510:\n        /* \"#utility.yul\":28523:28541   */\n      0xffffffffffffffff\n        /* \"#utility.yul\":28515:28521   */\n      dup2\n        /* \"#utility.yul\":28512:28542   */\n      gt\n        /* \"#utility.yul\":28509:28565   */\n      iszero\n      tag_511\n      jumpi\n        /* \"#utility.yul\":28545:28563   */\n      tag_512\n      tag_198\n      jump\t// in\n    tag_512:\n        /* \"#utility.yul\":28509:28565   */\n    tag_511:\n        /* \"#utility.yul\":28589:28627   */\n      tag_513\n        /* \"#utility.yul\":28621:28625   */\n      dup3\n        /* \"#utility.yul\":28615:28626   */\n      sload\n        /* \"#utility.yul\":28589:28627   */\n      tag_68\n      jump\t// in\n    tag_513:\n        /* \"#utility.yul\":28674:28741   */\n      tag_514\n        /* \"#utility.yul\":28734:28740   */\n      dup3\n        /* \"#utility.yul\":28726:28732   */\n      dup3\n        /* \"#utility.yul\":28720:28724   */\n      dup6\n        /* \"#utility.yul\":28674:28741   */\n      tag_246\n      jump\t// in\n    tag_514:\n        /* \"#utility.yul\":28768:28769   */\n      0x00\n        /* \"#utility.yul\":28792:28796   */\n      0x20\n        /* \"#utility.yul\":28779:28796   */\n      swap1\n      pop\n        /* \"#utility.yul\":28824:28826   */\n      0x1f\n        /* \"#utility.yul\":28816:28822   */\n      dup4\n        /* \"#utility.yul\":28813:28827   */\n      gt\n        /* \"#utility.yul\":28841:28842   */\n      0x01\n        /* \"#utility.yul\":28836:29454   */\n      dup2\n      eq\n      tag_516\n      jumpi\n        /* \"#utility.yul\":29498:29499   */\n      0x00\n        /* \"#utility.yul\":29515:29521   */\n      dup5\n        /* \"#utility.yul\":29512:29589   */\n      iszero\n      tag_517\n      jumpi\n        /* \"#utility.yul\":29564:29573   */\n      dup3\n        /* \"#utility.yul\":29559:29562   */\n      dup8\n        /* \"#utility.yul\":29555:29574   */\n      add\n        /* \"#utility.yul\":29549:29575   */\n      mload\n        /* \"#utility.yul\":29540:29575   */\n      swap1\n      pop\n        /* \"#utility.yul\":29512:29589   */\n    tag_517:\n        /* \"#utility.yul\":29615:29682   */\n      tag_518\n        /* \"#utility.yul\":29675:29681   */\n      dup6\n        /* \"#utility.yul\":29668:29673   */\n      dup3\n        /* \"#utility.yul\":29615:29682   */\n      tag_249\n      jump\t// in\n    tag_518:\n        /* \"#utility.yul\":29609:29613   */\n      dup7\n        /* \"#utility.yul\":29602:29683   */\n      sstore\n        /* \"#utility.yul\":29471:29693   */\n      pop\n        /* \"#utility.yul\":28806:29693   */\n      jump(tag_515)\n        /* \"#utility.yul\":28836:29454   */\n    tag_516:\n        /* \"#utility.yul\":28888:28892   */\n      0x1f\n        /* \"#utility.yul\":28884:28893   */\n      not\n        /* \"#utility.yul\":28876:28882   */\n      dup5\n        /* \"#utility.yul\":28872:28894   */\n      and\n        /* \"#utility.yul\":28922:28959   */\n      tag_519\n        /* \"#utility.yul\":28954:28958   */\n      dup7\n        /* \"#utility.yul\":28922:28959   */\n      tag_235\n      jump\t// in\n    tag_519:\n        /* \"#utility.yul\":28981:28982   */\n      0x00\n        /* \"#utility.yul\":28995:29203   */\n    tag_520:\n        /* \"#utility.yul\":29009:29016   */\n      dup3\n        /* \"#utility.yul\":29006:29007   */\n      dup2\n        /* \"#utility.yul\":29003:29017   */\n      lt\n        /* \"#utility.yul\":28995:29203   */\n      iszero\n      tag_522\n      jumpi\n        /* \"#utility.yul\":29088:29097   */\n      dup5\n        /* \"#utility.yul\":29083:29086   */\n      dup10\n        /* \"#utility.yul\":29079:29098   */\n      add\n        /* \"#utility.yul\":29073:29099   */\n      mload\n        /* \"#utility.yul\":29065:29071   */\n      dup3\n        /* \"#utility.yul\":29058:29100   */\n      sstore\n        /* \"#utility.yul\":29139:29140   */\n      0x01\n        /* \"#utility.yul\":29131:29137   */\n      dup3\n        /* \"#utility.yul\":29127:29141   */\n      add\n        /* \"#utility.yul\":29117:29141   */\n      swap2\n      pop\n        /* \"#utility.yul\":29186:29188   */\n      0x20\n        /* \"#utility.yul\":29175:29184   */\n      dup6\n        /* \"#utility.yul\":29171:29189   */\n      add\n        /* \"#utility.yul\":29158:29189   */\n      swap5\n      pop\n        /* \"#utility.yul\":29032:29036   */\n      0x20\n        /* \"#utility.yul\":29029:29030   */\n      dup2\n        /* \"#utility.yul\":29025:29037   */\n      add\n        /* \"#utility.yul\":29020:29037   */\n      swap1\n      pop\n        /* \"#utility.yul\":28995:29203   */\n      jump(tag_520)\n    tag_522:\n        /* \"#utility.yul\":29231:29237   */\n      dup7\n        /* \"#utility.yul\":29222:29229   */\n      dup4\n        /* \"#utility.yul\":29219:29238   */\n      lt\n        /* \"#utility.yul\":29216:29395   */\n      iszero\n      tag_523\n      jumpi\n        /* \"#utility.yul\":29289:29298   */\n      dup5\n        /* \"#utility.yul\":29284:29287   */\n      dup10\n        /* \"#utility.yul\":29280:29299   */\n      add\n        /* \"#utility.yul\":29274:29300   */\n      mload\n        /* \"#utility.yul\":29332:29380   */\n      tag_524\n        /* \"#utility.yul\":29374:29378   */\n      0x1f\n        /* \"#utility.yul\":29366:29372   */\n      dup10\n        /* \"#utility.yul\":29362:29379   */\n      and\n        /* \"#utility.yul\":29351:29360   */\n      dup3\n        /* \"#utility.yul\":29332:29380   */\n      tag_248\n      jump\t// in\n    tag_524:\n        /* \"#utility.yul\":29324:29330   */\n      dup4\n        /* \"#utility.yul\":29317:29381   */\n      sstore\n        /* \"#utility.yul\":29239:29395   */\n      pop\n        /* \"#utility.yul\":29216:29395   */\n    tag_523:\n        /* \"#utility.yul\":29441:29442   */\n      0x01\n        /* \"#utility.yul\":29437:29438   */\n      0x02\n        /* \"#utility.yul\":29429:29435   */\n      dup9\n        /* \"#utility.yul\":29425:29439   */\n      mul\n        /* \"#utility.yul\":29421:29443   */\n      add\n        /* \"#utility.yul\":29415:29419   */\n      dup9\n        /* \"#utility.yul\":29408:29444   */\n      sstore\n        /* \"#utility.yul\":28843:29454   */\n      pop\n      pop\n      pop\n        /* \"#utility.yul\":28806:29693   */\n    tag_515:\n      pop\n        /* \"#utility.yul\":28396:29699   */\n      pop\n      pop\n      pop\n        /* \"#utility.yul\":28304:29699   */\n      pop\n      pop\n      jump\t// out\n        /* \"#utility.yul\":29705:29879   */\n    tag_250:\n        /* \"#utility.yul\":29845:29871   */\n      0x63726561746520616e206163636f756e74206669727374210000000000000000\n        /* \"#utility.yul\":29841:29842   */\n      0x00\n        /* \"#utility.yul\":29833:29839   */\n      dup3\n        /* \"#utility.yul\":29829:29843   */\n      add\n        /* \"#utility.yul\":29822:29872   */\n      mstore\n        /* \"#utility.yul\":29705:29879   */\n      pop\n      jump\t// out\n        /* \"#utility.yul\":29885:30251   */\n    tag_251:\n        /* \"#utility.yul\":30027:30030   */\n      0x00\n        /* \"#utility.yul\":30048:30115   */\n      tag_527\n        /* \"#utility.yul\":30112:30114   */\n      0x18\n        /* \"#utility.yul\":30107:30110   */\n      dup4\n        /* \"#utility.yul\":30048:30115   */\n      tag_221\n      jump\t// in\n    tag_527:\n        /* \"#utility.yul\":30041:30115   */\n      swap2\n      pop\n        /* \"#utility.yul\":30124:30217   */\n      tag_528\n        /* \"#utility.yul\":30213:30216   */\n      dup3\n        /* \"#utility.yul\":30124:30217   */\n      tag_250\n      jump\t// in\n    tag_528:\n        /* \"#utility.yul\":30242:30244   */\n      0x20\n        /* \"#utility.yul\":30237:30240   */\n      dup3\n        /* \"#utility.yul\":30233:30245   */\n      add\n        /* \"#utility.yul\":30226:30245   */\n      swap1\n      pop\n        /* \"#utility.yul\":29885:30251   */\n      swap2\n      swap1\n      pop\n      jump\t// out\n        /* \"#utility.yul\":30257:30676   */\n    tag_137:\n        /* \"#utility.yul\":30423:30427   */\n      0x00\n        /* \"#utility.yul\":30461:30463   */\n      0x20\n        /* \"#utility.yul\":30450:30459   */\n      dup3\n        /* \"#utility.yul\":30446:30464   */\n      add\n        /* \"#utility.yul\":30438:30464   */\n      swap1\n      pop\n        /* \"#utility.yul\":30510:30519   */\n      dup2\n        /* \"#utility.yul\":30504:30508   */\n      dup2\n        /* \"#utility.yul\":30500:30520   */\n      sub\n        /* \"#utility.yul\":30496:30497   */\n      0x00\n        /* \"#utility.yul\":30485:30494   */\n      dup4\n        /* \"#utility.yul\":30481:30498   */\n      add\n        /* \"#utility.yul\":30474:30521   */\n      mstore\n        /* \"#utility.yul\":30538:30669   */\n      tag_530\n        /* \"#utility.yul\":30664:30668   */\n      dup2\n        /* \"#utility.yul\":30538:30669   */\n      tag_251\n      jump\t// in\n    tag_530:\n        /* \"#utility.yul\":30530:30669   */\n      swap1\n      pop\n        /* \"#utility.yul\":30257:30676   */\n      swap2\n      swap1\n      pop\n      jump\t// out\n        /* \"#utility.yul\":30682:30850   */\n    tag_252:\n        /* \"#utility.yul\":30822:30842   */\n      0x596f75277265206e6f7420667269656e64730000000000000000000000000000\n        /* \"#utility.yul\":30818:30819   */\n      0x00\n        /* \"#utility.yul\":30810:30816   */\n      dup3\n        /* \"#utility.yul\":30806:30820   */\n      add\n        /* \"#utility.yul\":30799:30843   */\n      mstore\n        /* \"#utility.yul\":30682:30850   */\n      pop\n      jump\t// out\n        /* \"#utility.yul\":30856:31222   */\n    tag_253:\n        /* \"#utility.yul\":30998:31001   */\n      0x00\n        /* \"#utility.yul\":31019:31086   */\n      tag_533\n        /* \"#utility.yul\":31083:31085   */\n      0x12\n        /* \"#utility.yul\":31078:31081   */\n      dup4\n        /* \"#utility.yul\":31019:31086   */\n      tag_221\n      jump\t// in\n    tag_533:\n        /* \"#utility.yul\":31012:31086   */\n      swap2\n      pop\n        /* \"#utility.yul\":31095:31188   */\n      tag_534\n        /* \"#utility.yul\":31184:31187   */\n      dup3\n        /* \"#utility.yul\":31095:31188   */\n      tag_252\n      jump\t// in\n    tag_534:\n        /* \"#utility.yul\":31213:31215   */\n      0x20\n        /* \"#utility.yul\":31208:31211   */\n      dup3\n        /* \"#utility.yul\":31204:31216   */\n      add\n        /* \"#utility.yul\":31197:31216   */\n      swap1\n      pop\n        /* \"#utility.yul\":30856:31222   */\n      swap2\n      swap1\n      pop\n      jump\t// out\n        /* \"#utility.yul\":31228:31647   */\n    tag_144:\n        /* \"#utility.yul\":31394:31398   */\n      0x00\n        /* \"#utility.yul\":31432:31434   */\n      0x20\n        /* \"#utility.yul\":31421:31430   */\n      dup3\n        /* \"#utility.yul\":31417:31435   */\n      add\n        /* \"#utility.yul\":31409:31435   */\n      swap1\n      pop\n        /* \"#utility.yul\":31481:31490   */\n      dup2\n        /* \"#utility.yul\":31475:31479   */\n      dup2\n        /* \"#utility.yul\":31471:31491   */\n      sub\n        /* \"#utility.yul\":31467:31468   */\n      0x00\n        /* \"#utility.yul\":31456:31465   */\n      dup4\n        /* \"#utility.yul\":31452:31469   */\n      add\n        /* \"#utility.yul\":31445:31492   */\n      mstore\n        /* \"#utility.yul\":31509:31640   */\n      tag_536\n        /* \"#utility.yul\":31635:31639   */\n      dup2\n        /* \"#utility.yul\":31509:31640   */\n      tag_253\n      jump\t// in\n    tag_536:\n        /* \"#utility.yul\":31501:31640   */\n      swap1\n      pop\n        /* \"#utility.yul\":31228:31647   */\n      swap2\n      swap1\n      pop\n      jump\t// out\n        /* \"#utility.yul\":31653:31833   */\n    tag_155:\n        /* \"#utility.yul\":31701:31778   */\n      0x4e487b7100000000000000000000000000000000000000000000000000000000\n        /* \"#utility.yul\":31698:31699   */\n      0x00\n        /* \"#utility.yul\":31691:31779   */\n      mstore\n        /* \"#utility.yul\":31798:31802   */\n      0x32\n        /* \"#utility.yul\":31795:31796   */\n      0x04\n        /* \"#utility.yul\":31788:31803   */\n      mstore\n        /* \"#utility.yul\":31822:31826   */\n      0x24\n        /* \"#utility.yul\":31819:31820   */\n      0x00\n        /* \"#utility.yul\":31812:31827   */\n      revert\n        /* \"#utility.yul\":31839:32019   */\n    tag_254:\n        /* \"#utility.yul\":31887:31964   */\n      0x4e487b7100000000000000000000000000000000000000000000000000000000\n        /* \"#utility.yul\":31884:31885   */\n      0x00\n        /* \"#utility.yul\":31877:31965   */\n      mstore\n        /* \"#utility.yul\":31984:31988   */\n      0x11\n        /* \"#utility.yul\":31981:31982   */\n      0x04\n        /* \"#utility.yul\":31974:31989   */\n      mstore\n        /* \"#utility.yul\":32008:32012   */\n      0x24\n        /* \"#utility.yul\":32005:32006   */\n      0x00\n        /* \"#utility.yul\":31998:32013   */\n      revert\n        /* \"#utility.yul\":32025:32258   */\n    tag_159:\n        /* \"#utility.yul\":32064:32067   */\n      0x00\n        /* \"#utility.yul\":32087:32111   */\n      tag_540\n        /* \"#utility.yul\":32105:32110   */\n      dup3\n        /* \"#utility.yul\":32087:32111   */\n      tag_182\n      jump\t// in\n    tag_540:\n        /* \"#utility.yul\":32078:32111   */\n      swap2\n      pop\n        /* \"#utility.yul\":32133:32199   */\n      0xffffffffffffffffffffffffffffffffffffffffffffffffffffffffffffffff\n        /* \"#utility.yul\":32126:32131   */\n      dup3\n        /* \"#utility.yul\":32123:32200   */\n      sub\n        /* \"#utility.yul\":32120:32223   */\n      tag_541\n      jumpi\n        /* \"#utility.yul\":32203:32221   */\n      tag_542\n      tag_254\n      jump\t// in\n    tag_542:\n        /* \"#utility.yul\":32120:32223   */\n    tag_541:\n        /* \"#utility.yul\":32250:32251   */\n      0x01\n        /* \"#utility.yul\":32243:32248   */\n      dup3\n        /* \"#utility.yul\":32239:32252   */\n      add\n        /* \"#utility.yul\":32232:32252   */\n      swap1\n      pop\n        /* \"#utility.yul\":32025:32258   */\n      swap2\n      swap1\n      pop\n      jump\t// out\n        /* \"#utility.yul\":32264:32358   */\n    tag_255:\n        /* \"#utility.yul\":32297:32305   */\n      0x00\n        /* \"#utility.yul\":32345:32350   */\n      dup2\n        /* \"#utility.yul\":32341:32343   */\n      0x60\n        /* \"#utility.yul\":32337:32351   */\n      shl\n        /* \"#utility.yul\":32316:32351   */\n      swap1\n      pop\n        /* \"#utility.yul\":32264:32358   */\n      swap2\n      swap1\n      pop\n      jump\t// out\n        /* \"#utility.yul\":32364:32458   */\n    tag_256:\n        /* \"#utility.yul\":32403:32410   */\n      0x00\n        /* \"#utility.yul\":32432:32452   */\n      tag_545\n        /* \"#utility.yul\":32446:32451   */\n      dup3\n        /* \"#utility.yul\":32432:32452   */\n      tag_255\n      jump\t// in\n    tag_545:\n        /* \"#utility.yul\":32421:32452   */\n      swap1\n      pop\n        /* \"#utility.yul\":32364:32458   */\n      swap2\n      swap1\n      pop\n      jump\t// out\n        /* \"#utility.yul\":32464:32564   */\n    tag_257:\n        /* \"#utility.yul\":32503:32510   */\n      0x00\n        /* \"#utility.yul\":32532:32558   */\n      tag_547\n        /* \"#utility.yul\":32552:32557   */\n      dup3\n        /* \"#utility.yul\":32532:32558   */\n      tag_256\n      jump\t// in\n    tag_547:\n        /* \"#utility.yul\":32521:32558   */\n      swap1\n      pop\n        /* \"#utility.yul\":32464:32564   */\n      swap2\n      swap1\n      pop\n      jump\t// out\n        /* \"#utility.yul\":32570:32727   */\n    tag_258:\n        /* \"#utility.yul\":32675:32720   */\n      tag_549\n        /* \"#utility.yul\":32695:32719   */\n      tag_550\n        /* \"#utility.yul\":32713:32718   */\n      dup3\n        /* \"#utility.yul\":32695:32719   */\n      tag_175\n      jump\t// in\n    tag_550:\n        /* \"#utility.yul\":32675:32720   */\n      tag_257\n      jump\t// in\n    tag_549:\n        /* \"#utility.yul\":32670:32673   */\n      dup3\n        /* \"#utility.yul\":32663:32721   */\n      mstore\n        /* \"#utility.yul\":32570:32727   */\n      pop\n      pop\n      jump\t// out\n        /* \"#utility.yul\":32733:33130   */\n    tag_163:\n        /* \"#utility.yul\":32873:32876   */\n      0x00\n        /* \"#utility.yul\":32888:32963   */\n      tag_552\n        /* \"#utility.yul\":32959:32962   */\n      dup3\n        /* \"#utility.yul\":32950:32956   */\n      dup6\n        /* \"#utility.yul\":32888:32963   */\n      tag_258\n      jump\t// in\n    tag_552:\n        /* \"#utility.yul\":32988:32990   */\n      0x14\n        /* \"#utility.yul\":32983:32986   */\n      dup3\n        /* \"#utility.yul\":32979:32991   */\n      add\n        /* \"#utility.yul\":32972:32991   */\n      swap2\n      pop\n        /* \"#utility.yul\":33001:33076   */\n      tag_553\n        /* \"#utility.yul\":33072:33075   */\n      dup3\n        /* \"#utility.yul\":33063:33069   */\n      dup5\n        /* \"#utility.yul\":33001:33076   */\n      tag_258\n      jump\t// in\n    tag_553:\n        /* \"#utility.yul\":33101:33103   */\n      0x14\n        /* \"#utility.yul\":33096:33099   */\n      dup3\n        /* \"#utility.yul\":33092:33104   */\n      add\n        /* \"#utility.yul\":33085:33104   */\n      swap2\n      pop\n        /* \"#utility.yul\":33121:33124   */\n      dup2\n        /* \"#utility.yul\":33114:33124   */\n      swap1\n      pop\n        /* \"#utility.yul\":32733:33130   */\n      swap4\n      swap3\n      pop\n      pop\n      pop\n      jump\t// out\n\n    auxdata: 0xa2646970667358221220826b1f6907b69a009e5e61b5f98d64bfb4c6f4f22d1ee0477fd21641fecb293464736f6c63430008130033\n}\n",
				"bytecode": {
					"linkReferences": {},
					"object": "608060405234801561001057600080fd5b5061219e806100206000396000f3fe608060405234801561001057600080fd5b50600436106100885760003560e01c8063926bef631161005b578063926bef6314610113578063bd0f4d0d14610143578063ce43c03214610161578063de6f24bb1461019157610088565b8063255e9c111461008d578063298daf5b146100bd5780633b9f708d146100d95780634918600a146100f5575b600080fd5b6100a760048036038101906100a29190611206565b6101ad565b6040516100b491906113fd565b60405180910390f35b6100d760048036038101906100d29190611484565b6103f9565b005b6100f360048036038101906100ee9190611601565b6105d7565b005b6100fd610794565b60405161010a919061175c565b60405180910390f35b61012d60048036038101906101289190611206565b6108db565b60405161013a9190611799565b60405180910390f35b61014b610935565b60405161015891906118b3565b60405180910390f35b61017b60048036038101906101769190611206565b610abc565b604051610188919061191f565b60405180910390f35b6101ab60048036038101906101a69190611941565b610bd8565b005b60606101b8336108db565b6101f7576040517f08c379a00000000000000000000000000000000000000000000000000000000081526004016101ee906119ed565b60405180910390fd5b610200826108db565b61023f576040517f08c379a000000000000000000000000000000000000000000000000000000000815260040161023690611a59565b60405180910390fd5b6102493383610de5565b610288576040517f08c379a000000000000000000000000000000000000000000000000000000000815260040161027f90611ac5565b60405180910390fd5b60006102948333610fbe565b905060026000828152602001908152602001600020805480602002602001604051908101604052809291908181526020016000905b828210156103ed57838290600052602060002090600302016040518060600160405290816000820160009054906101000a900473ffffffffffffffffffffffffffffffffffffffff1673ffffffffffffffffffffffffffffffffffffffff1673ffffffffffffffffffffffffffffffffffffffff1681526020016001820154815260200160028201805461035c90611b14565b80601f016020809104026020016040519081016040528092919081815260200182805461038890611b14565b80156103d55780601f106103aa576101008083540402835291602001916103d5565b820191906000526020600020905b8154815290600101906020018083116103b857829003601f168201915b505050505081525050815260200190600101906102c9565b50505050915050919050565b610402336108db565b15610442576040517f08c379a000000000000000000000000000000000000000000000000000000000815260040161043990611b91565b60405180910390fd5b60008282905011610488576040517f08c379a000000000000000000000000000000000000000000000000000000000815260040161047f90611bfd565b60405180910390fd5b8181600160003373ffffffffffffffffffffffffffffffffffffffff1673ffffffffffffffffffffffffffffffffffffffff16815260200190815260200160002060000191826104d9929190611dd4565b506000604051806040016040528084848080601f016020809104026020016040519081016040528093929190818152602001838380828437600081840152601f19601f8201169050808301925050505050505081526020013373ffffffffffffffffffffffffffffffffffffffff16815250908060018154018082558091505060019003906000526020600020906002020160009091909190915060008201518160000190816105899190611ea4565b5060208201518160010160006101000a81548173ffffffffffffffffffffffffffffffffffffffff021916908373ffffffffffffffffffffffffffffffffffffffff16021790555050505050565b6105e0336108db565b61061f576040517f08c379a0000000000000000000000000000000000000000000000000000000008152600401610616906119ed565b60405180910390fd5b610628826108db565b610667576040517f08c379a000000000000000000000000000000000000000000000000000000000815260040161065e90611a59565b60405180910390fd5b6106713383610de5565b6106b0576040517f08c379a00000000000000000000000000000000000000000000000000000000081526004016106a790611ac5565b60405180910390fd5b6106bb338383611056565b6107908233600160003373ffffffffffffffffffffffffffffffffffffffff1673ffffffffffffffffffffffffffffffffffffffff168152602001908152602001600020600001805461070d90611b14565b80601f016020809104026020016040519081016040528092919081815260200182805461073990611b14565b80156107865780601f1061075b57610100808354040283529160200191610786565b820191906000526020600020905b81548152906001019060200180831161076957829003601f168201915b5050505050611056565b5050565b60606000805480602002602001604051908101604052809291908181526020016000905b828210156108d257838290600052602060002090600202016040518060400160405290816000820180546107eb90611b14565b80601f016020809104026020016040519081016040528092919081815260200182805461081790611b14565b80156108645780601f1061083957610100808354040283529160200191610864565b820191906000526020600020905b81548152906001019060200180831161084757829003601f168201915b505050505081526020016001820160009054906101000a900473ffffffffffffffffffffffffffffffffffffffff1673ffffffffffffffffffffffffffffffffffffffff1673ffffffffffffffffffffffffffffffffffffffff1681525050815260200190600101906107b8565b50505050905090565b600080600160008473ffffffffffffffffffffffffffffffffffffffff1673ffffffffffffffffffffffffffffffffffffffff168152602001908152602001600020600001805461092b90611b14565b9050119050919050565b6060600160003373ffffffffffffffffffffffffffffffffffffffff1673ffffffffffffffffffffffffffffffffffffffff168152602001908152602001600020600101805480602002602001604051908101604052809291908181526020016000905b82821015610ab357838290600052602060002090600202016040518060400160405290816000820160009054906101000a900473ffffffffffffffffffffffffffffffffffffffff1673ffffffffffffffffffffffffffffffffffffffff1673ffffffffffffffffffffffffffffffffffffffff168152602001600182018054610a2290611b14565b80601f0160208091040260200160405190810160405280929190818152602001828054610a4e90611b14565b8015610a9b5780601f10610a7057610100808354040283529160200191610a9b565b820191906000526020600020905b815481529060010190602001808311610a7e57829003601f168201915b50505050508152505081526020019060010190610999565b50505050905090565b6060610ac7826108db565b610b06576040517f08c379a0000000000000000000000000000000000000000000000000000000008152600401610afd90611a59565b60405180910390fd5b600160008373ffffffffffffffffffffffffffffffffffffffff1673ffffffffffffffffffffffffffffffffffffffff1681526020019081526020016000206000018054610b5390611b14565b80601f0160208091040260200160405190810160405280929190818152602001828054610b7f90611b14565b8015610bcc5780601f10610ba157610100808354040283529160200191610bcc565b820191906000526020600020905b815481529060010190602001808311610baf57829003601f168201915b50505050509050919050565b610be1336108db565b610c20576040517f08c379a0000000000000000000000000000000000000000000000000000000008152600401610c1790611fc2565b60405180910390fd5b610c29836108db565b610c68576040517f08c379a0000000000000000000000000000000000000000000000000000000008152600401610c5f90611a59565b60405180910390fd5b610c728333610de5565b610cb1576040517f08c379a0000000000000000000000000000000000000000000000000000000008152600401610ca89061202e565b60405180910390fd5b6000610cbd3385610fbe565b9050600060405180606001604052803373ffffffffffffffffffffffffffffffffffffffff16815260200142815260200185858080601f016020809104026020016040519081016040528093929190818152602001838380828437600081840152601f19601f8201169050808301925050505050505081525090506002600083815260200190815260200160002081908060018154018082558091505060019003906000526020600020906003020160009091909190915060008201518160000160006101000a81548173ffffffffffffffffffffffffffffffffffffffff021916908373ffffffffffffffffffffffffffffffffffffffff160217905550602082015181600101556040820151816002019081610ddb9190611ea4565b5050505050505050565b6000600160008373ffffffffffffffffffffffffffffffffffffffff1673ffffffffffffffffffffffffffffffffffffffff16815260200190815260200160002060010180549050600160008573ffffffffffffffffffffffffffffffffffffffff1673ffffffffffffffffffffffffffffffffffffffff168152602001908152602001600020600101805490501115610e86576000839050829350809250505b6000600160008573ffffffffffffffffffffffffffffffffffffffff1673ffffffffffffffffffffffffffffffffffffffff16815260200190815260200160002060010180549050905060005b81811015610fb1578373ffffffffffffffffffffffffffffffffffffffff16600160008773ffffffffffffffffffffffffffffffffffffffff1673ffffffffffffffffffffffffffffffffffffffff1681526020019081526020016000206001018281548110610f4657610f4561204e565b5b906000526020600020906002020160000160009054906101000a900473ffffffffffffffffffffffffffffffffffffffff1673ffffffffffffffffffffffffffffffffffffffff1603610f9e57600192505050610fb8565b8080610fa9906120ac565b915050610ed3565b5060009150505b92915050565b60008173ffffffffffffffffffffffffffffffffffffffff168373ffffffffffffffffffffffffffffffffffffffff16101561102457828260405160200161100792919061213c565b604051602081830303815290604052805190602001209050611050565b818360405160200161103792919061213c565b6040516020818303038152906040528051906020012090505b92915050565b600081511161109a576040517f08c379a000000000000000000000000000000000000000000000000000000000815260040161109190611bfd565b60405180910390fd5b600160008473ffffffffffffffffffffffffffffffffffffffff1673ffffffffffffffffffffffffffffffffffffffff16815260200190815260200160002060010160405180604001604052808473ffffffffffffffffffffffffffffffffffffffff16815260200183815250908060018154018082558091505060019003906000526020600020906002020160009091909190915060008201518160000160006101000a81548173ffffffffffffffffffffffffffffffffffffffff021916908373ffffffffffffffffffffffffffffffffffffffff160217905550602082015181600101908161118c9190611ea4565b505050505050565b6000604051905090565b600080fd5b600080fd5b600073ffffffffffffffffffffffffffffffffffffffff82169050919050565b60006111d3826111a8565b9050919050565b6111e3816111c8565b81146111ee57600080fd5b50565b600081359050611200816111da565b92915050565b60006020828403121561121c5761121b61119e565b5b600061122a848285016111f1565b91505092915050565b600081519050919050565b600082825260208201905092915050565b6000819050602082019050919050565b611268816111c8565b82525050565b6000819050919050565b6112818161126e565b82525050565b600081519050919050565b600082825260208201905092915050565b60005b838110156112c15780820151818401526020810190506112a6565b60008484015250505050565b6000601f19601f8301169050919050565b60006112e982611287565b6112f38185611292565b93506113038185602086016112a3565b61130c816112cd565b840191505092915050565b600060608301600083015161132f600086018261125f565b5060208301516113426020860182611278565b506040830151848203604086015261135a82826112de565b9150508091505092915050565b60006113738383611317565b905092915050565b6000602082019050919050565b600061139382611233565b61139d818561123e565b9350836020820285016113af8561124f565b8060005b858110156113eb57848403895281516113cc8582611367565b94506113d78361137b565b925060208a019950506001810190506113b3565b50829750879550505050505092915050565b600060208201905081810360008301526114178184611388565b905092915050565b600080fd5b600080fd5b600080fd5b60008083601f8401126114445761144361141f565b5b8235905067ffffffffffffffff81111561146157611460611424565b5b60208301915083600182028301111561147d5761147c611429565b5b9250929050565b6000806020838503121561149b5761149a61119e565b5b600083013567ffffffffffffffff8111156114b9576114b86111a3565b5b6114c58582860161142e565b92509250509250929050565b600080fd5b7f4e487b7100000000000000000000000000000000000000000000000000000000600052604160045260246000fd5b61150e826112cd565b810181811067ffffffffffffffff8211171561152d5761152c6114d6565b5b80604052505050565b6000611540611194565b905061154c8282611505565b919050565b600067ffffffffffffffff82111561156c5761156b6114d6565b5b611575826112cd565b9050602081019050919050565b82818337600083830152505050565b60006115a461159f84611551565b611536565b9050828152602081018484840111156115c0576115bf6114d1565b5b6115cb848285611582565b509392505050565b600082601f8301126115e8576115e761141f565b5b81356115f8848260208601611591565b91505092915050565b600080604083850312156116185761161761119e565b5b6000611626858286016111f1565b925050602083013567ffffffffffffffff811115611647576116466111a3565b5b611653858286016115d3565b9150509250929050565b600081519050919050565b600082825260208201905092915050565b6000819050602082019050919050565b600060408301600083015184820360008601526116a682826112de565b91505060208301516116bb602086018261125f565b508091505092915050565b60006116d28383611689565b905092915050565b6000602082019050919050565b60006116f28261165d565b6116fc8185611668565b93508360208202850161170e85611679565b8060005b8581101561174a578484038952815161172b85826116c6565b9450611736836116da565b925060208a01995050600181019050611712565b50829750879550505050505092915050565b6000602082019050818103600083015261177681846116e7565b905092915050565b60008115159050919050565b6117938161177e565b82525050565b60006020820190506117ae600083018461178a565b92915050565b600081519050919050565b600082825260208201905092915050565b6000819050602082019050919050565b60006040830160008301516117f8600086018261125f565b506020830151848203602086015261181082826112de565b9150508091505092915050565b600061182983836117e0565b905092915050565b6000602082019050919050565b6000611849826117b4565b61185381856117bf565b935083602082028501611865856117d0565b8060005b858110156118a15784840389528151611882858261181d565b945061188d83611831565b925060208a01995050600181019050611869565b50829750879550505050505092915050565b600060208201905081810360008301526118cd818461183e565b905092915050565b600082825260208201905092915050565b60006118f182611287565b6118fb81856118d5565b935061190b8185602086016112a3565b611914816112cd565b840191505092915050565b6000602082019050818103600083015261193981846118e6565b905092915050565b60008060006040848603121561195a5761195961119e565b5b6000611968868287016111f1565b935050602084013567ffffffffffffffff811115611989576119886111a3565b5b6119958682870161142e565b92509250509250925092565b7f63726561746520616e206163636f6e7574206669727374210000000000000000600082015250565b60006119d76018836118d5565b91506119e2826119a1565b602082019050919050565b60006020820190508181036000830152611a06816119ca565b9050919050565b7f75736572206e6f7420666f756e64210000000000000000000000000000000000600082015250565b6000611a43600f836118d5565b9150611a4e82611a0d565b602082019050919050565b60006020820190508181036000830152611a7281611a36565b9050919050565b7f616c726561647920667269656e64732100000000000000000000000000000000600082015250565b6000611aaf6010836118d5565b9150611aba82611a79565b602082019050919050565b60006020820190508181036000830152611ade81611aa2565b9050919050565b7f4e487b7100000000000000000000000000000000000000000000000000000000600052602260045260246000fd5b60006002820490506001821680611b2c57607f821691505b602082108103611b3f57611b3e611ae5565b5b50919050565b7f5573657220616c72656164792065786973742100000000000000000000000000600082015250565b6000611b7b6013836118d5565b9150611b8682611b45565b602082019050919050565b60006020820190508181036000830152611baa81611b6e565b9050919050565b7f557365726e616d652063616e6e6f7420626520656d7074792100000000000000600082015250565b6000611be76019836118d5565b9150611bf282611bb1565b602082019050919050565b60006020820190508181036000830152611c1681611bda565b9050919050565b600082905092915050565b60008190508160005260206000209050919050565b60006020601f8301049050919050565b600082821b905092915050565b600060088302611c8a7fffffffffffffffffffffffffffffffffffffffffffffffffffffffffffffffff82611c4d565b611c948683611c4d565b95508019841693508086168417925050509392505050565b6000819050919050565b6000611cd1611ccc611cc78461126e565b611cac565b61126e565b9050919050565b6000819050919050565b611ceb83611cb6565b611cff611cf782611cd8565b848454611c5a565b825550505050565b600090565b611d14611d07565b611d1f818484611ce2565b505050565b5b81811015611d4357611d38600082611d0c565b600181019050611d25565b5050565b601f821115611d8857611d5981611c28565b611d6284611c3d565b81016020851015611d71578190505b611d85611d7d85611c3d565b830182611d24565b50505b505050565b600082821c905092915050565b6000611dab60001984600802611d8d565b1980831691505092915050565b6000611dc48383611d9a565b9150826002028217905092915050565b611dde8383611c1d565b67ffffffffffffffff811115611df757611df66114d6565b5b611e018254611b14565b611e0c828285611d47565b6000601f831160018114611e3b5760008415611e29578287013590505b611e338582611db8565b865550611e9b565b601f198416611e4986611c28565b60005b82811015611e7157848901358255600182019150602085019450602081019050611e4c565b86831015611e8e5784890135611e8a601f891682611d9a565b8355505b6001600288020188555050505b50505050505050565b611ead82611287565b67ffffffffffffffff811115611ec657611ec56114d6565b5b611ed08254611b14565b611edb828285611d47565b600060209050601f831160018114611f0e5760008415611efc578287015190505b611f068582611db8565b865550611f6e565b601f198416611f1c86611c28565b60005b82811015611f4457848901518255600182019150602085019450602081019050611f1f565b86831015611f615784890151611f5d601f891682611d9a565b8355505b6001600288020188555050505b505050505050565b7f63726561746520616e206163636f756e74206669727374210000000000000000600082015250565b6000611fac6018836118d5565b9150611fb782611f76565b602082019050919050565b60006020820190508181036000830152611fdb81611f9f565b9050919050565b7f596f75277265206e6f7420667269656e64730000000000000000000000000000600082015250565b60006120186012836118d5565b915061202382611fe2565b602082019050919050565b600060208201905081810360008301526120478161200b565b9050919050565b7f4e487b7100000000000000000000000000000000000000000000000000000000600052603260045260246000fd5b7f4e487b7100000000000000000000000000000000000000000000000000000000600052601160045260246000fd5b60006120b78261126e565b91507fffffffffffffffffffffffffffffffffffffffffffffffffffffffffffffffff82036120e9576120e861207d565b5b600182019050919050565b60008160601b9050919050565b600061210c826120f4565b9050919050565b600061211e82612101565b9050919050565b612136612131826111c8565b612113565b82525050565b60006121488285612125565b6014820191506121588284612125565b601482019150819050939250505056fea2646970667358221220826b1f6907b69a009e5e61b5f98d64bfb4c6f4f22d1ee0477fd21641fecb293464736f6c63430008130033",
					"opcodes": "PUSH1 0x80 PUSH1 0x40 MSTORE CALLVALUE DUP1 ISZERO PUSH2 0x10 JUMPI PUSH1 0x0 DUP1 REVERT JUMPDEST POP PUSH2 0x219E DUP1 PUSH2 0x20 PUSH1 0x0 CODECOPY PUSH1 0x0 RETURN INVALID PUSH1 0x80 PUSH1 0x40 MSTORE CALLVALUE DUP1 ISZERO PUSH2 0x10 JUMPI PUSH1 0x0 DUP1 REVERT JUMPDEST POP PUSH1 0x4 CALLDATASIZE LT PUSH2 0x88 JUMPI PUSH1 0x0 CALLDATALOAD PUSH1 0xE0 SHR DUP1 PUSH4 0x926BEF63 GT PUSH2 0x5B JUMPI DUP1 PUSH4 0x926BEF63 EQ PUSH2 0x113 JUMPI DUP1 PUSH4 0xBD0F4D0D EQ PUSH2 0x143 JUMPI DUP1 PUSH4 0xCE43C032 EQ PUSH2 0x161 JUMPI DUP1 PUSH4 0xDE6F24BB EQ PUSH2 0x191 JUMPI PUSH2 0x88 JUMP JUMPDEST DUP1 PUSH4 0x255E9C11 EQ PUSH2 0x8D JUMPI DUP1 PUSH4 0x298DAF5B EQ PUSH2 0xBD JUMPI DUP1 PUSH4 0x3B9F708D EQ PUSH2 0xD9 JUMPI DUP1 PUSH4 0x4918600A EQ PUSH2 0xF5 JUMPI JUMPDEST PUSH1 0x0 DUP1 REVERT JUMPDEST PUSH2 0xA7 PUSH1 0x4 DUP1 CALLDATASIZE SUB DUP2 ADD SWAP1 PUSH2 0xA2 SWAP2 SWAP1 PUSH2 0x1206 JUMP JUMPDEST PUSH2 0x1AD JUMP JUMPDEST PUSH1 0x40 MLOAD PUSH2 0xB4 SWAP2 SWAP1 PUSH2 0x13FD JUMP JUMPDEST PUSH1 0x40 MLOAD DUP1 SWAP2 SUB SWAP1 RETURN JUMPDEST PUSH2 0xD7 PUSH1 0x4 DUP1 CALLDATASIZE SUB DUP2 ADD SWAP1 PUSH2 0xD2 SWAP2 SWAP1 PUSH2 0x1484 JUMP JUMPDEST PUSH2 0x3F9 JUMP JUMPDEST STOP JUMPDEST PUSH2 0xF3 PUSH1 0x4 DUP1 CALLDATASIZE SUB DUP2 ADD SWAP1 PUSH2 0xEE SWAP2 SWAP1 PUSH2 0x1601 JUMP JUMPDEST PUSH2 0x5D7 JUMP JUMPDEST STOP JUMPDEST PUSH2 0xFD PUSH2 0x794 JUMP JUMPDEST PUSH1 0x40 MLOAD PUSH2 0x10A SWAP2 SWAP1 PUSH2 0x175C JUMP JUMPDEST PUSH1 0x40 MLOAD DUP1 SWAP2 SUB SWAP1 RETURN JUMPDEST PUSH2 0x12D PUSH1 0x4 DUP1 CALLDATASIZE SUB DUP2 ADD SWAP1 PUSH2 0x128 SWAP2 SWAP1 PUSH2 0x1206 JUMP JUMPDEST PUSH2 0x8DB JUMP JUMPDEST PUSH1 0x40 MLOAD PUSH2 0x13A SWAP2 SWAP1 PUSH2 0x1799 JUMP JUMPDEST PUSH1 0x40 MLOAD DUP1 SWAP2 SUB SWAP1 RETURN JUMPDEST PUSH2 0x14B PUSH2 0x935 JUMP JUMPDEST PUSH1 0x40 MLOAD PUSH2 0x158 SWAP2 SWAP1 PUSH2 0x18B3 JUMP JUMPDEST PUSH1 0x40 MLOAD DUP1 SWAP2 SUB SWAP1 RETURN JUMPDEST PUSH2 0x17B PUSH1 0x4 DUP1 CALLDATASIZE SUB DUP2 ADD SWAP1 PUSH2 0x176 SWAP2 SWAP1 PUSH2 0x1206 JUMP JUMPDEST PUSH2 0xABC JUMP JUMPDEST PUSH1 0x40 MLOAD PUSH2 0x188 SWAP2 SWAP1 PUSH2 0x191F JUMP JUMPDEST PUSH1 0x40 MLOAD DUP1 SWAP2 SUB SWAP1 RETURN JUMPDEST PUSH2 0x1AB PUSH1 0x4 DUP1 CALLDATASIZE SUB DUP2 ADD SWAP1 PUSH2 0x1A6 SWAP2 SWAP1 PUSH2 0x1941 JUMP JUMPDEST PUSH2 0xBD8 JUMP JUMPDEST STOP JUMPDEST PUSH1 0x60 PUSH2 0x1B8 CALLER PUSH2 0x8DB JUMP JUMPDEST PUSH2 0x1F7 JUMPI PUSH1 0x40 MLOAD PUSH32 0x8C379A000000000000000000000000000000000000000000000000000000000 DUP2 MSTORE PUSH1 0x4 ADD PUSH2 0x1EE SWAP1 PUSH2 0x19ED JUMP JUMPDEST PUSH1 0x40 MLOAD DUP1 SWAP2 SUB SWAP1 REVERT JUMPDEST PUSH2 0x200 DUP3 PUSH2 0x8DB JUMP JUMPDEST PUSH2 0x23F JUMPI PUSH1 0x40 MLOAD PUSH32 0x8C379A000000000000000000000000000000000000000000000000000000000 DUP2 MSTORE PUSH1 0x4 ADD PUSH2 0x236 SWAP1 PUSH2 0x1A59 JUMP JUMPDEST PUSH1 0x40 MLOAD DUP1 SWAP2 SUB SWAP1 REVERT JUMPDEST PUSH2 0x249 CALLER DUP4 PUSH2 0xDE5 JUMP JUMPDEST PUSH2 0x288 JUMPI PUSH1 0x40 MLOAD PUSH32 0x8C379A000000000000000000000000000000000000000000000000000000000 DUP2 MSTORE PUSH1 0x4 ADD PUSH2 0x27F SWAP1 PUSH2 0x1AC5 JUMP JUMPDEST PUSH1 0x40 MLOAD DUP1 SWAP2 SUB SWAP1 REVERT JUMPDEST PUSH1 0x0 PUSH2 0x294 DUP4 CALLER PUSH2 0xFBE JUMP JUMPDEST SWAP1 POP PUSH1 0x2 PUSH1 0x0 DUP3 DUP2 MSTORE PUSH1 0x20 ADD SWAP1 DUP2 MSTORE PUSH1 0x20 ADD PUSH1 0x0 KECCAK256 DUP1 SLOAD DUP1 PUSH1 0x20 MUL PUSH1 0x20 ADD PUSH1 0x40 MLOAD SWAP1 DUP2 ADD PUSH1 0x40 MSTORE DUP1 SWAP3 SWAP2 SWAP1 DUP2 DUP2 MSTORE PUSH1 0x20 ADD PUSH1 0x0 SWAP1 JUMPDEST DUP3 DUP3 LT ISZERO PUSH2 0x3ED JUMPI DUP4 DUP3 SWAP1 PUSH1 0x0 MSTORE PUSH1 0x20 PUSH1 0x0 KECCAK256 SWAP1 PUSH1 0x3 MUL ADD PUSH1 0x40 MLOAD DUP1 PUSH1 0x60 ADD PUSH1 0x40 MSTORE SWAP1 DUP2 PUSH1 0x0 DUP3 ADD PUSH1 0x0 SWAP1 SLOAD SWAP1 PUSH2 0x100 EXP SWAP1 DIV PUSH20 0xFFFFFFFFFFFFFFFFFFFFFFFFFFFFFFFFFFFFFFFF AND PUSH20 0xFFFFFFFFFFFFFFFFFFFFFFFFFFFFFFFFFFFFFFFF AND PUSH20 0xFFFFFFFFFFFFFFFFFFFFFFFFFFFFFFFFFFFFFFFF AND DUP2 MSTORE PUSH1 0x20 ADD PUSH1 0x1 DUP3 ADD SLOAD DUP2 MSTORE PUSH1 0x20 ADD PUSH1 0x2 DUP3 ADD DUP1 SLOAD PUSH2 0x35C SWAP1 PUSH2 0x1B14 JUMP JUMPDEST DUP1 PUSH1 0x1F ADD PUSH1 0x20 DUP1 SWAP2 DIV MUL PUSH1 0x20 ADD PUSH1 0x40 MLOAD SWAP1 DUP2 ADD PUSH1 0x40 MSTORE DUP1 SWAP3 SWAP2 SWAP1 DUP2 DUP2 MSTORE PUSH1 0x20 ADD DUP3 DUP1 SLOAD PUSH2 0x388 SWAP1 PUSH2 0x1B14 JUMP JUMPDEST DUP1 ISZERO PUSH2 0x3D5 JUMPI DUP1 PUSH1 0x1F LT PUSH2 0x3AA JUMPI PUSH2 0x100 DUP1 DUP4 SLOAD DIV MUL DUP4 MSTORE SWAP2 PUSH1 0x20 ADD SWAP2 PUSH2 0x3D5 JUMP JUMPDEST DUP3 ADD SWAP2 SWAP1 PUSH1 0x0 MSTORE PUSH1 0x20 PUSH1 0x0 KECCAK256 SWAP1 JUMPDEST DUP2 SLOAD DUP2 MSTORE SWAP1 PUSH1 0x1 ADD SWAP1 PUSH1 0x20 ADD DUP1 DUP4 GT PUSH2 0x3B8 JUMPI DUP3 SWAP1 SUB PUSH1 0x1F AND DUP3 ADD SWAP2 JUMPDEST POP POP POP POP POP DUP2 MSTORE POP POP DUP2 MSTORE PUSH1 0x20 ADD SWAP1 PUSH1 0x1 ADD SWAP1 PUSH2 0x2C9 JUMP JUMPDEST POP POP POP POP SWAP2 POP POP SWAP2 SWAP1 POP JUMP JUMPDEST PUSH2 0x402 CALLER PUSH2 0x8DB JUMP JUMPDEST ISZERO PUSH2 0x442 JUMPI PUSH1 0x40 MLOAD PUSH32 0x8C379A000000000000000000000000000000000000000000000000000000000 DUP2 MSTORE PUSH1 0x4 ADD PUSH2 0x439 SWAP1 PUSH2 0x1B91 JUMP JUMPDEST PUSH1 0x40 MLOAD DUP1 SWAP2 SUB SWAP1 REVERT JUMPDEST PUSH1 0x0 DUP3 DUP3 SWAP1 POP GT PUSH2 0x488 JUMPI PUSH1 0x40 MLOAD PUSH32 0x8C379A000000000000000000000000000000000000000000000000000000000 DUP2 MSTORE PUSH1 0x4 ADD PUSH2 0x47F SWAP1 PUSH2 0x1BFD JUMP JUMPDEST PUSH1 0x40 MLOAD DUP1 SWAP2 SUB SWAP1 REVERT JUMPDEST DUP2 DUP2 PUSH1 0x1 PUSH1 0x0 CALLER PUSH20 0xFFFFFFFFFFFFFFFFFFFFFFFFFFFFFFFFFFFFFFFF AND PUSH20 0xFFFFFFFFFFFFFFFFFFFFFFFFFFFFFFFFFFFFFFFF AND DUP2 MSTORE PUSH1 0x20 ADD SWAP1 DUP2 MSTORE PUSH1 0x20 ADD PUSH1 0x0 KECCAK256 PUSH1 0x0 ADD SWAP2 DUP3 PUSH2 0x4D9 SWAP3 SWAP2 SWAP1 PUSH2 0x1DD4 JUMP JUMPDEST POP PUSH1 0x0 PUSH1 0x40 MLOAD DUP1 PUSH1 0x40 ADD PUSH1 0x40 MSTORE DUP1 DUP5 DUP5 DUP1 DUP1 PUSH1 0x1F ADD PUSH1 0x20 DUP1 SWAP2 DIV MUL PUSH1 0x20 ADD PUSH1 0x40 MLOAD SWAP1 DUP2 ADD PUSH1 0x40 MSTORE DUP1 SWAP4 SWAP3 SWAP2 SWAP1 DUP2 DUP2 MSTORE PUSH1 0x20 ADD DUP4 DUP4 DUP1 DUP3 DUP5 CALLDATACOPY PUSH1 0x0 DUP2 DUP5 ADD MSTORE PUSH1 0x1F NOT PUSH1 0x1F DUP3 ADD AND SWAP1 POP DUP1 DUP4 ADD SWAP3 POP POP POP POP POP POP POP DUP2 MSTORE PUSH1 0x20 ADD CALLER PUSH20 0xFFFFFFFFFFFFFFFFFFFFFFFFFFFFFFFFFFFFFFFF AND DUP2 MSTORE POP SWAP1 DUP1 PUSH1 0x1 DUP2 SLOAD ADD DUP1 DUP3 SSTORE DUP1 SWAP2 POP POP PUSH1 0x1 SWAP1 SUB SWAP1 PUSH1 0x0 MSTORE PUSH1 0x20 PUSH1 0x0 KECCAK256 SWAP1 PUSH1 0x2 MUL ADD PUSH1 0x0 SWAP1 SWAP2 SWAP1 SWAP2 SWAP1 SWAP2 POP PUSH1 0x0 DUP3 ADD MLOAD DUP2 PUSH1 0x0 ADD SWAP1 DUP2 PUSH2 0x589 SWAP2 SWAP1 PUSH2 0x1EA4 JUMP JUMPDEST POP PUSH1 0x20 DUP3 ADD MLOAD DUP2 PUSH1 0x1 ADD PUSH1 0x0 PUSH2 0x100 EXP DUP2 SLOAD DUP2 PUSH20 0xFFFFFFFFFFFFFFFFFFFFFFFFFFFFFFFFFFFFFFFF MUL NOT AND SWAP1 DUP4 PUSH20 0xFFFFFFFFFFFFFFFFFFFFFFFFFFFFFFFFFFFFFFFF AND MUL OR SWAP1 SSTORE POP POP POP POP POP JUMP JUMPDEST PUSH2 0x5E0 CALLER PUSH2 0x8DB JUMP JUMPDEST PUSH2 0x61F JUMPI PUSH1 0x40 MLOAD PUSH32 0x8C379A000000000000000000000000000000000000000000000000000000000 DUP2 MSTORE PUSH1 0x4 ADD PUSH2 0x616 SWAP1 PUSH2 0x19ED JUMP JUMPDEST PUSH1 0x40 MLOAD DUP1 SWAP2 SUB SWAP1 REVERT JUMPDEST PUSH2 0x628 DUP3 PUSH2 0x8DB JUMP JUMPDEST PUSH2 0x667 JUMPI PUSH1 0x40 MLOAD PUSH32 0x8C379A000000000000000000000000000000000000000000000000000000000 DUP2 MSTORE PUSH1 0x4 ADD PUSH2 0x65E SWAP1 PUSH2 0x1A59 JUMP JUMPDEST PUSH1 0x40 MLOAD DUP1 SWAP2 SUB SWAP1 REVERT JUMPDEST PUSH2 0x671 CALLER DUP4 PUSH2 0xDE5 JUMP JUMPDEST PUSH2 0x6B0 JUMPI PUSH1 0x40 MLOAD PUSH32 0x8C379A000000000000000000000000000000000000000000000000000000000 DUP2 MSTORE PUSH1 0x4 ADD PUSH2 0x6A7 SWAP1 PUSH2 0x1AC5 JUMP JUMPDEST PUSH1 0x40 MLOAD DUP1 SWAP2 SUB SWAP1 REVERT JUMPDEST PUSH2 0x6BB CALLER DUP4 DUP4 PUSH2 0x1056 JUMP JUMPDEST PUSH2 0x790 DUP3 CALLER PUSH1 0x1 PUSH1 0x0 CALLER PUSH20 0xFFFFFFFFFFFFFFFFFFFFFFFFFFFFFFFFFFFFFFFF AND PUSH20 0xFFFFFFFFFFFFFFFFFFFFFFFFFFFFFFFFFFFFFFFF AND DUP2 MSTORE PUSH1 0x20 ADD SWAP1 DUP2 MSTORE PUSH1 0x20 ADD PUSH1 0x0 KECCAK256 PUSH1 0x0 ADD DUP1 SLOAD PUSH2 0x70D SWAP1 PUSH2 0x1B14 JUMP JUMPDEST DUP1 PUSH1 0x1F ADD PUSH1 0x20 DUP1 SWAP2 DIV MUL PUSH1 0x20 ADD PUSH1 0x40 MLOAD SWAP1 DUP2 ADD PUSH1 0x40 MSTORE DUP1 SWAP3 SWAP2 SWAP1 DUP2 DUP2 MSTORE PUSH1 0x20 ADD DUP3 DUP1 SLOAD PUSH2 0x739 SWAP1 PUSH2 0x1B14 JUMP JUMPDEST DUP1 ISZERO PUSH2 0x786 JUMPI DUP1 PUSH1 0x1F LT PUSH2 0x75B JUMPI PUSH2 0x100 DUP1 DUP4 SLOAD DIV MUL DUP4 MSTORE SWAP2 PUSH1 0x20 ADD SWAP2 PUSH2 0x786 JUMP JUMPDEST DUP3 ADD SWAP2 SWAP1 PUSH1 0x0 MSTORE PUSH1 0x20 PUSH1 0x0 KECCAK256 SWAP1 JUMPDEST DUP2 SLOAD DUP2 MSTORE SWAP1 PUSH1 0x1 ADD SWAP1 PUSH1 0x20 ADD DUP1 DUP4 GT PUSH2 0x769 JUMPI DUP3 SWAP1 SUB PUSH1 0x1F AND DUP3 ADD SWAP2 JUMPDEST POP POP POP POP POP PUSH2 0x1056 JUMP JUMPDEST POP POP JUMP JUMPDEST PUSH1 0x60 PUSH1 0x0 DUP1 SLOAD DUP1 PUSH1 0x20 MUL PUSH1 0x20 ADD PUSH1 0x40 MLOAD SWAP1 DUP2 ADD PUSH1 0x40 MSTORE DUP1 SWAP3 SWAP2 SWAP1 DUP2 DUP2 MSTORE PUSH1 0x20 ADD PUSH1 0x0 SWAP1 JUMPDEST DUP3 DUP3 LT ISZERO PUSH2 0x8D2 JUMPI DUP4 DUP3 SWAP1 PUSH1 0x0 MSTORE PUSH1 0x20 PUSH1 0x0 KECCAK256 SWAP1 PUSH1 0x2 MUL ADD PUSH1 0x40 MLOAD DUP1 PUSH1 0x40 ADD PUSH1 0x40 MSTORE SWAP1 DUP2 PUSH1 0x0 DUP3 ADD DUP1 SLOAD PUSH2 0x7EB SWAP1 PUSH2 0x1B14 JUMP JUMPDEST DUP1 PUSH1 0x1F ADD PUSH1 0x20 DUP1 SWAP2 DIV MUL PUSH1 0x20 ADD PUSH1 0x40 MLOAD SWAP1 DUP2 ADD PUSH1 0x40 MSTORE DUP1 SWAP3 SWAP2 SWAP1 DUP2 DUP2 MSTORE PUSH1 0x20 ADD DUP3 DUP1 SLOAD PUSH2 0x817 SWAP1 PUSH2 0x1B14 JUMP JUMPDEST DUP1 ISZERO PUSH2 0x864 JUMPI DUP1 PUSH1 0x1F LT PUSH2 0x839 JUMPI PUSH2 0x100 DUP1 DUP4 SLOAD DIV MUL DUP4 MSTORE SWAP2 PUSH1 0x20 ADD SWAP2 PUSH2 0x864 JUMP JUMPDEST DUP3 ADD SWAP2 SWAP1 PUSH1 0x0 MSTORE PUSH1 0x20 PUSH1 0x0 KECCAK256 SWAP1 JUMPDEST DUP2 SLOAD DUP2 MSTORE SWAP1 PUSH1 0x1 ADD SWAP1 PUSH1 0x20 ADD DUP1 DUP4 GT PUSH2 0x847 JUMPI DUP3 SWAP1 SUB PUSH1 0x1F AND DUP3 ADD SWAP2 JUMPDEST POP POP POP POP POP DUP2 MSTORE PUSH1 0x20 ADD PUSH1 0x1 DUP3 ADD PUSH1 0x0 SWAP1 SLOAD SWAP1 PUSH2 0x100 EXP SWAP1 DIV PUSH20 0xFFFFFFFFFFFFFFFFFFFFFFFFFFFFFFFFFFFFFFFF AND PUSH20 0xFFFFFFFFFFFFFFFFFFFFFFFFFFFFFFFFFFFFFFFF AND PUSH20 0xFFFFFFFFFFFFFFFFFFFFFFFFFFFFFFFFFFFFFFFF AND DUP2 MSTORE POP POP DUP2 MSTORE PUSH1 0x20 ADD SWAP1 PUSH1 0x1 ADD SWAP1 PUSH2 0x7B8 JUMP JUMPDEST POP POP POP POP SWAP1 POP SWAP1 JUMP JUMPDEST PUSH1 0x0 DUP1 PUSH1 0x1 PUSH1 0x0 DUP5 PUSH20 0xFFFFFFFFFFFFFFFFFFFFFFFFFFFFFFFFFFFFFFFF AND PUSH20 0xFFFFFFFFFFFFFFFFFFFFFFFFFFFFFFFFFFFFFFFF AND DUP2 MSTORE PUSH1 0x20 ADD SWAP1 DUP2 MSTORE PUSH1 0x20 ADD PUSH1 0x0 KECCAK256 PUSH1 0x0 ADD DUP1 SLOAD PUSH2 0x92B SWAP1 PUSH2 0x1B14 JUMP JUMPDEST SWAP1 POP GT SWAP1 POP SWAP2 SWAP1 POP JUMP JUMPDEST PUSH1 0x60 PUSH1 0x1 PUSH1 0x0 CALLER PUSH20 0xFFFFFFFFFFFFFFFFFFFFFFFFFFFFFFFFFFFFFFFF AND PUSH20 0xFFFFFFFFFFFFFFFFFFFFFFFFFFFFFFFFFFFFFFFF AND DUP2 MSTORE PUSH1 0x20 ADD SWAP1 DUP2 MSTORE PUSH1 0x20 ADD PUSH1 0x0 KECCAK256 PUSH1 0x1 ADD DUP1 SLOAD DUP1 PUSH1 0x20 MUL PUSH1 0x20 ADD PUSH1 0x40 MLOAD SWAP1 DUP2 ADD PUSH1 0x40 MSTORE DUP1 SWAP3 SWAP2 SWAP1 DUP2 DUP2 MSTORE PUSH1 0x20 ADD PUSH1 0x0 SWAP1 JUMPDEST DUP3 DUP3 LT ISZERO PUSH2 0xAB3 JUMPI DUP4 DUP3 SWAP1 PUSH1 0x0 MSTORE PUSH1 0x20 PUSH1 0x0 KECCAK256 SWAP1 PUSH1 0x2 MUL ADD PUSH1 0x40 MLOAD DUP1 PUSH1 0x40 ADD PUSH1 0x40 MSTORE SWAP1 DUP2 PUSH1 0x0 DUP3 ADD PUSH1 0x0 SWAP1 SLOAD SWAP1 PUSH2 0x100 EXP SWAP1 DIV PUSH20 0xFFFFFFFFFFFFFFFFFFFFFFFFFFFFFFFFFFFFFFFF AND PUSH20 0xFFFFFFFFFFFFFFFFFFFFFFFFFFFFFFFFFFFFFFFF AND PUSH20 0xFFFFFFFFFFFFFFFFFFFFFFFFFFFFFFFFFFFFFFFF AND DUP2 MSTORE PUSH1 0x20 ADD PUSH1 0x1 DUP3 ADD DUP1 SLOAD PUSH2 0xA22 SWAP1 PUSH2 0x1B14 JUMP JUMPDEST DUP1 PUSH1 0x1F ADD PUSH1 0x20 DUP1 SWAP2 DIV MUL PUSH1 0x20 ADD PUSH1 0x40 MLOAD SWAP1 DUP2 ADD PUSH1 0x40 MSTORE DUP1 SWAP3 SWAP2 SWAP1 DUP2 DUP2 MSTORE PUSH1 0x20 ADD DUP3 DUP1 SLOAD PUSH2 0xA4E SWAP1 PUSH2 0x1B14 JUMP JUMPDEST DUP1 ISZERO PUSH2 0xA9B JUMPI DUP1 PUSH1 0x1F LT PUSH2 0xA70 JUMPI PUSH2 0x100 DUP1 DUP4 SLOAD DIV MUL DUP4 MSTORE SWAP2 PUSH1 0x20 ADD SWAP2 PUSH2 0xA9B JUMP JUMPDEST DUP3 ADD SWAP2 SWAP1 PUSH1 0x0 MSTORE PUSH1 0x20 PUSH1 0x0 KECCAK256 SWAP1 JUMPDEST DUP2 SLOAD DUP2 MSTORE SWAP1 PUSH1 0x1 ADD SWAP1 PUSH1 0x20 ADD DUP1 DUP4 GT PUSH2 0xA7E JUMPI DUP3 SWAP1 SUB PUSH1 0x1F AND DUP3 ADD SWAP2 JUMPDEST POP POP POP POP POP DUP2 MSTORE POP POP DUP2 MSTORE PUSH1 0x20 ADD SWAP1 PUSH1 0x1 ADD SWAP1 PUSH2 0x999 JUMP JUMPDEST POP POP POP POP SWAP1 POP SWAP1 JUMP JUMPDEST PUSH1 0x60 PUSH2 0xAC7 DUP3 PUSH2 0x8DB JUMP JUMPDEST PUSH2 0xB06 JUMPI PUSH1 0x40 MLOAD PUSH32 0x8C379A000000000000000000000000000000000000000000000000000000000 DUP2 MSTORE PUSH1 0x4 ADD PUSH2 0xAFD SWAP1 PUSH2 0x1A59 JUMP JUMPDEST PUSH1 0x40 MLOAD DUP1 SWAP2 SUB SWAP1 REVERT JUMPDEST PUSH1 0x1 PUSH1 0x0 DUP4 PUSH20 0xFFFFFFFFFFFFFFFFFFFFFFFFFFFFFFFFFFFFFFFF AND PUSH20 0xFFFFFFFFFFFFFFFFFFFFFFFFFFFFFFFFFFFFFFFF AND DUP2 MSTORE PUSH1 0x20 ADD SWAP1 DUP2 MSTORE PUSH1 0x20 ADD PUSH1 0x0 KECCAK256 PUSH1 0x0 ADD DUP1 SLOAD PUSH2 0xB53 SWAP1 PUSH2 0x1B14 JUMP JUMPDEST DUP1 PUSH1 0x1F ADD PUSH1 0x20 DUP1 SWAP2 DIV MUL PUSH1 0x20 ADD PUSH1 0x40 MLOAD SWAP1 DUP2 ADD PUSH1 0x40 MSTORE DUP1 SWAP3 SWAP2 SWAP1 DUP2 DUP2 MSTORE PUSH1 0x20 ADD DUP3 DUP1 SLOAD PUSH2 0xB7F SWAP1 PUSH2 0x1B14 JUMP JUMPDEST DUP1 ISZERO PUSH2 0xBCC JUMPI DUP1 PUSH1 0x1F LT PUSH2 0xBA1 JUMPI PUSH2 0x100 DUP1 DUP4 SLOAD DIV MUL DUP4 MSTORE SWAP2 PUSH1 0x20 ADD SWAP2 PUSH2 0xBCC JUMP JUMPDEST DUP3 ADD SWAP2 SWAP1 PUSH1 0x0 MSTORE PUSH1 0x20 PUSH1 0x0 KECCAK256 SWAP1 JUMPDEST DUP2 SLOAD DUP2 MSTORE SWAP1 PUSH1 0x1 ADD SWAP1 PUSH1 0x20 ADD DUP1 DUP4 GT PUSH2 0xBAF JUMPI DUP3 SWAP1 SUB PUSH1 0x1F AND DUP3 ADD SWAP2 JUMPDEST POP POP POP POP POP SWAP1 POP SWAP2 SWAP1 POP JUMP JUMPDEST PUSH2 0xBE1 CALLER PUSH2 0x8DB JUMP JUMPDEST PUSH2 0xC20 JUMPI PUSH1 0x40 MLOAD PUSH32 0x8C379A000000000000000000000000000000000000000000000000000000000 DUP2 MSTORE PUSH1 0x4 ADD PUSH2 0xC17 SWAP1 PUSH2 0x1FC2 JUMP JUMPDEST PUSH1 0x40 MLOAD DUP1 SWAP2 SUB SWAP1 REVERT JUMPDEST PUSH2 0xC29 DUP4 PUSH2 0x8DB JUMP JUMPDEST PUSH2 0xC68 JUMPI PUSH1 0x40 MLOAD PUSH32 0x8C379A000000000000000000000000000000000000000000000000000000000 DUP2 MSTORE PUSH1 0x4 ADD PUSH2 0xC5F SWAP1 PUSH2 0x1A59 JUMP JUMPDEST PUSH1 0x40 MLOAD DUP1 SWAP2 SUB SWAP1 REVERT JUMPDEST PUSH2 0xC72 DUP4 CALLER PUSH2 0xDE5 JUMP JUMPDEST PUSH2 0xCB1 JUMPI PUSH1 0x40 MLOAD PUSH32 0x8C379A000000000000000000000000000000000000000000000000000000000 DUP2 MSTORE PUSH1 0x4 ADD PUSH2 0xCA8 SWAP1 PUSH2 0x202E JUMP JUMPDEST PUSH1 0x40 MLOAD DUP1 SWAP2 SUB SWAP1 REVERT JUMPDEST PUSH1 0x0 PUSH2 0xCBD CALLER DUP6 PUSH2 0xFBE JUMP JUMPDEST SWAP1 POP PUSH1 0x0 PUSH1 0x40 MLOAD DUP1 PUSH1 0x60 ADD PUSH1 0x40 MSTORE DUP1 CALLER PUSH20 0xFFFFFFFFFFFFFFFFFFFFFFFFFFFFFFFFFFFFFFFF AND DUP2 MSTORE PUSH1 0x20 ADD TIMESTAMP DUP2 MSTORE PUSH1 0x20 ADD DUP6 DUP6 DUP1 DUP1 PUSH1 0x1F ADD PUSH1 0x20 DUP1 SWAP2 DIV MUL PUSH1 0x20 ADD PUSH1 0x40 MLOAD SWAP1 DUP2 ADD PUSH1 0x40 MSTORE DUP1 SWAP4 SWAP3 SWAP2 SWAP1 DUP2 DUP2 MSTORE PUSH1 0x20 ADD DUP4 DUP4 DUP1 DUP3 DUP5 CALLDATACOPY PUSH1 0x0 DUP2 DUP5 ADD MSTORE PUSH1 0x1F NOT PUSH1 0x1F DUP3 ADD AND SWAP1 POP DUP1 DUP4 ADD SWAP3 POP POP POP POP POP POP POP DUP2 MSTORE POP SWAP1 POP PUSH1 0x2 PUSH1 0x0 DUP4 DUP2 MSTORE PUSH1 0x20 ADD SWAP1 DUP2 MSTORE PUSH1 0x20 ADD PUSH1 0x0 KECCAK256 DUP2 SWAP1 DUP1 PUSH1 0x1 DUP2 SLOAD ADD DUP1 DUP3 SSTORE DUP1 SWAP2 POP POP PUSH1 0x1 SWAP1 SUB SWAP1 PUSH1 0x0 MSTORE PUSH1 0x20 PUSH1 0x0 KECCAK256 SWAP1 PUSH1 0x3 MUL ADD PUSH1 0x0 SWAP1 SWAP2 SWAP1 SWAP2 SWAP1 SWAP2 POP PUSH1 0x0 DUP3 ADD MLOAD DUP2 PUSH1 0x0 ADD PUSH1 0x0 PUSH2 0x100 EXP DUP2 SLOAD DUP2 PUSH20 0xFFFFFFFFFFFFFFFFFFFFFFFFFFFFFFFFFFFFFFFF MUL NOT AND SWAP1 DUP4 PUSH20 0xFFFFFFFFFFFFFFFFFFFFFFFFFFFFFFFFFFFFFFFF AND MUL OR SWAP1 SSTORE POP PUSH1 0x20 DUP3 ADD MLOAD DUP2 PUSH1 0x1 ADD SSTORE PUSH1 0x40 DUP3 ADD MLOAD DUP2 PUSH1 0x2 ADD SWAP1 DUP2 PUSH2 0xDDB SWAP2 SWAP1 PUSH2 0x1EA4 JUMP JUMPDEST POP POP POP POP POP POP POP POP JUMP JUMPDEST PUSH1 0x0 PUSH1 0x1 PUSH1 0x0 DUP4 PUSH20 0xFFFFFFFFFFFFFFFFFFFFFFFFFFFFFFFFFFFFFFFF AND PUSH20 0xFFFFFFFFFFFFFFFFFFFFFFFFFFFFFFFFFFFFFFFF AND DUP2 MSTORE PUSH1 0x20 ADD SWAP1 DUP2 MSTORE PUSH1 0x20 ADD PUSH1 0x0 KECCAK256 PUSH1 0x1 ADD DUP1 SLOAD SWAP1 POP PUSH1 0x1 PUSH1 0x0 DUP6 PUSH20 0xFFFFFFFFFFFFFFFFFFFFFFFFFFFFFFFFFFFFFFFF AND PUSH20 0xFFFFFFFFFFFFFFFFFFFFFFFFFFFFFFFFFFFFFFFF AND DUP2 MSTORE PUSH1 0x20 ADD SWAP1 DUP2 MSTORE PUSH1 0x20 ADD PUSH1 0x0 KECCAK256 PUSH1 0x1 ADD DUP1 SLOAD SWAP1 POP GT ISZERO PUSH2 0xE86 JUMPI PUSH1 0x0 DUP4 SWAP1 POP DUP3 SWAP4 POP DUP1 SWAP3 POP POP JUMPDEST PUSH1 0x0 PUSH1 0x1 PUSH1 0x0 DUP6 PUSH20 0xFFFFFFFFFFFFFFFFFFFFFFFFFFFFFFFFFFFFFFFF AND PUSH20 0xFFFFFFFFFFFFFFFFFFFFFFFFFFFFFFFFFFFFFFFF AND DUP2 MSTORE PUSH1 0x20 ADD SWAP1 DUP2 MSTORE PUSH1 0x20 ADD PUSH1 0x0 KECCAK256 PUSH1 0x1 ADD DUP1 SLOAD SWAP1 POP SWAP1 POP PUSH1 0x0 JUMPDEST DUP2 DUP2 LT ISZERO PUSH2 0xFB1 JUMPI DUP4 PUSH20 0xFFFFFFFFFFFFFFFFFFFFFFFFFFFFFFFFFFFFFFFF AND PUSH1 0x1 PUSH1 0x0 DUP8 PUSH20 0xFFFFFFFFFFFFFFFFFFFFFFFFFFFFFFFFFFFFFFFF AND PUSH20 0xFFFFFFFFFFFFFFFFFFFFFFFFFFFFFFFFFFFFFFFF AND DUP2 MSTORE PUSH1 0x20 ADD SWAP1 DUP2 MSTORE PUSH1 0x20 ADD PUSH1 0x0 KECCAK256 PUSH1 0x1 ADD DUP3 DUP2 SLOAD DUP2 LT PUSH2 0xF46 JUMPI PUSH2 0xF45 PUSH2 0x204E JUMP JUMPDEST JUMPDEST SWAP1 PUSH1 0x0 MSTORE PUSH1 0x20 PUSH1 0x0 KECCAK256 SWAP1 PUSH1 0x2 MUL ADD PUSH1 0x0 ADD PUSH1 0x0 SWAP1 SLOAD SWAP1 PUSH2 0x100 EXP SWAP1 DIV PUSH20 0xFFFFFFFFFFFFFFFFFFFFFFFFFFFFFFFFFFFFFFFF AND PUSH20 0xFFFFFFFFFFFFFFFFFFFFFFFFFFFFFFFFFFFFFFFF AND SUB PUSH2 0xF9E JUMPI PUSH1 0x1 SWAP3 POP POP POP PUSH2 0xFB8 JUMP JUMPDEST DUP1 DUP1 PUSH2 0xFA9 SWAP1 PUSH2 0x20AC JUMP JUMPDEST SWAP2 POP POP PUSH2 0xED3 JUMP JUMPDEST POP PUSH1 0x0 SWAP2 POP POP JUMPDEST SWAP3 SWAP2 POP POP JUMP JUMPDEST PUSH1 0x0 DUP2 PUSH20 0xFFFFFFFFFFFFFFFFFFFFFFFFFFFFFFFFFFFFFFFF AND DUP4 PUSH20 0xFFFFFFFFFFFFFFFFFFFFFFFFFFFFFFFFFFFFFFFF AND LT ISZERO PUSH2 0x1024 JUMPI DUP3 DUP3 PUSH1 0x40 MLOAD PUSH1 0x20 ADD PUSH2 0x1007 SWAP3 SWAP2 SWAP1 PUSH2 0x213C JUMP JUMPDEST PUSH1 0x40 MLOAD PUSH1 0x20 DUP2 DUP4 SUB SUB DUP2 MSTORE SWAP1 PUSH1 0x40 MSTORE DUP1 MLOAD SWAP1 PUSH1 0x20 ADD KECCAK256 SWAP1 POP PUSH2 0x1050 JUMP JUMPDEST DUP2 DUP4 PUSH1 0x40 MLOAD PUSH1 0x20 ADD PUSH2 0x1037 SWAP3 SWAP2 SWAP1 PUSH2 0x213C JUMP JUMPDEST PUSH1 0x40 MLOAD PUSH1 0x20 DUP2 DUP4 SUB SUB DUP2 MSTORE SWAP1 PUSH1 0x40 MSTORE DUP1 MLOAD SWAP1 PUSH1 0x20 ADD KECCAK256 SWAP1 POP JUMPDEST SWAP3 SWAP2 POP POP JUMP JUMPDEST PUSH1 0x0 DUP2 MLOAD GT PUSH2 0x109A JUMPI PUSH1 0x40 MLOAD PUSH32 0x8C379A000000000000000000000000000000000000000000000000000000000 DUP2 MSTORE PUSH1 0x4 ADD PUSH2 0x1091 SWAP1 PUSH2 0x1BFD JUMP JUMPDEST PUSH1 0x40 MLOAD DUP1 SWAP2 SUB SWAP1 REVERT JUMPDEST PUSH1 0x1 PUSH1 0x0 DUP5 PUSH20 0xFFFFFFFFFFFFFFFFFFFFFFFFFFFFFFFFFFFFFFFF AND PUSH20 0xFFFFFFFFFFFFFFFFFFFFFFFFFFFFFFFFFFFFFFFF AND DUP2 MSTORE PUSH1 0x20 ADD SWAP1 DUP2 MSTORE PUSH1 0x20 ADD PUSH1 0x0 KECCAK256 PUSH1 0x1 ADD PUSH1 0x40 MLOAD DUP1 PUSH1 0x40 ADD PUSH1 0x40 MSTORE DUP1 DUP5 PUSH20 0xFFFFFFFFFFFFFFFFFFFFFFFFFFFFFFFFFFFFFFFF AND DUP2 MSTORE PUSH1 0x20 ADD DUP4 DUP2 MSTORE POP SWAP1 DUP1 PUSH1 0x1 DUP2 SLOAD ADD DUP1 DUP3 SSTORE DUP1 SWAP2 POP POP PUSH1 0x1 SWAP1 SUB SWAP1 PUSH1 0x0 MSTORE PUSH1 0x20 PUSH1 0x0 KECCAK256 SWAP1 PUSH1 0x2 MUL ADD PUSH1 0x0 SWAP1 SWAP2 SWAP1 SWAP2 SWAP1 SWAP2 POP PUSH1 0x0 DUP3 ADD MLOAD DUP2 PUSH1 0x0 ADD PUSH1 0x0 PUSH2 0x100 EXP DUP2 SLOAD DUP2 PUSH20 0xFFFFFFFFFFFFFFFFFFFFFFFFFFFFFFFFFFFFFFFF MUL NOT AND SWAP1 DUP4 PUSH20 0xFFFFFFFFFFFFFFFFFFFFFFFFFFFFFFFFFFFFFFFF AND MUL OR SWAP1 SSTORE POP PUSH1 0x20 DUP3 ADD MLOAD DUP2 PUSH1 0x1 ADD SWAP1 DUP2 PUSH2 0x118C SWAP2 SWAP1 PUSH2 0x1EA4 JUMP JUMPDEST POP POP POP POP POP POP JUMP JUMPDEST PUSH1 0x0 PUSH1 0x40 MLOAD SWAP1 POP SWAP1 JUMP JUMPDEST PUSH1 0x0 DUP1 REVERT JUMPDEST PUSH1 0x0 DUP1 REVERT JUMPDEST PUSH1 0x0 PUSH20 0xFFFFFFFFFFFFFFFFFFFFFFFFFFFFFFFFFFFFFFFF DUP3 AND SWAP1 POP SWAP2 SWAP1 POP JUMP JUMPDEST PUSH1 0x0 PUSH2 0x11D3 DUP3 PUSH2 0x11A8 JUMP JUMPDEST SWAP1 POP SWAP2 SWAP1 POP JUMP JUMPDEST PUSH2 0x11E3 DUP2 PUSH2 0x11C8 JUMP JUMPDEST DUP2 EQ PUSH2 0x11EE JUMPI PUSH1 0x0 DUP1 REVERT JUMPDEST POP JUMP JUMPDEST PUSH1 0x0 DUP2 CALLDATALOAD SWAP1 POP PUSH2 0x1200 DUP2 PUSH2 0x11DA JUMP JUMPDEST SWAP3 SWAP2 POP POP JUMP JUMPDEST PUSH1 0x0 PUSH1 0x20 DUP3 DUP5 SUB SLT ISZERO PUSH2 0x121C JUMPI PUSH2 0x121B PUSH2 0x119E JUMP JUMPDEST JUMPDEST PUSH1 0x0 PUSH2 0x122A DUP5 DUP3 DUP6 ADD PUSH2 0x11F1 JUMP JUMPDEST SWAP2 POP POP SWAP3 SWAP2 POP POP JUMP JUMPDEST PUSH1 0x0 DUP2 MLOAD SWAP1 POP SWAP2 SWAP1 POP JUMP JUMPDEST PUSH1 0x0 DUP3 DUP3 MSTORE PUSH1 0x20 DUP3 ADD SWAP1 POP SWAP3 SWAP2 POP POP JUMP JUMPDEST PUSH1 0x0 DUP2 SWAP1 POP PUSH1 0x20 DUP3 ADD SWAP1 POP SWAP2 SWAP1 POP JUMP JUMPDEST PUSH2 0x1268 DUP2 PUSH2 0x11C8 JUMP JUMPDEST DUP3 MSTORE POP POP JUMP JUMPDEST PUSH1 0x0 DUP2 SWAP1 POP SWAP2 SWAP1 POP JUMP JUMPDEST PUSH2 0x1281 DUP2 PUSH2 0x126E JUMP JUMPDEST DUP3 MSTORE POP POP JUMP JUMPDEST PUSH1 0x0 DUP2 MLOAD SWAP1 POP SWAP2 SWAP1 POP JUMP JUMPDEST PUSH1 0x0 DUP3 DUP3 MSTORE PUSH1 0x20 DUP3 ADD SWAP1 POP SWAP3 SWAP2 POP POP JUMP JUMPDEST PUSH1 0x0 JUMPDEST DUP4 DUP2 LT ISZERO PUSH2 0x12C1 JUMPI DUP1 DUP3 ADD MLOAD DUP2 DUP5 ADD MSTORE PUSH1 0x20 DUP2 ADD SWAP1 POP PUSH2 0x12A6 JUMP JUMPDEST PUSH1 0x0 DUP5 DUP5 ADD MSTORE POP POP POP POP JUMP JUMPDEST PUSH1 0x0 PUSH1 0x1F NOT PUSH1 0x1F DUP4 ADD AND SWAP1 POP SWAP2 SWAP1 POP JUMP JUMPDEST PUSH1 0x0 PUSH2 0x12E9 DUP3 PUSH2 0x1287 JUMP JUMPDEST PUSH2 0x12F3 DUP2 DUP6 PUSH2 0x1292 JUMP JUMPDEST SWAP4 POP PUSH2 0x1303 DUP2 DUP6 PUSH1 0x20 DUP7 ADD PUSH2 0x12A3 JUMP JUMPDEST PUSH2 0x130C DUP2 PUSH2 0x12CD JUMP JUMPDEST DUP5 ADD SWAP2 POP POP SWAP3 SWAP2 POP POP JUMP JUMPDEST PUSH1 0x0 PUSH1 0x60 DUP4 ADD PUSH1 0x0 DUP4 ADD MLOAD PUSH2 0x132F PUSH1 0x0 DUP7 ADD DUP3 PUSH2 0x125F JUMP JUMPDEST POP PUSH1 0x20 DUP4 ADD MLOAD PUSH2 0x1342 PUSH1 0x20 DUP7 ADD DUP3 PUSH2 0x1278 JUMP JUMPDEST POP PUSH1 0x40 DUP4 ADD MLOAD DUP5 DUP3 SUB PUSH1 0x40 DUP7 ADD MSTORE PUSH2 0x135A DUP3 DUP3 PUSH2 0x12DE JUMP JUMPDEST SWAP2 POP POP DUP1 SWAP2 POP POP SWAP3 SWAP2 POP POP JUMP JUMPDEST PUSH1 0x0 PUSH2 0x1373 DUP4 DUP4 PUSH2 0x1317 JUMP JUMPDEST SWAP1 POP SWAP3 SWAP2 POP POP JUMP JUMPDEST PUSH1 0x0 PUSH1 0x20 DUP3 ADD SWAP1 POP SWAP2 SWAP1 POP JUMP JUMPDEST PUSH1 0x0 PUSH2 0x1393 DUP3 PUSH2 0x1233 JUMP JUMPDEST PUSH2 0x139D DUP2 DUP6 PUSH2 0x123E JUMP JUMPDEST SWAP4 POP DUP4 PUSH1 0x20 DUP3 MUL DUP6 ADD PUSH2 0x13AF DUP6 PUSH2 0x124F JUMP JUMPDEST DUP1 PUSH1 0x0 JUMPDEST DUP6 DUP2 LT ISZERO PUSH2 0x13EB JUMPI DUP5 DUP5 SUB DUP10 MSTORE DUP2 MLOAD PUSH2 0x13CC DUP6 DUP3 PUSH2 0x1367 JUMP JUMPDEST SWAP5 POP PUSH2 0x13D7 DUP4 PUSH2 0x137B JUMP JUMPDEST SWAP3 POP PUSH1 0x20 DUP11 ADD SWAP10 POP POP PUSH1 0x1 DUP2 ADD SWAP1 POP PUSH2 0x13B3 JUMP JUMPDEST POP DUP3 SWAP8 POP DUP8 SWAP6 POP POP POP POP POP POP SWAP3 SWAP2 POP POP JUMP JUMPDEST PUSH1 0x0 PUSH1 0x20 DUP3 ADD SWAP1 POP DUP2 DUP2 SUB PUSH1 0x0 DUP4 ADD MSTORE PUSH2 0x1417 DUP2 DUP5 PUSH2 0x1388 JUMP JUMPDEST SWAP1 POP SWAP3 SWAP2 POP POP JUMP JUMPDEST PUSH1 0x0 DUP1 REVERT JUMPDEST PUSH1 0x0 DUP1 REVERT JUMPDEST PUSH1 0x0 DUP1 REVERT JUMPDEST PUSH1 0x0 DUP1 DUP4 PUSH1 0x1F DUP5 ADD SLT PUSH2 0x1444 JUMPI PUSH2 0x1443 PUSH2 0x141F JUMP JUMPDEST JUMPDEST DUP3 CALLDATALOAD SWAP1 POP PUSH8 0xFFFFFFFFFFFFFFFF DUP2 GT ISZERO PUSH2 0x1461 JUMPI PUSH2 0x1460 PUSH2 0x1424 JUMP JUMPDEST JUMPDEST PUSH1 0x20 DUP4 ADD SWAP2 POP DUP4 PUSH1 0x1 DUP3 MUL DUP4 ADD GT ISZERO PUSH2 0x147D JUMPI PUSH2 0x147C PUSH2 0x1429 JUMP JUMPDEST JUMPDEST SWAP3 POP SWAP3 SWAP1 POP JUMP JUMPDEST PUSH1 0x0 DUP1 PUSH1 0x20 DUP4 DUP6 SUB SLT ISZERO PUSH2 0x149B JUMPI PUSH2 0x149A PUSH2 0x119E JUMP JUMPDEST JUMPDEST PUSH1 0x0 DUP4 ADD CALLDATALOAD PUSH8 0xFFFFFFFFFFFFFFFF DUP2 GT ISZERO PUSH2 0x14B9 JUMPI PUSH2 0x14B8 PUSH2 0x11A3 JUMP JUMPDEST JUMPDEST PUSH2 0x14C5 DUP6 DUP3 DUP7 ADD PUSH2 0x142E JUMP JUMPDEST SWAP3 POP SWAP3 POP POP SWAP3 POP SWAP3 SWAP1 POP JUMP JUMPDEST PUSH1 0x0 DUP1 REVERT JUMPDEST PUSH32 0x4E487B7100000000000000000000000000000000000000000000000000000000 PUSH1 0x0 MSTORE PUSH1 0x41 PUSH1 0x4 MSTORE PUSH1 0x24 PUSH1 0x0 REVERT JUMPDEST PUSH2 0x150E DUP3 PUSH2 0x12CD JUMP JUMPDEST DUP2 ADD DUP2 DUP2 LT PUSH8 0xFFFFFFFFFFFFFFFF DUP3 GT OR ISZERO PUSH2 0x152D JUMPI PUSH2 0x152C PUSH2 0x14D6 JUMP JUMPDEST JUMPDEST DUP1 PUSH1 0x40 MSTORE POP POP POP JUMP JUMPDEST PUSH1 0x0 PUSH2 0x1540 PUSH2 0x1194 JUMP JUMPDEST SWAP1 POP PUSH2 0x154C DUP3 DUP3 PUSH2 0x1505 JUMP JUMPDEST SWAP2 SWAP1 POP JUMP JUMPDEST PUSH1 0x0 PUSH8 0xFFFFFFFFFFFFFFFF DUP3 GT ISZERO PUSH2 0x156C JUMPI PUSH2 0x156B PUSH2 0x14D6 JUMP JUMPDEST JUMPDEST PUSH2 0x1575 DUP3 PUSH2 0x12CD JUMP JUMPDEST SWAP1 POP PUSH1 0x20 DUP2 ADD SWAP1 POP SWAP2 SWAP1 POP JUMP JUMPDEST DUP3 DUP2 DUP4 CALLDATACOPY PUSH1 0x0 DUP4 DUP4 ADD MSTORE POP POP POP JUMP JUMPDEST PUSH1 0x0 PUSH2 0x15A4 PUSH2 0x159F DUP5 PUSH2 0x1551 JUMP JUMPDEST PUSH2 0x1536 JUMP JUMPDEST SWAP1 POP DUP3 DUP2 MSTORE PUSH1 0x20 DUP2 ADD DUP5 DUP5 DUP5 ADD GT ISZERO PUSH2 0x15C0 JUMPI PUSH2 0x15BF PUSH2 0x14D1 JUMP JUMPDEST JUMPDEST PUSH2 0x15CB DUP5 DUP3 DUP6 PUSH2 0x1582 JUMP JUMPDEST POP SWAP4 SWAP3 POP POP POP JUMP JUMPDEST PUSH1 0x0 DUP3 PUSH1 0x1F DUP4 ADD SLT PUSH2 0x15E8 JUMPI PUSH2 0x15E7 PUSH2 0x141F JUMP JUMPDEST JUMPDEST DUP2 CALLDATALOAD PUSH2 0x15F8 DUP5 DUP3 PUSH1 0x20 DUP7 ADD PUSH2 0x1591 JUMP JUMPDEST SWAP2 POP POP SWAP3 SWAP2 POP POP JUMP JUMPDEST PUSH1 0x0 DUP1 PUSH1 0x40 DUP4 DUP6 SUB SLT ISZERO PUSH2 0x1618 JUMPI PUSH2 0x1617 PUSH2 0x119E JUMP JUMPDEST JUMPDEST PUSH1 0x0 PUSH2 0x1626 DUP6 DUP3 DUP7 ADD PUSH2 0x11F1 JUMP JUMPDEST SWAP3 POP POP PUSH1 0x20 DUP4 ADD CALLDATALOAD PUSH8 0xFFFFFFFFFFFFFFFF DUP2 GT ISZERO PUSH2 0x1647 JUMPI PUSH2 0x1646 PUSH2 0x11A3 JUMP JUMPDEST JUMPDEST PUSH2 0x1653 DUP6 DUP3 DUP7 ADD PUSH2 0x15D3 JUMP JUMPDEST SWAP2 POP POP SWAP3 POP SWAP3 SWAP1 POP JUMP JUMPDEST PUSH1 0x0 DUP2 MLOAD SWAP1 POP SWAP2 SWAP1 POP JUMP JUMPDEST PUSH1 0x0 DUP3 DUP3 MSTORE PUSH1 0x20 DUP3 ADD SWAP1 POP SWAP3 SWAP2 POP POP JUMP JUMPDEST PUSH1 0x0 DUP2 SWAP1 POP PUSH1 0x20 DUP3 ADD SWAP1 POP SWAP2 SWAP1 POP JUMP JUMPDEST PUSH1 0x0 PUSH1 0x40 DUP4 ADD PUSH1 0x0 DUP4 ADD MLOAD DUP5 DUP3 SUB PUSH1 0x0 DUP7 ADD MSTORE PUSH2 0x16A6 DUP3 DUP3 PUSH2 0x12DE JUMP JUMPDEST SWAP2 POP POP PUSH1 0x20 DUP4 ADD MLOAD PUSH2 0x16BB PUSH1 0x20 DUP7 ADD DUP3 PUSH2 0x125F JUMP JUMPDEST POP DUP1 SWAP2 POP POP SWAP3 SWAP2 POP POP JUMP JUMPDEST PUSH1 0x0 PUSH2 0x16D2 DUP4 DUP4 PUSH2 0x1689 JUMP JUMPDEST SWAP1 POP SWAP3 SWAP2 POP POP JUMP JUMPDEST PUSH1 0x0 PUSH1 0x20 DUP3 ADD SWAP1 POP SWAP2 SWAP1 POP JUMP JUMPDEST PUSH1 0x0 PUSH2 0x16F2 DUP3 PUSH2 0x165D JUMP JUMPDEST PUSH2 0x16FC DUP2 DUP6 PUSH2 0x1668 JUMP JUMPDEST SWAP4 POP DUP4 PUSH1 0x20 DUP3 MUL DUP6 ADD PUSH2 0x170E DUP6 PUSH2 0x1679 JUMP JUMPDEST DUP1 PUSH1 0x0 JUMPDEST DUP6 DUP2 LT ISZERO PUSH2 0x174A JUMPI DUP5 DUP5 SUB DUP10 MSTORE DUP2 MLOAD PUSH2 0x172B DUP6 DUP3 PUSH2 0x16C6 JUMP JUMPDEST SWAP5 POP PUSH2 0x1736 DUP4 PUSH2 0x16DA JUMP JUMPDEST SWAP3 POP PUSH1 0x20 DUP11 ADD SWAP10 POP POP PUSH1 0x1 DUP2 ADD SWAP1 POP PUSH2 0x1712 JUMP JUMPDEST POP DUP3 SWAP8 POP DUP8 SWAP6 POP POP POP POP POP POP SWAP3 SWAP2 POP POP JUMP JUMPDEST PUSH1 0x0 PUSH1 0x20 DUP3 ADD SWAP1 POP DUP2 DUP2 SUB PUSH1 0x0 DUP4 ADD MSTORE PUSH2 0x1776 DUP2 DUP5 PUSH2 0x16E7 JUMP JUMPDEST SWAP1 POP SWAP3 SWAP2 POP POP JUMP JUMPDEST PUSH1 0x0 DUP2 ISZERO ISZERO SWAP1 POP SWAP2 SWAP1 POP JUMP JUMPDEST PUSH2 0x1793 DUP2 PUSH2 0x177E JUMP JUMPDEST DUP3 MSTORE POP POP JUMP JUMPDEST PUSH1 0x0 PUSH1 0x20 DUP3 ADD SWAP1 POP PUSH2 0x17AE PUSH1 0x0 DUP4 ADD DUP5 PUSH2 0x178A JUMP JUMPDEST SWAP3 SWAP2 POP POP JUMP JUMPDEST PUSH1 0x0 DUP2 MLOAD SWAP1 POP SWAP2 SWAP1 POP JUMP JUMPDEST PUSH1 0x0 DUP3 DUP3 MSTORE PUSH1 0x20 DUP3 ADD SWAP1 POP SWAP3 SWAP2 POP POP JUMP JUMPDEST PUSH1 0x0 DUP2 SWAP1 POP PUSH1 0x20 DUP3 ADD SWAP1 POP SWAP2 SWAP1 POP JUMP JUMPDEST PUSH1 0x0 PUSH1 0x40 DUP4 ADD PUSH1 0x0 DUP4 ADD MLOAD PUSH2 0x17F8 PUSH1 0x0 DUP7 ADD DUP3 PUSH2 0x125F JUMP JUMPDEST POP PUSH1 0x20 DUP4 ADD MLOAD DUP5 DUP3 SUB PUSH1 0x20 DUP7 ADD MSTORE PUSH2 0x1810 DUP3 DUP3 PUSH2 0x12DE JUMP JUMPDEST SWAP2 POP POP DUP1 SWAP2 POP POP SWAP3 SWAP2 POP POP JUMP JUMPDEST PUSH1 0x0 PUSH2 0x1829 DUP4 DUP4 PUSH2 0x17E0 JUMP JUMPDEST SWAP1 POP SWAP3 SWAP2 POP POP JUMP JUMPDEST PUSH1 0x0 PUSH1 0x20 DUP3 ADD SWAP1 POP SWAP2 SWAP1 POP JUMP JUMPDEST PUSH1 0x0 PUSH2 0x1849 DUP3 PUSH2 0x17B4 JUMP JUMPDEST PUSH2 0x1853 DUP2 DUP6 PUSH2 0x17BF JUMP JUMPDEST SWAP4 POP DUP4 PUSH1 0x20 DUP3 MUL DUP6 ADD PUSH2 0x1865 DUP6 PUSH2 0x17D0 JUMP JUMPDEST DUP1 PUSH1 0x0 JUMPDEST DUP6 DUP2 LT ISZERO PUSH2 0x18A1 JUMPI DUP5 DUP5 SUB DUP10 MSTORE DUP2 MLOAD PUSH2 0x1882 DUP6 DUP3 PUSH2 0x181D JUMP JUMPDEST SWAP5 POP PUSH2 0x188D DUP4 PUSH2 0x1831 JUMP JUMPDEST SWAP3 POP PUSH1 0x20 DUP11 ADD SWAP10 POP POP PUSH1 0x1 DUP2 ADD SWAP1 POP PUSH2 0x1869 JUMP JUMPDEST POP DUP3 SWAP8 POP DUP8 SWAP6 POP POP POP POP POP POP SWAP3 SWAP2 POP POP JUMP JUMPDEST PUSH1 0x0 PUSH1 0x20 DUP3 ADD SWAP1 POP DUP2 DUP2 SUB PUSH1 0x0 DUP4 ADD MSTORE PUSH2 0x18CD DUP2 DUP5 PUSH2 0x183E JUMP JUMPDEST SWAP1 POP SWAP3 SWAP2 POP POP JUMP JUMPDEST PUSH1 0x0 DUP3 DUP3 MSTORE PUSH1 0x20 DUP3 ADD SWAP1 POP SWAP3 SWAP2 POP POP JUMP JUMPDEST PUSH1 0x0 PUSH2 0x18F1 DUP3 PUSH2 0x1287 JUMP JUMPDEST PUSH2 0x18FB DUP2 DUP6 PUSH2 0x18D5 JUMP JUMPDEST SWAP4 POP PUSH2 0x190B DUP2 DUP6 PUSH1 0x20 DUP7 ADD PUSH2 0x12A3 JUMP JUMPDEST PUSH2 0x1914 DUP2 PUSH2 0x12CD JUMP JUMPDEST DUP5 ADD SWAP2 POP POP SWAP3 SWAP2 POP POP JUMP JUMPDEST PUSH1 0x0 PUSH1 0x20 DUP3 ADD SWAP1 POP DUP2 DUP2 SUB PUSH1 0x0 DUP4 ADD MSTORE PUSH2 0x1939 DUP2 DUP5 PUSH2 0x18E6 JUMP JUMPDEST SWAP1 POP SWAP3 SWAP2 POP POP JUMP JUMPDEST PUSH1 0x0 DUP1 PUSH1 0x0 PUSH1 0x40 DUP5 DUP7 SUB SLT ISZERO PUSH2 0x195A JUMPI PUSH2 0x1959 PUSH2 0x119E JUMP JUMPDEST JUMPDEST PUSH1 0x0 PUSH2 0x1968 DUP7 DUP3 DUP8 ADD PUSH2 0x11F1 JUMP JUMPDEST SWAP4 POP POP PUSH1 0x20 DUP5 ADD CALLDATALOAD PUSH8 0xFFFFFFFFFFFFFFFF DUP2 GT ISZERO PUSH2 0x1989 JUMPI PUSH2 0x1988 PUSH2 0x11A3 JUMP JUMPDEST JUMPDEST PUSH2 0x1995 DUP7 DUP3 DUP8 ADD PUSH2 0x142E JUMP JUMPDEST SWAP3 POP SWAP3 POP POP SWAP3 POP SWAP3 POP SWAP3 JUMP JUMPDEST PUSH32 0x63726561746520616E206163636F6E7574206669727374210000000000000000 PUSH1 0x0 DUP3 ADD MSTORE POP JUMP JUMPDEST PUSH1 0x0 PUSH2 0x19D7 PUSH1 0x18 DUP4 PUSH2 0x18D5 JUMP JUMPDEST SWAP2 POP PUSH2 0x19E2 DUP3 PUSH2 0x19A1 JUMP JUMPDEST PUSH1 0x20 DUP3 ADD SWAP1 POP SWAP2 SWAP1 POP JUMP JUMPDEST PUSH1 0x0 PUSH1 0x20 DUP3 ADD SWAP1 POP DUP2 DUP2 SUB PUSH1 0x0 DUP4 ADD MSTORE PUSH2 0x1A06 DUP2 PUSH2 0x19CA JUMP JUMPDEST SWAP1 POP SWAP2 SWAP1 POP JUMP JUMPDEST PUSH32 0x75736572206E6F7420666F756E64210000000000000000000000000000000000 PUSH1 0x0 DUP3 ADD MSTORE POP JUMP JUMPDEST PUSH1 0x0 PUSH2 0x1A43 PUSH1 0xF DUP4 PUSH2 0x18D5 JUMP JUMPDEST SWAP2 POP PUSH2 0x1A4E DUP3 PUSH2 0x1A0D JUMP JUMPDEST PUSH1 0x20 DUP3 ADD SWAP1 POP SWAP2 SWAP1 POP JUMP JUMPDEST PUSH1 0x0 PUSH1 0x20 DUP3 ADD SWAP1 POP DUP2 DUP2 SUB PUSH1 0x0 DUP4 ADD MSTORE PUSH2 0x1A72 DUP2 PUSH2 0x1A36 JUMP JUMPDEST SWAP1 POP SWAP2 SWAP1 POP JUMP JUMPDEST PUSH32 0x616C726561647920667269656E64732100000000000000000000000000000000 PUSH1 0x0 DUP3 ADD MSTORE POP JUMP JUMPDEST PUSH1 0x0 PUSH2 0x1AAF PUSH1 0x10 DUP4 PUSH2 0x18D5 JUMP JUMPDEST SWAP2 POP PUSH2 0x1ABA DUP3 PUSH2 0x1A79 JUMP JUMPDEST PUSH1 0x20 DUP3 ADD SWAP1 POP SWAP2 SWAP1 POP JUMP JUMPDEST PUSH1 0x0 PUSH1 0x20 DUP3 ADD SWAP1 POP DUP2 DUP2 SUB PUSH1 0x0 DUP4 ADD MSTORE PUSH2 0x1ADE DUP2 PUSH2 0x1AA2 JUMP JUMPDEST SWAP1 POP SWAP2 SWAP1 POP JUMP JUMPDEST PUSH32 0x4E487B7100000000000000000000000000000000000000000000000000000000 PUSH1 0x0 MSTORE PUSH1 0x22 PUSH1 0x4 MSTORE PUSH1 0x24 PUSH1 0x0 REVERT JUMPDEST PUSH1 0x0 PUSH1 0x2 DUP3 DIV SWAP1 POP PUSH1 0x1 DUP3 AND DUP1 PUSH2 0x1B2C JUMPI PUSH1 0x7F DUP3 AND SWAP2 POP JUMPDEST PUSH1 0x20 DUP3 LT DUP2 SUB PUSH2 0x1B3F JUMPI PUSH2 0x1B3E PUSH2 0x1AE5 JUMP JUMPDEST JUMPDEST POP SWAP2 SWAP1 POP JUMP JUMPDEST PUSH32 0x5573657220616C72656164792065786973742100000000000000000000000000 PUSH1 0x0 DUP3 ADD MSTORE POP JUMP JUMPDEST PUSH1 0x0 PUSH2 0x1B7B PUSH1 0x13 DUP4 PUSH2 0x18D5 JUMP JUMPDEST SWAP2 POP PUSH2 0x1B86 DUP3 PUSH2 0x1B45 JUMP JUMPDEST PUSH1 0x20 DUP3 ADD SWAP1 POP SWAP2 SWAP1 POP JUMP JUMPDEST PUSH1 0x0 PUSH1 0x20 DUP3 ADD SWAP1 POP DUP2 DUP2 SUB PUSH1 0x0 DUP4 ADD MSTORE PUSH2 0x1BAA DUP2 PUSH2 0x1B6E JUMP JUMPDEST SWAP1 POP SWAP2 SWAP1 POP JUMP JUMPDEST PUSH32 0x557365726E616D652063616E6E6F7420626520656D7074792100000000000000 PUSH1 0x0 DUP3 ADD MSTORE POP JUMP JUMPDEST PUSH1 0x0 PUSH2 0x1BE7 PUSH1 0x19 DUP4 PUSH2 0x18D5 JUMP JUMPDEST SWAP2 POP PUSH2 0x1BF2 DUP3 PUSH2 0x1BB1 JUMP JUMPDEST PUSH1 0x20 DUP3 ADD SWAP1 POP SWAP2 SWAP1 POP JUMP JUMPDEST PUSH1 0x0 PUSH1 0x20 DUP3 ADD SWAP1 POP DUP2 DUP2 SUB PUSH1 0x0 DUP4 ADD MSTORE PUSH2 0x1C16 DUP2 PUSH2 0x1BDA JUMP JUMPDEST SWAP1 POP SWAP2 SWAP1 POP JUMP JUMPDEST PUSH1 0x0 DUP3 SWAP1 POP SWAP3 SWAP2 POP POP JUMP JUMPDEST PUSH1 0x0 DUP2 SWAP1 POP DUP2 PUSH1 0x0 MSTORE PUSH1 0x20 PUSH1 0x0 KECCAK256 SWAP1 POP SWAP2 SWAP1 POP JUMP JUMPDEST PUSH1 0x0 PUSH1 0x20 PUSH1 0x1F DUP4 ADD DIV SWAP1 POP SWAP2 SWAP1 POP JUMP JUMPDEST PUSH1 0x0 DUP3 DUP3 SHL SWAP1 POP SWAP3 SWAP2 POP POP JUMP JUMPDEST PUSH1 0x0 PUSH1 0x8 DUP4 MUL PUSH2 0x1C8A PUSH32 0xFFFFFFFFFFFFFFFFFFFFFFFFFFFFFFFFFFFFFFFFFFFFFFFFFFFFFFFFFFFFFFFF DUP3 PUSH2 0x1C4D JUMP JUMPDEST PUSH2 0x1C94 DUP7 DUP4 PUSH2 0x1C4D JUMP JUMPDEST SWAP6 POP DUP1 NOT DUP5 AND SWAP4 POP DUP1 DUP7 AND DUP5 OR SWAP3 POP POP POP SWAP4 SWAP3 POP POP POP JUMP JUMPDEST PUSH1 0x0 DUP2 SWAP1 POP SWAP2 SWAP1 POP JUMP JUMPDEST PUSH1 0x0 PUSH2 0x1CD1 PUSH2 0x1CCC PUSH2 0x1CC7 DUP5 PUSH2 0x126E JUMP JUMPDEST PUSH2 0x1CAC JUMP JUMPDEST PUSH2 0x126E JUMP JUMPDEST SWAP1 POP SWAP2 SWAP1 POP JUMP JUMPDEST PUSH1 0x0 DUP2 SWAP1 POP SWAP2 SWAP1 POP JUMP JUMPDEST PUSH2 0x1CEB DUP4 PUSH2 0x1CB6 JUMP JUMPDEST PUSH2 0x1CFF PUSH2 0x1CF7 DUP3 PUSH2 0x1CD8 JUMP JUMPDEST DUP5 DUP5 SLOAD PUSH2 0x1C5A JUMP JUMPDEST DUP3 SSTORE POP POP POP POP JUMP JUMPDEST PUSH1 0x0 SWAP1 JUMP JUMPDEST PUSH2 0x1D14 PUSH2 0x1D07 JUMP JUMPDEST PUSH2 0x1D1F DUP2 DUP5 DUP5 PUSH2 0x1CE2 JUMP JUMPDEST POP POP POP JUMP JUMPDEST JUMPDEST DUP2 DUP2 LT ISZERO PUSH2 0x1D43 JUMPI PUSH2 0x1D38 PUSH1 0x0 DUP3 PUSH2 0x1D0C JUMP JUMPDEST PUSH1 0x1 DUP2 ADD SWAP1 POP PUSH2 0x1D25 JUMP JUMPDEST POP POP JUMP JUMPDEST PUSH1 0x1F DUP3 GT ISZERO PUSH2 0x1D88 JUMPI PUSH2 0x1D59 DUP2 PUSH2 0x1C28 JUMP JUMPDEST PUSH2 0x1D62 DUP5 PUSH2 0x1C3D JUMP JUMPDEST DUP2 ADD PUSH1 0x20 DUP6 LT ISZERO PUSH2 0x1D71 JUMPI DUP2 SWAP1 POP JUMPDEST PUSH2 0x1D85 PUSH2 0x1D7D DUP6 PUSH2 0x1C3D JUMP JUMPDEST DUP4 ADD DUP3 PUSH2 0x1D24 JUMP JUMPDEST POP POP JUMPDEST POP POP POP JUMP JUMPDEST PUSH1 0x0 DUP3 DUP3 SHR SWAP1 POP SWAP3 SWAP2 POP POP JUMP JUMPDEST PUSH1 0x0 PUSH2 0x1DAB PUSH1 0x0 NOT DUP5 PUSH1 0x8 MUL PUSH2 0x1D8D JUMP JUMPDEST NOT DUP1 DUP4 AND SWAP2 POP POP SWAP3 SWAP2 POP POP JUMP JUMPDEST PUSH1 0x0 PUSH2 0x1DC4 DUP4 DUP4 PUSH2 0x1D9A JUMP JUMPDEST SWAP2 POP DUP3 PUSH1 0x2 MUL DUP3 OR SWAP1 POP SWAP3 SWAP2 POP POP JUMP JUMPDEST PUSH2 0x1DDE DUP4 DUP4 PUSH2 0x1C1D JUMP JUMPDEST PUSH8 0xFFFFFFFFFFFFFFFF DUP2 GT ISZERO PUSH2 0x1DF7 JUMPI PUSH2 0x1DF6 PUSH2 0x14D6 JUMP JUMPDEST JUMPDEST PUSH2 0x1E01 DUP3 SLOAD PUSH2 0x1B14 JUMP JUMPDEST PUSH2 0x1E0C DUP3 DUP3 DUP6 PUSH2 0x1D47 JUMP JUMPDEST PUSH1 0x0 PUSH1 0x1F DUP4 GT PUSH1 0x1 DUP2 EQ PUSH2 0x1E3B JUMPI PUSH1 0x0 DUP5 ISZERO PUSH2 0x1E29 JUMPI DUP3 DUP8 ADD CALLDATALOAD SWAP1 POP JUMPDEST PUSH2 0x1E33 DUP6 DUP3 PUSH2 0x1DB8 JUMP JUMPDEST DUP7 SSTORE POP PUSH2 0x1E9B JUMP JUMPDEST PUSH1 0x1F NOT DUP5 AND PUSH2 0x1E49 DUP7 PUSH2 0x1C28 JUMP JUMPDEST PUSH1 0x0 JUMPDEST DUP3 DUP2 LT ISZERO PUSH2 0x1E71 JUMPI DUP5 DUP10 ADD CALLDATALOAD DUP3 SSTORE PUSH1 0x1 DUP3 ADD SWAP2 POP PUSH1 0x20 DUP6 ADD SWAP5 POP PUSH1 0x20 DUP2 ADD SWAP1 POP PUSH2 0x1E4C JUMP JUMPDEST DUP7 DUP4 LT ISZERO PUSH2 0x1E8E JUMPI DUP5 DUP10 ADD CALLDATALOAD PUSH2 0x1E8A PUSH1 0x1F DUP10 AND DUP3 PUSH2 0x1D9A JUMP JUMPDEST DUP4 SSTORE POP JUMPDEST PUSH1 0x1 PUSH1 0x2 DUP9 MUL ADD DUP9 SSTORE POP POP POP JUMPDEST POP POP POP POP POP POP POP JUMP JUMPDEST PUSH2 0x1EAD DUP3 PUSH2 0x1287 JUMP JUMPDEST PUSH8 0xFFFFFFFFFFFFFFFF DUP2 GT ISZERO PUSH2 0x1EC6 JUMPI PUSH2 0x1EC5 PUSH2 0x14D6 JUMP JUMPDEST JUMPDEST PUSH2 0x1ED0 DUP3 SLOAD PUSH2 0x1B14 JUMP JUMPDEST PUSH2 0x1EDB DUP3 DUP3 DUP6 PUSH2 0x1D47 JUMP JUMPDEST PUSH1 0x0 PUSH1 0x20 SWAP1 POP PUSH1 0x1F DUP4 GT PUSH1 0x1 DUP2 EQ PUSH2 0x1F0E JUMPI PUSH1 0x0 DUP5 ISZERO PUSH2 0x1EFC JUMPI DUP3 DUP8 ADD MLOAD SWAP1 POP JUMPDEST PUSH2 0x1F06 DUP6 DUP3 PUSH2 0x1DB8 JUMP JUMPDEST DUP7 SSTORE POP PUSH2 0x1F6E JUMP JUMPDEST PUSH1 0x1F NOT DUP5 AND PUSH2 0x1F1C DUP7 PUSH2 0x1C28 JUMP JUMPDEST PUSH1 0x0 JUMPDEST DUP3 DUP2 LT ISZERO PUSH2 0x1F44 JUMPI DUP5 DUP10 ADD MLOAD DUP3 SSTORE PUSH1 0x1 DUP3 ADD SWAP2 POP PUSH1 0x20 DUP6 ADD SWAP5 POP PUSH1 0x20 DUP2 ADD SWAP1 POP PUSH2 0x1F1F JUMP JUMPDEST DUP7 DUP4 LT ISZERO PUSH2 0x1F61 JUMPI DUP5 DUP10 ADD MLOAD PUSH2 0x1F5D PUSH1 0x1F DUP10 AND DUP3 PUSH2 0x1D9A JUMP JUMPDEST DUP4 SSTORE POP JUMPDEST PUSH1 0x1 PUSH1 0x2 DUP9 MUL ADD DUP9 SSTORE POP POP POP JUMPDEST POP POP POP POP POP POP JUMP JUMPDEST PUSH32 0x63726561746520616E206163636F756E74206669727374210000000000000000 PUSH1 0x0 DUP3 ADD MSTORE POP JUMP JUMPDEST PUSH1 0x0 PUSH2 0x1FAC PUSH1 0x18 DUP4 PUSH2 0x18D5 JUMP JUMPDEST SWAP2 POP PUSH2 0x1FB7 DUP3 PUSH2 0x1F76 JUMP JUMPDEST PUSH1 0x20 DUP3 ADD SWAP1 POP SWAP2 SWAP1 POP JUMP JUMPDEST PUSH1 0x0 PUSH1 0x20 DUP3 ADD SWAP1 POP DUP2 DUP2 SUB PUSH1 0x0 DUP4 ADD MSTORE PUSH2 0x1FDB DUP2 PUSH2 0x1F9F JUMP JUMPDEST SWAP1 POP SWAP2 SWAP1 POP JUMP JUMPDEST PUSH32 0x596F75277265206E6F7420667269656E64730000000000000000000000000000 PUSH1 0x0 DUP3 ADD MSTORE POP JUMP JUMPDEST PUSH1 0x0 PUSH2 0x2018 PUSH1 0x12 DUP4 PUSH2 0x18D5 JUMP JUMPDEST SWAP2 POP PUSH2 0x2023 DUP3 PUSH2 0x1FE2 JUMP JUMPDEST PUSH1 0x20 DUP3 ADD SWAP1 POP SWAP2 SWAP1 POP JUMP JUMPDEST PUSH1 0x0 PUSH1 0x20 DUP3 ADD SWAP1 POP DUP2 DUP2 SUB PUSH1 0x0 DUP4 ADD MSTORE PUSH2 0x2047 DUP2 PUSH2 0x200B JUMP JUMPDEST SWAP1 POP SWAP2 SWAP1 POP JUMP JUMPDEST PUSH32 0x4E487B7100000000000000000000000000000000000000000000000000000000 PUSH1 0x0 MSTORE PUSH1 0x32 PUSH1 0x4 MSTORE PUSH1 0x24 PUSH1 0x0 REVERT JUMPDEST PUSH32 0x4E487B7100000000000000000000000000000000000000000000000000000000 PUSH1 0x0 MSTORE PUSH1 0x11 PUSH1 0x4 MSTORE PUSH1 0x24 PUSH1 0x0 REVERT JUMPDEST PUSH1 0x0 PUSH2 0x20B7 DUP3 PUSH2 0x126E JUMP JUMPDEST SWAP2 POP PUSH32 0xFFFFFFFFFFFFFFFFFFFFFFFFFFFFFFFFFFFFFFFFFFFFFFFFFFFFFFFFFFFFFFFF DUP3 SUB PUSH2 0x20E9 JUMPI PUSH2 0x20E8 PUSH2 0x207D JUMP JUMPDEST JUMPDEST PUSH1 0x1 DUP3 ADD SWAP1 POP SWAP2 SWAP1 POP JUMP JUMPDEST PUSH1 0x0 DUP2 PUSH1 0x60 SHL SWAP1 POP SWAP2 SWAP1 POP JUMP JUMPDEST PUSH1 0x0 PUSH2 0x210C DUP3 PUSH2 0x20F4 JUMP JUMPDEST SWAP1 POP SWAP2 SWAP1 POP JUMP JUMPDEST PUSH1 0x0 PUSH2 0x211E DUP3 PUSH2 0x2101 JUMP JUMPDEST SWAP1 POP SWAP2 SWAP1 POP JUMP JUMPDEST PUSH2 0x2136 PUSH2 0x2131 DUP3 PUSH2 0x11C8 JUMP JUMPDEST PUSH2 0x2113 JUMP JUMPDEST DUP3 MSTORE POP POP JUMP JUMPDEST PUSH1 0x0 PUSH2 0x2148 DUP3 DUP6 PUSH2 0x2125 JUMP JUMPDEST PUSH1 0x14 DUP3 ADD SWAP2 POP PUSH2 0x2158 DUP3 DUP5 PUSH2 0x2125 JUMP JUMPDEST PUSH1 0x14 DUP3 ADD SWAP2 POP DUP2 SWAP1 POP SWAP4 SWAP3 POP POP POP JUMP INVALID LOG2 PUSH5 0x6970667358 0x22 SLT KECCAK256 DUP3 PUSH12 0x1F6907B69A009E5E61B5F98D PUSH5 0xBFB4C6F4F2 0x2D 0x1E 0xE0 SELFBALANCE PUSH32 0xD21641FECB293464736F6C634300081300330000000000000000000000000000 "
				},
				"gasEstimates": {
					"creation": {
						"codeDepositCost": "1721200",
						"executionCost": "1806",
						"totalCost": "1723006"
					},
					"external": {
						"addFriend(address,string)": "infinite",
						"allUsers()": "infinite",
						"checkUserExist(address)": "2992",
						"createAccount(string)": "infinite",
						"getMyFriendList()": "infinite",
						"getUsername(address)": "infinite",
						"readMessage(address)": "infinite",
						"sendMessage(address,string)": "infinite"
					},
					"internal": {
						"_addFriend(address,address,string memory)": "infinite",
						"_getChatCode(address,address)": "infinite",
						"checkAlreadyFriend(address,address)": "infinite"
					}
				},
				"methodIdentifiers": {
					"addFriend(address,string)": "3b9f708d",
					"allUsers()": "4918600a",
					"checkUserExist(address)": "926bef63",
					"createAccount(string)": "298daf5b",
					"getMyFriendList()": "bd0f4d0d",
					"getUsername(address)": "ce43c032",
					"readMessage(address)": "255e9c11",
					"sendMessage(address,string)": "de6f24bb"
				}
			},
			"storageLayout": {
				"storage": [
					{
						"astId": 29,
						"contract": "Chat.sol:Chat",
						"label": "getAllUsers",
						"offset": 0,
						"slot": "0",
						"type": "t_array(t_struct(allUserStruck)25_storage)dyn_storage"
					},
					{
						"astId": 34,
						"contract": "Chat.sol:Chat",
						"label": "userList",
						"offset": 0,
						"slot": "1",
						"type": "t_mapping(t_address,t_struct(user)8_storage)"
					},
					{
						"astId": 40,
						"contract": "Chat.sol:Chat",
						"label": "allMessages",
						"offset": 0,
						"slot": "2",
						"type": "t_mapping(t_bytes32,t_array(t_struct(message)20_storage)dyn_storage)"
					}
				],
				"types": {
					"t_address": {
						"encoding": "inplace",
						"label": "address",
						"numberOfBytes": "20"
					},
					"t_array(t_struct(allUserStruck)25_storage)dyn_storage": {
						"base": "t_struct(allUserStruck)25_storage",
						"encoding": "dynamic_array",
						"label": "struct Chat.allUserStruck[]",
						"numberOfBytes": "32"
					},
					"t_array(t_struct(friend)13_storage)dyn_storage": {
						"base": "t_struct(friend)13_storage",
						"encoding": "dynamic_array",
						"label": "struct Chat.friend[]",
						"numberOfBytes": "32"
					},
					"t_array(t_struct(message)20_storage)dyn_storage": {
						"base": "t_struct(message)20_storage",
						"encoding": "dynamic_array",
						"label": "struct Chat.message[]",
						"numberOfBytes": "32"
					},
					"t_bytes32": {
						"encoding": "inplace",
						"label": "bytes32",
						"numberOfBytes": "32"
					},
					"t_mapping(t_address,t_struct(user)8_storage)": {
						"encoding": "mapping",
						"key": "t_address",
						"label": "mapping(address => struct Chat.user)",
						"numberOfBytes": "32",
						"value": "t_struct(user)8_storage"
					},
					"t_mapping(t_bytes32,t_array(t_struct(message)20_storage)dyn_storage)": {
						"encoding": "mapping",
						"key": "t_bytes32",
						"label": "mapping(bytes32 => struct Chat.message[])",
						"numberOfBytes": "32",
						"value": "t_array(t_struct(message)20_storage)dyn_storage"
					},
					"t_string_storage": {
						"encoding": "bytes",
						"label": "string",
						"numberOfBytes": "32"
					},
					"t_struct(allUserStruck)25_storage": {
						"encoding": "inplace",
						"label": "struct Chat.allUserStruck",
						"members": [
							{
								"astId": 22,
								"contract": "Chat.sol:Chat",
								"label": "name",
								"offset": 0,
								"slot": "0",
								"type": "t_string_storage"
							},
							{
								"astId": 24,
								"contract": "Chat.sol:Chat",
								"label": "accountAddress",
								"offset": 0,
								"slot": "1",
								"type": "t_address"
							}
						],
						"numberOfBytes": "64"
					},
					"t_struct(friend)13_storage": {
						"encoding": "inplace",
						"label": "struct Chat.friend",
						"members": [
							{
								"astId": 10,
								"contract": "Chat.sol:Chat",
								"label": "publicKey",
								"offset": 0,
								"slot": "0",
								"type": "t_address"
							},
							{
								"astId": 12,
								"contract": "Chat.sol:Chat",
								"label": "name",
								"offset": 0,
								"slot": "1",
								"type": "t_string_storage"
							}
						],
						"numberOfBytes": "64"
					},
					"t_struct(message)20_storage": {
						"encoding": "inplace",
						"label": "struct Chat.message",
						"members": [
							{
								"astId": 15,
								"contract": "Chat.sol:Chat",
								"label": "sender",
								"offset": 0,
								"slot": "0",
								"type": "t_address"
							},
							{
								"astId": 17,
								"contract": "Chat.sol:Chat",
								"label": "timestamp",
								"offset": 0,
								"slot": "1",
								"type": "t_uint256"
							},
							{
								"astId": 19,
								"contract": "Chat.sol:Chat",
								"label": "mssg",
								"offset": 0,
								"slot": "2",
								"type": "t_string_storage"
							}
						],
						"numberOfBytes": "96"
					},
					"t_struct(user)8_storage": {
						"encoding": "inplace",
						"label": "struct Chat.user",
						"members": [
							{
								"astId": 3,
								"contract": "Chat.sol:Chat",
								"label": "name",
								"offset": 0,
								"slot": "0",
								"type": "t_string_storage"
							},
							{
								"astId": 7,
								"contract": "Chat.sol:Chat",
								"label": "friendList",
								"offset": 0,
								"slot": "1",
								"type": "t_array(t_struct(friend)13_storage)dyn_storage"
							}
						],
						"numberOfBytes": "64"
					},
					"t_uint256": {
						"encoding": "inplace",
						"label": "uint256",
						"numberOfBytes": "32"
					}
				}
			},
			"userdoc": {
				"kind": "user",
				"methods": {},
				"version": 1
			}
		}
	}
}